:020000040800F2
:10000000405D0024E102000871970008F9840008AF
:100010006197000809070008F1B20008000000001D
:10002000000000000000000000000000D19D00085A
:10003000B113000800000000219A000859A100082F
:10004000FB020008FB020008FB020008FB0200089C
:10005000FB020008FB020008FB020008FB0200088C
:10006000FB020008FB020008FB020008FB0200087C
:10007000390E0008490E0008590E0008FB0200085E
:10008000FB020008FB020008FB020008D113000875
:10009000F1130008E113000801140008FB02000836
:1000A000FB020008FB020008FB020008FB0200083C
:1000B000FB020008FB020008FB020008FB0200082C
:1000C000FB020008FB020008FB020008FB0200081C
:1000D000D99C0008E1B20008FB020008FB020008FE
:1000E000FB020008FB02000800000000FB02000801
:1000F000FB020008FB020008FB020008FB020008EC
:10010000FB020008FB020008FB020008FB020008DB
:10011000FB020008B1A4000809A3000819A3000805
:10012000690E0008790E0008890E0008990E000873
:10013000A90E0008FB020008FB020008FB020008F1
:1001400000000000000000000000000000000000AF
:10015000FB020008FB020008FB020008FB0200088B
:10016000FB020008FB020008FB020008FB0200087B
:10017000FB020008FB020008FB0200080000000070
:10018000FB020008FB020008D1A40008FB020008E3
:10019000FB020008FB020008FB020008FB0200084B
:1001A000FB020008FB020008FB0200080000000040
:1001B000FB020008FB020008FB020008FB0200082B
:1001C000FB020008FB020008000000000000000025
:1001D0000000000000000000FB020008000000001A
:1001E000000000000000000000000000000000000F
:1001F0000000000000000000FB020008FB020008F5
:10020000FB020008FB02000800000000FB020008DF
:10021000FB020008FB020008FB020008FB020008CA
:10022000FB02000800000000FB02000800000000C4
:10023000FB020008FB02000800000000FB020008AF
:10024000FB020008FB020008FB020008FB0200089A
:10025000FB020008FB020008FB020008FB0200088A
:10026000FB020008FB020008FB020008FB0200087A
:10027000FB020008FB020008FB020008000000006F
:10028000FB020008FB020008FB020008FB0200085A
:1002900000000000FB020008FB0200080000000054
:1002A00000000000FB020008FB020008FB0200083F
:1002B000D1B20008FB020008FB020008FB020008A4
:1002C000FB020008FB020008FB020008DFF80CD06C
:1002D00000F08CF800480047E1BD0008405D0024B4
:1002E0000648804706480047FEE7FEE7FEE7FEE7D0
:1002F000FEE7FEE7FEE7FEE7FEE7FEE759A200089D
:10030000CD0200082DE9F05F0546002092469B468D
:1003100088460646814640241BE02846414647461B
:10032000224600F053F853465A46C01A914110D362
:1003300011461846224600F03AF82D1A67EB0108DC
:100340004F4622460120002100F031F817EB00094A
:100350004E41201EA4F10104DFDC484631462A4606
:100360004346BDE8F09F40EA01039B0703D009E044
:1003700008C9121F08C0042AFAD203E011F8013B91
:1003800000F8013B521EF9D27047D2B201E000F8EA
:10039000012B491EFBD270470022F6E710B5134629
:1003A0000A4604461946FFF7F0FF204610BD202AF2
:1003B00004DB203A00FA02F1002070479140C2F1BC
:1003C000200320FA03F3194390407047202A04DBEE
:1003D000203A21FA02F00021704721FA02F3D040BE
:1003E000C2F1200291400843194670471CB50948E4
:1003F0000090094801900546009C06E0E06840F046
:10040000010394E8070098471034AC42F6D3FFF795
:1004100061FF000014F7000834F700080000000036
:1004200040F600000121C5F60200012204F030B9B7
:1004300040F600000121C5F60200002204F028B9B0
:10044000704700000000000040F600000821C5F6DB
:100450000200012204F01CB940F600000821C5F694
:100460000200002204F014B97047000000000000F0
:10047000002808BF704710B54EF2180145F2003C45
:10048000CEF20001C0F2070C03E000BF0138020405
:100490001AD051F804EC0B68002208E01A449C4280
:1004A000A2EB0402234628BF72446245EED20C68D8
:1004B0009C42F3D10C689C4204BF0C689C42EDD175
:1004C0000C689C42F3D0E9E7BDE81040704700009B
:1004D00080B54EF21801C0EB0010CEF200014FEAD9
:1004E000401E002351F804CC0A6808E013449042EF
:1004F000A3EB0003024628BF634473450CD208688F
:100500009042F3D10868904204BF08689042EDD150
:1005100008689042F3D0E9E780BD000000000000C9
:1005200010B5FFF78DFFFFF79FFF0BF091F8044622
:100530000BF0B6F9204310BD2DE9F04F83B00292C5
:100540000E460190FFF774FF922000F0C5F892204C
:1005500000F0C2F8552000F0BFF88046552000F0AA
:10056000BBF88346552000F0B7F88246552000F0CE
:10057000B3F80446552000F0AFF80746552000F0C8
:10058000ABF80546FFF74CFF48EA0B2040F2140990
:1005900000B2C2F2004900EE100A4AEA042000B29A
:1005A00099ED001AB8EEC00A21EE000A01EE100A19
:1005B00047EA052086ED000A00B299ED002A00EE18
:1005C000100AB8EEC11AB8EEC00A22EE011A86ED82
:1005D000011A22EE000A86ED020AFFF73DFF802095
:1005E00000F07AF8552000F077F80646552000F024
:1005F00073F8552000F070F88246552000F06CF832
:100600000546552000F068F88346552000F064F850
:100610000446552000F060F80746552000F05CF8CD
:100620008046FFF711FF0F2E25D14AEA052099EDEC
:10063000011A00B2019900EE100A4BEA042000B240
:10064000B8EEC00A21EE000A01EE100A47EA0820BF
:1006500081ED000A00B299ED012A00EE100AB8EE11
:10066000C11AB8EEC00A22EE011A81ED011A22EE7B
:10067000000A81ED020AFFF7DBFEA22000F02CF851
:10068000A22000F029F8552000F026F80446552055
:1006900000F022F80546FFF7C3FEE0004FF6000326
:1006A00040EA55110022CFF6FF73B2EB902F18BF2E
:1006B0001943B4EE001AB3EE072A00EE101A02989E
:1006C000B8EEC00AA0EE012A80ED002A03B0BDE812
:1006D000F08F00000000000080B582B08DF80700A8
:1006E00040F6A040C2F200400DF107010DF10602F4
:1006F00001234FF47A7CCDF800C005F0B1FF9DF8DE
:10070000060002B080BD0000FEE70000000000000F
:10071000704700000000000090B04FF2A8409FED2D
:10072000B78AC0F600009FEDB69A40F26C34B0EE86
:10073000480A90E80E000491C16805920269069388
:100740004369079181690892C2690993C36A0F934B
:10075000836A0E93436A006AF0EE490ACDE90B20E2
:100760004CF6CD40C2F20044C3F64C60039000202A
:100770000290002004AA0A91C4F2482001900021AE
:1007800020460D9302F1240502F1180702F10C0630
:1007900009F02EF9B0EE480AF0EE490A04F14808D3
:1007A00000214046324609F023F9B0EE480AF0EE47
:1007B000490A04F1900A002150463A4609F018F916
:1007C000B0EE480AF0EE490A04F1D8070021384695
:1007D0002A4609F00DF940F2243001AAC2F2004085
:1007E0009FED880ADFED880A002109F001F940F247
:1007F000B8250220C2F2004528804FF47A600BF041
:100800004BFB41F2A80640F25C0BC2F20046C2F27A
:10081000004B41F220697088C2F20049A881B0897A
:10082000E881F08A28822878318C6982DBF80C1004
:10083000696128B3012800F0DB80022848D140F22A
:100840007810C2F2004090F8230001284FF0020017
:1008500068703DD140F278110020C2F2004191ED64
:100860000A0A91ED0B1ABDEEC00A81F82300BDEE15
:10087000C11A10EE100A288311EE100A27E000BFFB
:1008800099F80A0048B101284FF00001697000F0A2
:10089000B380032801D103206870B9F8060000F185
:1008A0000A0189B2142902D80020A9F80600B9F873
:1008B000041001F10A0292B2142A02D80021A9F808
:1008C00004104FF6FD725043288301FB02F0688349
:1008D000284600F065F9B6F90200B5F9041000EEFB
:1008E000100A01EE101A2046B8EEC00AF8EEC10A4E
:1008F00008F0E2FFB6F90C00B5F9061000EE100A98
:1009000001EE101A4046B8EEC00AF8EEC10A08F02F
:10091000D3FFB6F91600B5F9081000EE100A01EE83
:10092000101A5046B8EEC00AF8EEC10A08F0C4FF2B
:10093000B6F92000B5F90A1000EE100A01EE101AFF
:100940003846B8EEC00AF8EEC10A08F0B5FF68787C
:10095000C0B194ED080A94ED1A1ABDEEC00A94EDE8
:100960002C2ABDEEC11A94ED3E3ABDEEC22ABDEE70
:10097000C33A10EE100A11EE101A12EE102A13EEFE
:10098000103A03E0002000210022002300F030FA9A
:1009900002200BF081FA7088F18AA881B089E88181
:1009A00028782982318C02286982DBF80C10696171
:1009B00004D001281CD000288AD161E740F27810C9
:1009C000C2F2004090F8230001284FF00200687046
:1009D0007FF47EAF40F278100021C2F2004090ED2B
:1009E0000A0A90ED0B1ABDEEC00A80F823103EE70C
:1009F000B9F81400A8836BE702204DE700FC7F469E
:100A00000000FA450000FA4400803B450000000069
:100A100010B52DED108B90ED052A9FED5C3A33EE6D
:100A2000422A9FED5B3A90ED0D4A9FED5ADA9FED19
:100A30005ABAB7EEC0AA32EE033AB0EE609AB4EEFC
:100A4000442A0446F1EE10FAB1EE40EAB0EE418AD3
:100A500032FE032A32EE443A80ED0C3A33EE0D2A90
:100A600022EE0B2AB7EEC22AB0EE420B0DF0CCFFFD
:100A700094ED0C1AB7EEC9CAB0EE409B31EE0D1AD8
:100A800021EE0B1AB7EEC11AB0EE410B0DF0BCFE11
:100A900020EE0C0B94ED0C1A9FED40FA31EE0F1A7C
:100AA000AAEE090BB7EEC89A21EE0B1AB7EECEEA02
:100AB00030EE090BBDEEC02BB7EEC10A12EE100AE4
:100AC00060810DF0A1FFB0EE408B94ED0C1A31EE79
:100AD0000F1A21EE0B1AB7EEC11AB0EE410B0DF052
:100AE00093FE20EE4C0B94ED0C1A31EE0D1AAEEE87
:100AF000080B21EE0B1A30EE090BBDEEC02BB7EE42
:100B0000C10A12EE100A20810DF07EFFB0EE408B7C
:100B100094ED0C1A31EE0D1A21EE0B1AB7EEC11A34
:100B2000B0EE410B0DF070FE20EE4C0B94ED0C1A64
:100B300031EE0F1AAEEE080B21EE0B1A30EE090B58
:100B4000BDEEC02BB7EEC10A12EE100AE0800DF028
:100B50005BFFB0EE408B94ED0C1A31EE0F1A21EED4
:100B60000B1AB7EEC11AB0EE410B0DF04DFE20EEA0
:100B70000C0BAAEE080B30EE090BBDEEC00B10EE0D
:100B8000100AA080BDEC108B10BD00BF00003443E4
:100B90000000B443000034424BFA8E3C000034C2E3
:100BA000B0B52DED028B04464078032800F2D980C1
:100BB000DFE800F002185CDA0020A07040F26C342C
:100BC000C2F20044204608F007FF04F1480008F094
:100BD00003FF04F1900008F0FFFE04F1D80008F0D4
:100BE000FBFE39E0B4F918009FED793B00EE100AE6
:100BF000B4F91A0002EE100A0020B8EEC01AA07074
:100C0000B8EEC00BB8EEC22BB1EE411A22EE032BA8
:100C1000B7EEC11AB0EE424BB0EE425BA1EE034B11
:100C200091EE035BB0EE421BA0EE032B90EE031B94
:100C3000BDEEC40BBDEEC53BBDEEC11B10EE100AF0
:100C4000BDEEC20BA08013EE100A10EE101AE08069
:100C500011EE100A6181208140F22430C2F200407E
:100C6000BDEC028BBDE8B04008F0B6BE94ED050ABD
:100C70009FED5C1A30EE011AB2EE042A0020A0703B
:100C8000B4EE421AF1EE10FA0CDABAEE042AB4EE1F
:100C9000421AF1EE10FA05DD00209FED530AC4F26E
:100CA000C820606140F22435DFED4F0AC2F20045F2
:100CB000284608F001FEB4F91800B1EE046A9FED71
:100CC000443B00EE100AB4F91A0095ED085A02EE02
:100CD000100AB7EEC57AB8EEC01AB4EE456AB9EE9E
:100CE000046AB8EEC22BB1EE411A9FED3B8BF1EED8
:100CF00010FA22EE032BB7EEC11A38FE078BB4EEC2
:100D0000465AB0EE424BF1EE10FAB0EE426BB8EE3E
:100D1000C00BA1EE034B38FE075B91EE036B34EE84
:100D2000051B36EE054BBDEEC11BB0EE426BA0EECF
:100D3000032B11EE100A90EE036BBDEEC43BA080B6
:100D400032EE052B36EE050B13EE100ABDEEC21B7C
:100D5000BDEEC00BE08010EE100A208111EE100AEB
:100D60006081BDEC028BB0BDA07838B90120A070C5
:100D700040F22010C2F20040406A606341F22060FD
:100D8000C2F200408188C088A1EB8101218300EB81
:100D90004000608340F22430C2F2004008F01CFEA4
:100DA000B4F91800B4F91A1000EE100A204601EE4A
:100DB000101AB8EEC00AF8EEC10A9FED091ABDEC90
:100DC000028BBDE8B040FFF723BE00BF00BF00BFED
:100DD000D67C60B79BA0E63F00000000000000004A
:100DE0000000FA440000C8C20000C8420000000031
:100DF00080B582B04FEA102C8DF80100080A8DF8FA
:100E00000200100A8DF80400180A8DF8060040F65A
:100E100060308DF803108DF80520C2F200406A465C
:100E20004FF400718DF800C08DF807300AF07CFE99
:100E300002B080BD0000000040F2A070C2F200408D
:100E400001F0A2BA0000000040F61800C2F2004013
:100E500001F09ABA0000000040F69000C2F2004093
:100E600001F092BA0000000040F6E820C2F2004013
:100E700001F08ABA0000000040F60810C2F20040FB
:100E800001F082BA0000000040F68010C2F200407B
:100E900001F07ABA0000000040F6F810C2F20040FB
:100EA00001F072BA0000000040F67020C2F200406B
:100EB00001F06ABA0000000040F20F42D0F800C012
:100EC000C4F20202944511DC6F22C4F2020294457E
:100ED00022DC3F22C4F20202944539DC1022C4F223
:100EE000020294455AD0282254E000BF40F26F42DB
:100EF000C4F2020294451BDC40F23F42C4F20202FB
:100F000094452DDC40F21042C4F20202944545D0D3
:100F100040F228423EE000BF9F22C4F20202944504
:100F200028DC7022C4F20202944537D0882231E0D6
:100F300040F29F42C4F20202944523DC40F2704228
:100F4000C4F20202944529D040F2884222E000BF58
:100F50004022C4F20202944520D058221AE000BF79
:100F600040F24042C4F20202944517D040F2584287
:100F700010E000BFA022C4F2020294450ED0B822B5
:100F800008E000BF40F2B842C4F20202944505D026
:100F900040F2A042C4F20202944517D10CF0F802CC
:100FA0004AF6AB23103ACAF6AA23A2FB03310AA3DE
:100FB0005F2AC1F302115B5C40F2FF312CEA0101B0
:100FC000C36588BF04318165084670472CF0FF0176
:100FD00081650846704700BF00061016000610160F
:100FE00070B540F26F44D0F800C0C4F20204D0F8EB
:100FF00058E0A4451ADC9F25C4F20205AC4533DC59
:101000005725C4F20205AC455ADC1025C4F202058E
:10101000AC4500F098802825C4F20205AC4500F0EC
:1010200092804025C4F202058AE000BF45F22F45B8
:10103000C5F60205AC452DDC40F2B745C4F2020509
:10104000AC454BDC40F27045C4F20205AC457AD0A9
:1010500040F28845C4F20205AC4574D040F2A04588
:10106000C4F202056CE000BF40F22745C4F202055D
:10107000AC4543DCA025C4F20205AC4563D0B825DD
:10108000C4F20205AC455ED040F21045C4F2020540
:1010900056E000BF45F26B45C5F60205AC453FDCA6
:1010A00045F23045C5F60205AC454CD045F2444505
:1010B000C5F60205AC4546D045F258453EE000BFB6
:1010C0005825C4F20205AC453DD07025C4F2020596
:1010D000AC4538D08825C4F2020531E040F2B8456D
:1010E000C4F20205AC452ED045F20845C5F602050E
:1010F000AC4528D045F21C4520E000BF40F2284511
:10110000C4F20205AC451ED040F24045C4F20205CF
:10111000AC4518D040F25845C4F2020510E000BFBB
:1011200045F26C45C5F60205AC450CD045F2944538
:10113000C5F60205AC4506D045F28045C5F6020568
:10114000AC4540F0D080456EC66E002E866E6E6057
:101150001CBFD0E91C566E60A44515DC9F24C4F268
:101160000204A4452CDC5724C4F20204A44551DC3B
:101170001024C4F20204A4457AD02824C4F2020444
:10118000A44575D040246FE045F22F44C5F6020413
:10119000A44529DC40F2B744C4F20204A44545DC6E
:1011A00040F27044C4F20204A44561D040F2884485
:1011B000C4F20204A4455BD040F2A04454E000BF56
:1011C00040F22744C4F20204A4453FDCA024C4F248
:1011D0000204A4454CD0B824C4F20204A44547D06C
:1011E00040F2104440E000BF45F26B44C5F60204F3
:1011F000A44555DC45F23044C5F60204A44561D04F
:1012000045F24444C5F60204A4455BD045F2584477
:1012100054E000BF5824C4F20204A44528D070242E
:10122000C4F20204A44523D088241DE040F2B8444F
:10123000C4F20204A4451BD045F20844C5F60204DA
:10124000A4453FD045F21C4438E000BF40F228449A
:10125000C4F20204A4450BD040F24044C4F202049C
:10126000A44505D040F25844C4F20204A4453AD142
:101270008468C06D00F01F003F2505FA00F0CEF82D
:101280000800DCF80000402C20F48020CCF800009E
:10129000CCF8043023D1CCF80820CCF80C1070BD69
:1012A00045F26C44C5F60204A4450BD045F28044D7
:1012B000C5F60204A44505D045F29444C5F60204DF
:1012C000A44510D1C46D012504F01F04806805FAFF
:1012D00004F4CEF804404028CCF80430DBD0CCF83D
:1012E0000810CCF80C2070BD002818BF002901D1CF
:1012F000704700BFB0B590F800C0427862F30A2C86
:10130000A1F800C0427883784FEAD20E63F34A1EF8
:10131000A1F802E08278C37804799B0043EA921234
:1013200064F38A228A80037944795B0864F3CA13E0
:10133000CB804479C4F301148C72022C04D0032CAA
:1013400004D1022401E000BF03248C724479A2F589
:101350008062A409CC728479C57944EA05248C8121
:10136000047A457A44EA0524CC81847AC57A44EA31
:1013700005240C82047B8C74447BCC74847BC57BF9
:1013800044EA05248C82047CACF58065407C0D80A9
:10139000AEF580654D808A80A3F5806244EA002026
:1013A000CA80A0F580600881BDE8B04070470000A9
:1013B0007047000000000000EFF3108072B600BF1D
:1013C00001200121FFF7A4F9FAE700000000000066
:1013D00040F66030C2F2004002F0E2BB00000000C4
:1013E00040F66030C2F2004002F0DABB00000000BC
:1013F00040F60040C2F2004002F0D2BB0000000004
:1014000040F60040C2F2004002F0CABB00000000FB
:10141000B0B58AB041F236646A46C2F20044402157
:10142000234602F0C5FA0098A0F20120032821D833
:1014300011A115A218A30FF2700C51F8201052F848
:1014400020200FF2740E53F820300D885CF820C075
:101450005EF820001580228812BA120C0A8061887A
:1014600009BA090C1980A18809BA090CACF8001056
:10147000A17901700AB0B0BDA8100024B2100024F8
:10148000BC100024C6100024B0100024BA100024A0
:10149000C4100024CE100024AA100024B41000248C
:1014A000BE100024C8100024AC100024B610002484
:1014B000C0100024CA100024AE100024B81000246C
:1014C000C2100024CC100024B0B540F2787540F270
:1014D0004404C2F20045C2F2004440212A46234699
:1014E00002F066FA2868A0F20120052800F2EA80DE
:1014F000DFE800F0041C34E8526E00BFB4F84C1072
:101500002088A4F854106188A28800BA09BA000C97
:10151000A4F84C00080CA4F84E0011BA080CA4F86A
:101520005000A07984F85200B0BD00BFB4F8561046
:101530002088A4F85E106188A28800BA09BA000C5D
:10154000A4F85600080CA4F8580011BA080CA4F826
:101550005A00A07984F85C00B0BD00BF2088618883
:10156000B4F9602003BAA4F8682008BAA188000C76
:10157000A4F86200180CA4F8600009BA090CA4F8D9
:101580006410C2EB1341A279B1F5805F84F8662044
:101590003CDDA16801393EE020886188B4F938203B
:1015A00003BAA4F8402008BAA188000C6087180C80
:1015B000208709BA090CA187C2EB1341A279B1F5C2
:1015C000805F84F83E2043DDA169013945E000BF1A
:1015D00020886188B4F9422003BAA4F84A2008BAE6
:1015E000A188000CA4F84400180CA4F8420009BA21
:1015F000090CA4F84610C2EB1341A279B1F5805F43
:1016000084F8482042DDA16A013944E011F5805F89
:10161000A16801DA0131A160B4F9102000EB41307A
:101620009FED2D1B801AE06000EE100AB8EEC00B93
:1016300080EE010B9FED241B20EE010B9FED241B80
:1016400020EE010BB7EEC00B84ED050AB0BD00BF64
:1016500011F5805FA16901DA0131A16100EE100A84
:10166000B4F920209FED181B00EB4130B8EE400B81
:10167000801AE06120EE010B9FED151B20EE010B9F
:10168000B7EEC00B84ED090AB0BD00BF11F5805F55
:10169000A16A01DA0131A16200EE100AB4F930202A
:1016A0009FED091B00EB4130B8EE400B801AE06261
:1016B00020EE010B9FED061B20EE010BB7EEC00BD9
:1016C00084ED0D0AB0BD00BF000000000000203F07
:1016D0000000000000807640000000000000424052
:1016E0002DE9F04F81B02DED048B92B0044666A039
:1016F00065490C9141680D9181680E91C1680F9107
:10170000016910914069119065A0654906919FEDAE
:10171000708AD0E901130791C16808930369406991
:101720009FED6C9ACDE90A3063A040F2AC5B051DD9
:10173000B0EE480AF0EE490AC2F2004B0CAA099139
:1017400006AF5D490091EA462ACD019101694069E1
:101750000590CDE903510021584602F10C0607F12E
:101760000C0902930AF10C0808F042F9B0EE480A9D
:10177000F0EE490A0BF148000021324608F038F932
:101780009FED559A40F21C56B0EE480AF0EE490A19
:10179000C2F20046002130463A4608F029F9B0EE80
:1017A000480AF0EE490A06F14807002138464A4641
:1017B00008F01EF940F28C49B0EE480AF0EE490AF2
:1017C000C2F2004900214846524608F011F9B0EE35
:1017D000480AF0EE490A09F148000021424608F0A3
:1017E00007F940F2000940F26C0A40F27C08C4F2AA
:1017F000A009002140F6AC55C2F2004AC2F20048EE
:101800000120C4F23431C4E9039120701CE000BF10
:1018100000EE100AD6ED080A3846B8EEC00A08F005
:101820004BF89BED1A0A96ED1A1ABDEEC00ABDEEF2
:10183000C11A10EE100A11EE101A00F095F90120ED
:101840000AF02AFB013D13D09AED030AD4ED040AF5
:101850003046C4F8149084ED060A08F02DF8B8F963
:101860000C00B0F57A7FD3DD0020A8F80C00CFE79C
:1018700000210020C4F23431C4E9031012B0BDECE1
:10188000048B01B0BDE8F08F0000A0410000000013
:1018900000007A440000C842000000000000000080
:1018A0000000C841000000000000C8420000C8421B
:1018B00000000000000000000000C841000000001F
:1018C00000002F440000C8C200000000000000001B
:1018D00000FC7F460000FA4500401C460000000066
:1018E00064200AF0D9FA40F2F024C2F20044204603
:1018F000FFF7F6FE40F2AC5940F28C4AB3EE09CA4B
:10190000BBEE09DAC2F2004940F27C07C2F2004A9B
:1019100041F220659FED8EEB9FED8F8AC2F200476A
:101920009FED8F9A40F2DD569FED8CAA09F1480891
:101930009FED8CBA0AF1480BC2F200451CE000BFD3
:1019400000EE100ADAED080A5846B8EEC00A07F0B1
:10195000B3FF207800B399ED1A0A9AED1A1ABDEE7A
:10196000C00ABDEEC11A10EE100A11EE101A00F0F6
:10197000FBF801200AF090FA6078022810D00028C5
:1019800040F07E80A87A00F0FD0001281CD00028DD
:1019900076D10020207073E000200021E7E700BF2F
:1019A00040F27810C2F2004090F82400012867D17C
:1019B00040F278100021C2F2004080F82410D0E9F3
:1019C0000D01C4E903105BE0298840F22010C2F247
:1019D00000402E4601F1320302259BB225703546A8
:1019E000642BD0E90802C4E9052001D80021298030
:1019F000688840F2DD5600F1320292B2642A01D8C2
:101A00000020688009B294ED031A00EE101AB7EEB8
:101A1000C11A00B294ED042AB7EEC22AB8EEC00B88
:101A200080EE0E0B31EE400B01EE100AB7EEC00B4C
:101A3000B8EEC11B30EE083A81EE0E1BB4EE4A0A36
:101A4000F1EE10FA32EE411B33FE000AB7EEC11B75
:101A5000B5EE400A30EE0A2AF1EE10FA81FE4C1A79
:101A6000B8BFB0EE420A84ED041AB4EE4D1A84ED0C
:101A7000030AF1EE10FA03DA0020CCF2C81020615C
:101A800094ED031A94ED090AB4EE401AF1EE10FA3F
:101A90001CD094ED050A84ED091A31EE402AB0EE0F
:101AA000401A84ED0A0A32EE083AB4EE492AF1EE01
:101AB00010FA33FE022A32EE0A3AB4EE42BAF1EEDE
:101AC00010FA73FE020AC4ED070A05E094ED051A48
:101AD00094ED0A0AD4ED070A31EE082A484631EEA1
:101AE000403A31EE0A1A32EE402AB4EE493AF1EEAB
:101AF00010FA31EE400A32FE032AB4EE42BAF1EE99
:101B000010FA30FE020A84ED080A07F0D5FEB7F994
:101B10000200B04201DB0020788000EE100AD9ED0F
:101B2000080A4046B8EEC00A07F0C6FED4ED040A23
:101B3000504694ED060A07F0BFFEB7F90C00B0F569
:101B40007A7F7FF7FDAE0020B881F9E600BF00BFC5
:101B5000000000000070B7400000B4C30000B443B0
:101B600000003443000034C380B582B0020A8DF80F
:101B70000100080A8DF802000020019040F60040A4
:101B80008DF800208DF80310C2F200406A4640F242
:101B9000FF1109F0C9FF02B080BD00000000000085
:101BA0002DE9F041044602F07BFD1CB3054694F894
:101BB0003500022822D140F20F462768C4F20206FF
:101BC00040F26F48B7426FF00E00C4F202081DDC0D
:101BD0006F21C4F202018F422ADC3F21C4F20201CC
:101BE0008F4241DC1021C4F202018F4263D02821D0
:101BF0005CE000BF0120BDE8F08100BF802060658F
:101C00000120002184F83410BDE8F08147451BDC39
:101C100040F23F41C4F202018F422DDC40F21041FC
:101C2000C4F202018F4246D040F228413EE000BF9C
:101C30009F21C4F202018F4228DC7021C4F202010C
:101C40008F4238D0882131E040F29F41C4F2020136
:101C50008F4223DC40F27041C4F202018F422AD04D
:101C600040F2884122E000BF4021C4F202018F42CD
:101C700021D058211AE000BF40F24041C4F20201D5
:101C80008F4218D040F2584110E000BFA021C4F2AA
:101C900002018F420FD0B82108E000BF40F2B841E6
:101CA000C4F202018F4206D040F2A041C4F2020108
:101CB0008F42394607D13946386820F01E0041F876
:101CC000140B6FF080000A68474500EA02000860C4
:101CD0001ADC9F20C4F20200874233DC5720C4F292
:101CE000020087425ADC1020C4F20200874200F052
:101CF00097802820C4F20200874200F091804020A3
:101D0000C4F202008AE000BF45F22F40C5F602008F
:101D100087422DDC40F2B740C4F2020087424BDC20
:101D200040F27040C4F20200874279D040F288400D
:101D3000C4F20200874273D040F2A040C4F2020015
:101D40006CE000BF40F22740C4F20200874243DC4F
:101D5000A020C4F20200874262D0B820C4F2020080
:101D600087425DD040F21040C4F2020056E000BF4E
:101D700045F26B40C5F6020087423FDC45F2304039
:101D8000C5F6020087424BD045F24440C5F602003A
:101D9000874245D045F258403EE000BF5820C4F28B
:101DA000020087423CD07020C4F20200874237D044
:101DB0008820C4F2020031E040F2B840C4F20200D0
:101DC00087422DD045F20840C5F60200874227D051
:101DD00045F21C4020E000BF40F22840C4F202005F
:101DE00087421DD040F24040C4F20200874217D023
:101DF00040F25840C4F2020010E000BF45F26C40CF
:101E0000C5F6020087420BD045F29440C5F60200A9
:101E1000874205D045F28040C5F60200874204D1D2
:101E2000206E016821F480710160386820F00100A3
:101E3000386000BF3868C00710D002F031FC401B8A
:101E40000628F7D320206065032084F835000120A0
:101E5000002184F83410BDE8F08100BF2068B04252
:101E600010DC6F21C4F2020188421DDC3F21C4F264
:101E70000201884234DC1021C4F20201884255D0AC
:101E800028214FE040451BDC40F23F41C4F20201F3
:101E900088422DDC40F21041C4F20201884245D054
:101EA00040F228413EE000BF9F21C4F20201884277
:101EB00028DC7021C4F20201884237D0882131E049
:101EC00040F29F41C4F20201884223DC40F270419B
:101ED000C4F20201884229D040F2884122E000BFCA
:101EE0004021C4F20201884220D058211AE000BFEC
:101EF00040F24041C4F20201884217D040F25841FA
:101F000010E000BFA021C4F2020188420ED0B82127
:101F100008E000BF40F2B841C4F20201884205D097
:101F200040F2A041C4F2020188425BD1D4E916120A
:101F300002F01F023F2303FA02F28A6040455BDC95
:101F40009F21C4F20201884214DC5721C4F202012D
:101F5000884227DC1021C4F20201884200F0A280EE
:101F60002821C4F20201884200F09C804021C4F282
:101F7000020195E040F22741C4F2020188421FDCD1
:101F8000A021C4F20201884200F08C80B821C4F282
:101F90000201884200F0868040F21041C4F2020142
:101FA0007EE000BF5821C4F2020188427AD070213D
:101FB000C4F20201884275D08821C4F202016FE0A8
:101FC00040F22841C4F2020188426BD040F2404105
:101FD000C4F20201884265D040F25841C4F20201C5
:101FE0005EE000BFD4E9161202F01F02012303FADB
:101FF00002F24A604045A3DD45F22F41C5F60201D9
:10200000884217DC40F2B741C4F20201884227DC63
:1020100040F27041C4F20201884243D040F288414C
:10202000C4F2020188423DD040F2A041C4F2020154
:1020300036E000BF45F26B41C5F6020188421FDC65
:1020400045F23041C5F6020188422BD045F24441A9
:10205000C5F60201884225D045F258411EE000BF76
:1020600040F2B841C4F2020188421BD045F2084157
:10207000C5F60201884215D045F21C410EE000BFB2
:1020800045F26C41C5F6020188420BD045F29441FD
:10209000C5F60201884205D045F28041C5F602012D
:1020A00088420BD1616EA26EE06E4A6030B1016869
:1020B00021F480710160D4E91C014160012084F8A1
:1020C00035000020002184F83410BDE8F0810000C4
:1020D000F0B190F83510022918D180B540F20F42C6
:1020E0000168C4F20202914214DC6F23C4F20203BD
:1020F000994225DC3F23C4F2020399423CDC1023C1
:10210000C4F2020399425DD0282357E08021416543
:102110000120704740F26F43C4F2020399421BDC76
:1021200040F23F43C4F2020399422DDC40F21043D7
:10213000C4F20203994245D040F228433EE000BF7A
:102140009F23C4F20203994228DC7023C4F20203E5
:10215000994237D0882331E040F29F43C4F2020312
:10216000994223DC40F27043C4F20203994229D021
:1021700040F2884322E000BF4023C4F202039942A8
:1021800020D058231AE000BF40F24043C4F20203BB
:10219000994217D040F2584310E000BFA023C4F288
:1021A000020399420ED0B82308E000BF40F2B843C2
:1021B000C4F20203994205D040F2A043C4F20203E4
:1021C000994277D191424FF0040280F8352011DC1A
:1021D0006F20C4F20200814222DC3F20C4F20200E0
:1021E000814239DC1020C4F20200814259D02820FB
:1021F00054E000BF40F26F40C4F2020081421BDC99
:1022000040F23F40C4F2020081422DDC40F2104017
:10221000C4F20200814244D040F228403EE000BFB8
:102220009F20C4F20200814228DC7020C4F2020028
:10223000814236D0882031E040F29F40C4F2020053
:10224000814223DC40F27040C4F20200814228D077
:1022500040F2884022E000BF4020C4F202008142E8
:102260001FD058201AE000BF40F24040C4F20200E4
:10227000814216D040F2584010E000BFA020C4F2C6
:10228000020081420DD0B82008E000BF40F2B84003
:10229000C4F20200814204D040F2A040C4F2020025
:1022A0008142086820F0010008600021BDE88040FC
:1022B000084670470A6822F00E020A6045F257424B
:1022C000C5F6020291420A6822F001020A600FDCA0
:1022D00045F22F42C5F60202914219DC45F208424E
:1022E000C5F60202914229D045F21C4222E000BF0D
:1022F00045F27F42C5F60202914213DC45F2584294
:10230000C5F60202914219D045F26C4212E000BFBC
:1023100045F23042C5F6020291420FD045F24442E6
:1023200008E000BF45F29442C5F60202914205D092
:1023300045F28042C5F6020291421AD1D0E9181C3A
:10234000D0E916E30A6822F480720A6003F01F01E4
:10235000012202FA01F1CEF80410816ECCF80410CB
:10236000C16E31B10A6822F480720A60D0E91C1291
:102370004A60012180F83510026D0021002A80F8A2
:10238000341093D0904790E72DE9F04782B00021B8
:10239000019140F20C010446C2F2004148F2B5122C
:1023A000C1F64E32A56D096840F26F490068C4F26B
:1023B0000209A1FB021848452E68296816DC9F21F6
:1023C000C4F2020188422DDC5721C4F20201884286
:1023D00052DC1021C4F2020188427CD02821C4F2D0
:1023E0000201884277D0402170E000BF45F22F42C1
:1023F000C5F60202904229DC40F2B742C4F2020262
:10240000904245DC40F27041C4F20201884262D041
:1024100040F28841C4F2020188425CD040F2A041FF
:1024200054E000BF40F22741C4F2020188423FDC81
:10243000A021C4F2020188424DD0B821C4F20201A9
:10244000884248D040F2104140E000BF45F26B4264
:10245000C5F60202904275DC45F23042C5F6020232
:10246000904200F0828045F24442C5F6020290425A
:102470007BD045F2584273E05821C4F202018842F1
:1024800029D07021C4F20201884224D088211DE0A5
:1024900040F2B842C4F2020290421CD045F2084217
:1024A000C5F60202904260D045F21C4258E000BFDF
:1024B00040F22841C4F2020188420CD040F240416F
:1024C000C4F20201884206D040F25841C4F202012F
:1024D000884240F05183E16D082201F01F0140F273
:1024E0000F4A8A40C4F2020A324200F0DE805045B0
:1024F0004FF0040312DC6F27C4F20207B8426DDC10
:102500003F27C4F20207B84200F39C801027C4F2B0
:102510000207B84200F0BD802827B5E0484569DCD5
:1025200040F23F47C4F20207B84200F3938040F202
:102530001047C4F20207B84200F0AB8040F22847CF
:10254000A2E000BF45F26C42C5F6020290420CD0F8
:1025500045F28042C5F60202904206D045F294420E
:10256000C5F60202904240F007830268E36D03F073
:102570001F0304279F400F4218BF12F0040623D107
:1025800002279F400F4218BF12F0020642D1D940E5
:10259000090740F1F18212F0080100F0ED820168B4
:1025A00021F00E010160012000FA03F1696060650D
:1025B00084F83500E16C00294FF0000084F8340005
:1025C00040F0D582D8E200BF11046F6034D4910688
:1025D00036D4016821F00401016031E09F27C4F284
:1025E0000207B84240DC7027C4F20207B84250D05C
:1025F000882749E040F29F47C4F20207B8423BDC1B
:1026000040F27047C4F20207B84242D040F2884715
:102610003AE000BF11046F6000F1B282910600F150
:10262000B382016821F00A010160012084F83500BD
:10263000002084F83400A7E2D00301D4A16C95E215
:10264000216C93E24027C4F20207B84221D05827F8
:102650001AE000BF40F24047C4F20207B84218D067
:1026600040F2584710E000BFA027C4F20207B8426A
:102670000FD0B82708E000BF40F2A047C4F202071D
:10268000B84206D040F2B847C4F20207B84218BFB9
:10269000082307681F4208D0036823F0040303607F
:1026A000AA60626D42F00102626501228A403242F4
:1026B0006FD0504510DC6F23C4F2020398421DDC3A
:1026C0003F23C4F20203984234DC1023C4F2020315
:1026D000984256D028234FE048451BDC40F23F4348
:1026E000C4F2020398422DDC40F21043C4F202030C
:1026F000984246D040F228433EE000BF9F23C4F2F8
:102700000203984228DC7023C4F20203984238D0B6
:10271000882331E040F29F43C4F20203984223DC55
:1027200040F27043C4F2020398422AD040F2884338
:1027300022E000BF4023C4F20203984221D0582374
:102740001AE000BF40F24043C4F20203984218D09E
:1027500040F2584310E000BFA023C4F202039842A5
:102760000FD0B82308E000BF40F2A043C4F2020338
:10277000984206D040F2B843C4F20203984240F0B7
:10278000058243691B0604D5AA60626D42F002020D
:10279000626504228A4032426FD0504510DC6F23BC
:1027A000C4F2020398421DDC3F23C4F202039842A4
:1027B00034DC1023C4F20203984256D028234FE0A1
:1027C00048451BDC40F23F43C4F2020398422DDC33
:1027D00040F21043C4F20203984246D040F228432C
:1027E0003EE000BF9F23C4F20203984228DC70231E
:1027F000C4F20203984238D0882331E040F29F436C
:10280000C4F20203984223DC40F27043C4F2020394
:1028100098422AD040F2884322E000BF4023C4F20D
:102820000203984221D058231AE000BF40F24043EF
:10283000C4F20203984218D040F2584310E000BF9F
:10284000A023C4F2020398420FD0B82308E000BFCF
:1028500040F2A043C4F20203984206D040F2B843CB
:10286000C4F20203984240F0998103689B0704D5A3
:10287000AA60626D42F004026265102202FA01F160
:10288000314200F0818050454FF0080210DC6F2388
:10289000C4F2020398421DDC3F23C4F202039842B3
:1028A00034DC1023C4F20203984256D028234FE0B0
:1028B00048451BDC40F23F43C4F2020398422DDC42
:1028C00040F21043C4F20203984246D040F228433B
:1028D0003EE000BF9F23C4F20203984228DC70232D
:1028E000C4F20203984238D0882331E040F29F437B
:1028F000C4F20203984223DC40F27043C4F20203A4
:1029000098422AD040F2884322E000BF4023C4F21C
:102910000203984221D058231AE000BF40F24043FE
:10292000C4F20203984218D040F2584310E000BFAE
:10293000A023C4F2020398420FD0B82308E000BFDE
:1029400040F2A043C4F20203984206D040F2B843DA
:10295000C4F20203984218BF04220368134213D042
:10296000A96001684903016808D4C90508D4016851
:1029700021F008010160216C21B905E008034FD462
:10298000216C09B120468847E06D00F01F0120202E
:1029900000FA01F2324200F0AD8020681023504569
:1029A00010DC6F27C4F20207B8421DDC3F27C4F2D7
:1029B0000207B84238DC1027C4F20207B8425AD0E6
:1029C000282753E048451BDC40F23F47C4F202078A
:1029D000B84231DC40F21047C4F20207B8424AD094
:1029E00040F2284742E000BF9F27C4F20207B842E6
:1029F0002CDC7027C4F20207B8423CD0882735E0AF
:102A000040F29F47C4F20207B84227DC40F2704709
:102A1000C4F20207B8422ED040F2884726E000BF39
:102A2000A16C0029AED1AFE74027C4F20207B8423B
:102A300021D058271AE000BF40F24047C4F20207F5
:102A4000B84218D040F2584710E000BFA027C4F2A7
:102A50000207B8420FD0B82708E000BF40F2A047F5
:102A6000C4F20207B84206D040F2B847C4F20207E7
:102A7000B84218BF022307681F423BD0AA6094F8EF
:102A80003520042A02681DD122F016020260426934
:102A900022F080024261226C0AB9A26C1AB102686B
:102AA00022F0080202603F208840A860012084F8DC
:102AB0003500216D00294FF0000084F8340056D114
:102AC0005AE000BF510301680CD4C9050ED4016857
:102AD00021F010010160012084F83500002084F805
:102AE000340003E0080301D4616C00E0E16B09B13C
:102AF00020468847606D00283ED0606DC00734D006
:102B0000042084F8350020684FEA9821026822F0FA
:102B100001020260019A013201928A421AD80268C7
:102B2000D20717D0019A013201928A4212D8026864
:102B3000D2070FD0019A013201928A420AD8026864
:102B4000D20707D0019A013201928A4202D8026864
:102B5000D207DFD10068C0074FF0030008BF012093
:102B600084F83500002084F83400E16C21B120465F
:102B700002B0BDE8F047084702B0BDE8F08700BFEB
:102B8000D00301D4616CF1E7E16BEFE70268042246
:102B90008A4032427FF401AE6FE600BF02686CE605
:102BA0002DE9F04381B0044601F07AFD002C00F0DD
:102BB000AF8040F26F4805462068C4F202084045E5
:102BC00016DC9F21C4F2020188422DDC5721C4F299
:102BD0000201884254DC1021C4F20201884200F054
:102BE0007E802821C4F20201884278D0402171E021
:102BF00045F22F41C5F60201884229DC40F2B74177
:102C0000C4F20201884247DC40F27041C4F2020182
:102C1000884264D040F28841C4F2020188425ED00A
:102C200040F2A04156E000BF40F22741C4F2020149
:102C3000884241DCA021C4F2020188424FD0B82171
:102C4000C4F2020188424AD040F2104142E000BF83
:102C500045F26B41C5F60201884200F3BB8045F2A4
:102C60003041C5F60201884200F0C78045F2444178
:102C7000C5F60201884200F0C08045F25841B7E035
:102C80005821C4F20201884229D07021C4F2020105
:102C9000884224D088211DE040F2B841C4F20201EC
:102CA00088421CD045F20841C5F60201884200F076
:102CB000A48045F21C419BE040F22841C4F202018D
:102CC00088420CD040F24041C4F20201884206D052
:102CD00040F25841C4F20201884240F023810221AF
:102CE00084F83510002184F83410016821F00101C6
:102CF000016000BF20680168C9070DD001F0D0FC59
:102D0000401B0628F6D320206065032084F8350098
:102D1000012001B0BDE8F08348F23F0204F108064B
:102D20000168CFF610621140D4F818C06CCE114380
:102D30001943E3692943256A0E43616A3343042931
:102D400043EA050343EA0C0303D1D4E90B652E43A0
:102D50003343666843F48012A6F13F07A6F12905C4
:102D6000042FA6F1470938BF1346062DA6F14F0ED2
:102D700038BF1346B9F1020F26F0030738BF1346D8
:102D8000BEF1040F38BF1346742F08BF1346042941
:102D90000360426922F0070241EA020140F0DE804E
:102DA000D4E90A53002B41EA050100F0D780BCF5B5
:102DB000005F00F0B980BCF1000F40F0C180022D2F
:102DC00000F0C180012D00F0B580002D00F0BB8027
:102DD000C4E000BF45F26C41C5F6020188420CD048
:102DE00045F28041C5F60201884206D045F2944181
:102DF000C5F60201884240F0958004F1080E0221D8
:102E000084F83510002184F834100168A3699EE825
:102E10000450A2F18005E769B5FA85F566696D0988
:102E2000402A4FEA853543EA07026FF3101142EA60
:102E3000060208BF102541EADC0142EA0E02236ABD
:102E4000294341EAD20141EA131140F80819C0B2FE
:102E5000CD2148433C2101EA9020E0652046FEF761
:102E60002BF8E16D012201F01F0102FA01F141602E
:102E70002068404500F381809F21C4F2020188420E
:102E800014DC5721C4F20201884227DC1021C4F26D
:102E90000201884200F0C7802821C4F20201884262
:102EA00000F0C1804021C4F20201B9E040F22741A4
:102EB000C4F20201884221DCA021C4F2020188424E
:102EC00000F0B180B821C4F20201884200F0AB806A
:102ED00040F21041C4F20201A2E000BF5821C4F246
:102EE0000201884200F09F807021C4F202018842F2
:102EF00000F099808821C4F2020191E040F228415B
:102F0000C4F20201884200F08E8040F24041C4F2D7
:102F10000201884200F0878040F25841C4F2020169
:102F20007EE000BF4020EFE6032D17D8DFE805F074
:102F30000E0B0E02A3F1C072B2FA82F2520904E043
:102F4000032D03D30AD1C3F300623AB14020606578
:102F5000012084F8350001B0BDE8F08341612046CE
:102F6000FDF7AAFFE16D3F2201F01F0102FA01F116
:102F70008160206840457FF77FAF45F22F41C5F65D
:102F80000201884216DC40F2B741C4F202018842D5
:102F900026DC40F27041C4F20201884243D040F284
:102FA0008841C4F2020188423DD040F2A041C4F2FF
:102FB000020135E045F26B41C5F6020188421FDC93
:102FC00045F23041C5F6020188422CD045F2444119
:102FD000C5F60201884226D045F258411EE000BFE6
:102FE00040F2B841C4F2020188421CD045F20841C7
:102FF000C5F60201884216D045F21C410EE000BF22
:1030000045F26C41C5F6020188420CD045F294416C
:10301000C5F60201884206D045F28041C5F602019C
:10302000884240F0E18045F2574C45F6FC01C5F678
:10303000020CC5F6020160450EDC45F22F42C5F6D2
:103040000202904218DC45F20842C5F602029042A4
:1030500028D045F21C4221E045F27F42C5F602022B
:10306000904213DC45F25842C5F60202904219D054
:1030700045F26C4212E000BF45F23042C5F6020252
:1030800090420FD045F2444208E000BF45F294421E
:10309000C5F60202904205D045F28042C5F6020212
:1030A000904247D100F0FC024CF6CD43083ACCF6F2
:1030B000CC43A2FB0323A1F1FC05A1F17C061B0973
:1030C00005EB830503F01F02A3682566802B4FF0F4
:1030D000010303FA02F26666A26605D10020606071
:1030E000286072601EE000BF6768FBB2013F072FD7
:1030F0002B60726016D85E1E082E19D2604501F151
:10310000440237DC45F22F47C5F60207B84241DCDE
:1031100045F20847C5F60207B84259D045F21C47A8
:103120004AE000BF00206067C4E91B005CE000BF0C
:10313000E06E54E000F0F8024AF6AB23103ACAF60B
:10314000AA23A2FB032740F20F43C4F2020308257F
:103150003A09984203F1AA06134688BF05EB1713F4
:1031600040F60005B042C4F2020505F1800628BF12
:103170001346A5E745F27F47C5F60207B84213DCC0
:1031800045F25847C5F60207B84221D045F26C47D0
:1031900012E000BF45F23047C5F60207B84217D02B
:1031A00045F2444708E000BF45F28047C5F60207F4
:1031B000B8420DD045F29447C5F60207B84207D091
:1031C00040F60000C4F2020000F1FC0100F5A0721C
:1031D00001EB83000121E066B140226761670021B5
:1031E0000160D4E91C01416000206065012184F880
:1031F000351001B0BDE8F08340B110B5044690F839
:103200003400012804D1022010BD00BF0120704706
:10321000012084F8340094F83500012828D10220D8
:1032200084F8350000206065D4F800C0DCF80000A8
:1032300020F00100CCF800002046FDF7D1FE40F25E
:103240000F412068C4F20201884219DC6F21C4F2E8
:10325000020188422ADC3F21C4F20201884241DC9B
:103260001021C4F20201884261D028215CE000BF35
:103270004FF400606065002084F83400012010BD28
:1032800040F26F41C4F2020188421BDC40F23F4130
:10329000C4F2020188422DDC40F21041C4F2020166
:1032A000884244D040F228413EE000BF9F21C4F252
:1032B0000201884228DC7021C4F20201884236D023
:1032C000882131E040F29F41C4F20201884223DCB0
:1032D00040F27041C4F20201884228D040F2884195
:1032E00022E000BF4021C4F2020188421FD05821D1
:1032F0001AE000BF40F24041C4F20201884216D0F9
:1033000040F2584110E000BFA021C4F202018842FF
:103310000DD0B82108E000BF40F2B841C4F202016C
:10332000884204D040F2A041C4F202018842016800
:1033300041F001010160002010BD0000000000000C
:1033400040B1B0B5054690F83400012804D1022000
:10335000B0BD00BF01207047012085F8340095F80A
:103360003500012828D1022085F835000020686545
:103370002868046824F0010404602846FDF730FE44
:1033800040F20F422868C4F2020240F26F419042BC
:10339000C4F2020118DC6F23C4F20203984225DC58
:1033A0003F23C4F2020398423CDC1023C4F2020320
:1033B00098425ED0282357E04FF4006068650020F3
:1033C00085F834000120B0BD88421BDC40F23F4349
:1033D000C4F2020398422DDC40F21043C4F202030F
:1033E000984246D040F228433EE000BF9F23C4F2FB
:1033F0000203984228DC7023C4F20203984238D0BA
:10340000882331E040F29F43C4F20203984223DC58
:1034100040F27043C4F2020398422AD040F288433B
:1034200022E000BF4023C4F20203984221D0582377
:103430001AE000BF40F24043C4F20203984218D0A1
:1034400040F2584310E000BFA023C4F202039842A8
:103450000FD0B82308E000BF40F2B843C4F2020323
:10346000984206D040F2A043C4F20203984240F0D2
:103470002F8103680B2464F3440303602B6C1BB19E
:103480000823046823430360884219DC9F23C4F2A5
:103490000203984232DC5723C4F20203984259DCFB
:1034A0001023C4F20203984200F096802823C4F24D
:1034B0000203984200F090804023C4F2020389E0A6
:1034C00045F22F43C5F6020398422DDC40F2B74384
:1034D000C4F2020398424BDC40F27043C4F2020390
:1034E000984279D040F28843C4F20203984273D0E4
:1034F00040F2A043C4F202036CE000BF40F2274355
:10350000C4F20203984243DCA023C4F202039842AF
:1035100062D0B823C4F2020398425DD040F2104357
:10352000C4F2020356E000BF45F26B43C5F6020346
:1035300098423FDC45F23043C5F6020398424BD037
:1035400045F24443C5F60203984245D045F258433C
:103550003EE000BF5823C4F2020398423CD07023DF
:10356000C4F20203984237D08823C4F2020331E048
:1035700040F2B843C4F2020398422DD045F208430A
:10358000C5F60203984227D045F21C4320E000BF55
:1035900040F22843C4F2020398421DD040F2404357
:1035A000C4F20203984217D040F25843C4F2020317
:1035B00010E000BF45F26C43C5F6020398420BD001
:1035C00045F29443C5F60203984205D045F2804384
:1035D000C5F60203984274D12B6E1C68E40303D530
:1035E0001C6844F480741C60EB6E1BB11D6845F4CC
:1035F00080751D60904211DC6F21C4F20201884287
:103600001EDC3F21C4F20201884235DC1021C4F2E5
:103610000201884255D0282150E000BF88421BDCBF
:1036200040F23F41C4F2020188422DDC40F21041D9
:10363000C4F20201884244D040F228413EE000BF7B
:103640009F21C4F20201884228DC7021C4F20201E9
:10365000884236D0882131E040F29F41C4F2020115
:10366000884223DC40F27041C4F20201884228D033
:1036700040F2884122E000BF4021C4F202018842AA
:103680001FD058211AE000BF40F24041C4F20201AD
:10369000884216D040F2584110E000BFA021C4F289
:1036A000020188420DD0B82108E000BF40F2B841C5
:1036B000C4F20201884204D040F2A041C4F20201E7
:1036C0008842016841F0010101600020B0BD00BFE7
:1036D0000368052464F3430303602B6C002B3FF461
:1036E000D3AE0423CDE6000090F89830013B012BC7
:1036F0000ED80068836D0B4212D0836D0B408B4255
:1037000016D1C36D43F00203C3658B0514D418E0D2
:1037100000F19C01012002220B681A430A607047E5
:10372000C36D43F00103C3658B0505D409E000BFF9
:103730000323C3658B0504D5D0F8E0301343C0F8EC
:10374000E0304B0504D5D0F8E4301A43C0F8E4204B
:103750004FF6FF72436DC3F6CF720A401A434265BB
:103760008A0F4AF614010020C4F200010B681A43C4
:103770000A6070470000000090F89830022B1BD1BF
:103780002DE9F0430668D6F8C03013F07C5F1BD0FB
:10379000D6F8C4309B0221D4D6F8C4300C69C3F3E8
:1037A000044CD1E90035002D8D6821D023432B43F3
:1037B00043F0804E20E000BFD0F89C1041F008019B
:1037C000C0F89C1001207047D0F89C1041F02001F7
:1037D000C0F89C100120BDE8F08300BFD0F89C1019
:1037E00041F40071C0F89C100120BDE8F08300BFD7
:1037F00044EA834343EA050E836ED0F88450D1E94E
:1038000007970CFB03F48B6949EA0767D1F814802A
:10381000D1F80C901F4305EB840347EA080745F8ED
:1038200024E047EA09475F60CF6887B14FF2186527
:10383000083303320024C0F6000500BF171957F8FB
:10384000037C1F51CF680434EF5DBC42F6D30121E5
:1038500001FA0CF1C6F8D010C0F894100020BDE8B1
:10386000F08300000000000070470000000000002E
:1038700090F89830012B0DD1012913D0F1B90068CF
:10388000D0F8F01021F07C5141EA0261C0F8F0104C
:1038900000207047D0F89C1041F00401C0F89C1043
:1038A000012070470068D0F8A01021F0FE4141EAE5
:1038B0000261C0F8A0100020704700BF0068D0F877
:1038C000B01021F0FE4141EA0261C0F8B0100020C2
:1038D000704700000000000090F89820013A012A8B
:1038E0000CD880B50A68002ACA680FD00B69072A6D
:1038F00043EA427E18D18B691BE000BFD0F89C10D0
:1039000041F00201C0F89C1001207047072A19D12C
:103910000A69D1E906C3120442EA032242EA0C0210
:1039200042F0605218E000BFD1F808C04B6943EA8A
:103930008C73006F496800EBC10240F831E05360BE
:10394000002080BD8B68D1E904CE9B0743EAC262A8
:1039500042EA0C4242EA0E024968C06E40F8212059
:10396000002080BD0000000090F898C0BCF1010F5D
:103970000ED19200006842EA0111DDF800C041EA70
:10398000430141EA0C01C0F880100020704700BFDD
:10399000D0F89C1041F00401C0F89C100120704741
:1039A00070470000000000007047000000000000A9
:1039B0002DE9F04390F89870022F11D1402919D1C8
:1039C0000668D6F8A07017F4FE0F2FD0D6F8A470B2
:1039D0007F0635D0D6F8A470FF013BD400273CE029
:1039E000D0F89C1041F00801C0F89C100120BDE8FF
:1039F000F08300BF41290FD10668D6F8B07017F4E4
:103A0000FE0F13D0D6F8B4707F0619D0D6F8B47074
:103A1000FF012BD400272CE0076D8F4206D900F15F
:103A20007C04456D4FF0000C0E462BE0D0F89C1046
:103A300041F02001C0F89C100120BDE8F08300BFD8
:103A4000D0F89C1041F48071C0F89C100120BDE8B2
:103A5000F08300BFD6F8A070FF0FD6F8A46000F185
:103A60007404C6F30526F519466C0AE0D6F8B07062
:103A7000FF0FD6F8B46000F17804C6F30526F519F7
:103A8000C66CAC467543246804EB850E54F825706B
:103A900017F08047576054F8257027F0604608BF3C
:103AA000C7F38A46166054F8257007F000579760F0
:103AB00054F8254004F000441461BEF80440D46179
:103AC000BEF8064014F00F04D460DEF8044004F49D
:103AD00080145461DEF8044004F4001494619EF8EC
:103AE000074004F07F041462DEF804404FEAD47407
:103AF000546228D04FF218680024C0F600080EEB7C
:103B00000406651C377A1F55D76818F80770BD4240
:103B100019D21F19757A7D70D56818F80590A51C03
:103B20004D453FBFB57ABD70D56818F805903CBFCC
:103B3000E51C4D4507D2F57A0434FD70D56818F8B8
:103B40000550AC42DBD3402906D10068C0F8A8C0BC
:103B50000020BDE8F08300BF412905D10068C0F80E
:103B6000B8C00020BDE8F0831F2909D800680122F1
:103B700002FA01F1C0F898100020BDE8F08300BF00
:103B8000006801F01F01012202FA01F1C0F89C1047
:103B90000020BDE8F0830000704700000000000036
:103BA0002DE9F04F89B004464AF61000C4F2000037
:103BB00001684AF61400C4F200000268206802EAB4
:103BC0000108056DD0F85490036D0893436D079379
:103BD000036D0293436D0193076D436D0593036D70
:103BE0000493436D0393D0F854A0D0F850B05FEA2B
:103BF000CA5306970FD51BF480710CD04FF4807117
:103C000001654AF610010020C4F200010860204658
:103C1000FFF7C2FF20685FEA4A5105EA09064FEA4A
:103C2000887717D54AF610091BF48061C4F20009A1
:103C300014D0D0F8DC10D0F8E42011404FF48062AA
:103C400002650020C9F80000204600F03DFC206815
:103C500004E000BF4AF61009C4F20009DDE90721BB
:103C600001EA020506F4704657B10021016508F02B
:103C70000300C9F8000020463946FFF7F5FD20682B
:103C8000DDE90121DDF80C8001EA020705F00F05EE
:103C900046B106650020C9F800002046314600F014
:103CA0001BFC206807F0F00645B105650020C9F847
:103CB00000002046294600F0B3FB2068DDE90457E8
:103CC00046B106650020C9F800002046314600F0E4
:103CD000C3FB2068069E5FEA0A510CD51BF4006105
:103CE00009D04FF4006101650020C9F800002046AA
:103CF00000F0F6FB20685FEA8A5111D51BF40071D1
:103D00000ED0D0F8D810D0F8E02011404FF4007257
:103D100002650020C9F80000204600F0D9FB2068A9
:103D20005FEA0A310CD51BF4002109D04FF40021C1
:103D300001650020C9F80000204600F06DFB2068F6
:103D40005FEACA310CD51BF4803109D04FF48031C1
:103D500001650020C9F80000204600F0B1FB206892
:103D60005FEA4A3105EA08050CD51BF4802109D029
:103D70004FF4802101650020C9F80000204600F0C2
:103D80009BFB20685FEA8A3106EA070205F0607152
:103D90000ED51BF400330BD04FF400330365002322
:103DA000C9F80030D4F89C3043F08003C4F89C304C
:103DB00002F0715539B101650020C9F800002046B4
:103DC000FFF7F2FD206845B105650021C9F8001034
:103DD000D4F89C102943C4F89C10A9F501618842CD
:103DE0000AD0D4F89C00002868D0204609B0BDE86D
:103DF000F04FFFF7D5BD00BF606881688907F0D03C
:103E0000016A426A036A476A114003EA070202F044
:103E10003005D0F82080D0F82490D0F820B0D0F829
:103E200024A0026A089211F00F01426A0792466AC2
:103E3000026A069203D00162204600F031FB08EAD4
:103E400009072DB1606829460562204600F030FB65
:103E500070060BEA0A0607F4C0750ED5069810F036
:103E600040000AD060684023C16BC26B090C02F0AD
:103E70003F020362204600F017FBDDE9071000EA6D
:103E8000010706F4FC462DB160682946056220460C
:103E900000F002FB07F4F02036B161680E62D4F83E
:103EA0009C103143C4F89C1000289AD061680862C5
:103EB000D4F89C100843C4F89C0092E709B0BDE810
:103EC000F08F000000000000F0B12DE9F04F83B04A
:103ED0004AF200080446C4F200080068404533D0A6
:103EE00094F89810B9B3816921F01001816100F054
:103EF000D7FB054620688169090707D500F0D0FB8C
:103F0000401B0B28F6D312E001207047816941F075
:103F10000101816100F0C4FB054600BF2068816992
:103F2000C90721D100F0BCFB401B0B28F6D30120B0
:103F3000D4F89C100843C4F89C00032084F898002F
:103F4000012003B0BDE8F08F08F58071616094F83E
:103F500098100029C7D1002084F89900204600F06D
:103F6000B3F92068BFE700BF816941F002018161B8
:103F7000217C826922F04002012918BF403282610F
:103F8000617C826922F48042012908BF02F58042E7
:103F90008261A17C826922F48052012918BF02F556
:103FA00080528261816921F44073D4E902120B438B
:103FB0008361836923F0A4038361036923F0100301
:103FC00003619AB1012A0DD0022A09D08369032A1C
:103FD00043F080038361036943F01002026105D15D
:103FE000202200E0042283691A438261D4E9057229
:103FF000E369561E6FF0FF02256A02EB0323B1F559
:10400000407F43EA4663A5F1010646EA030640F213
:104010000003CFF6FF7303EB074746EA0701C161D0
:1040200010D1D4E90B65D4E90917013F02EB062250
:104030006FF00F063A4306EB05173A4303EB0141D5
:104040001143C160236E2BB1616ED0F8C0201143C3
:10405000C0F8C010E16DCDE90113D9424FF2D8414B
:10406000C0F6000109D0D0F8C820A36E22F00702E4
:1040700051F823301A43C0F8C820D4F840A0BAF150
:10408000000F09D0D0F8BC20636C22F0070251F871
:1040900023301A43C0F8BC20D4F848C0BCF1000F4C
:1040A0000AD0D0F8BC20E36C22F0700251F8233023
:1040B00042EA0312C0F8BC20D4F850B0BBF1000FA4
:1040C0000AD0D0F8BC20636D22F4E06251F82310CE
:1040D00042EA0121C0F8BC10404504D161688A68F9
:1040E00022F003028A600021C4F89410C4F89C10E6
:1040F000012184F8981004F13409D0F884104FF6A7
:10410000FC729143656C99E80C02009541EA8201CA
:10411000C0F88410D0F8841021F47F0141EA0341F3
:10412000C0F884109918D0F888306FF38F0343EAF1
:104130008103C0F88830D0F8883023F4FE0343EAC6
:104140000943C0F8883001EB4903D0F8A0606FF351
:104150008F0646EA8306C0F8A060D0F8A06026F477
:10416000FE0646EA0A46C0F8A06005FB0A36D0F80B
:10417000B0306FF38F0343EA8603C0F8B030D0F855
:10418000B03023F4FE0343EA0C43C0F8B030E36CD4
:10419000D0F8AC506FF38F0503FB0C6645EA86053B
:1041A000C0F8AC50D4F8548008FB0B65D0F8F06030
:1041B0006FF38F0646EA8506C0F8F060D0F8F0E0AD
:1041C000A66D2EF47C1747EA0647C0F8F070F7009A
:1041D00007EB8507D0F8C0506FF38F052F43C0F869
:1041E000C070D0F8C070009D27F47C1705FB0AF55D
:1041F000DDF804A003FB0C5347EA0A47C0F8C0707F
:104200004AF20007D0F8C0E0C4F20007DDF808C0A9
:1042100007F5406707EB820207EB81012EF07C5720
:1042200047EA0C67C0F8C07001EBC90008FB0B3708
:104230002167A16E00EB8505606700EB8303E266F2
:10424000C4E91E530AFB01F300EB87000CFB01F1EC
:10425000C4F8800000EBC600C4F8840000EB8300C3
:10426000C4F8880000EB81004DF2FC31C4F200017B
:10427000C4F89000884201D9202059E682421FD21A
:104280001146002041F8040BD4F890309942BFF455
:1042900058AE506002F10801D4F8903099423FBF07
:1042A000906002F10C01D4F890309942BFF449AE0D
:1042B000D0601032D4F890108A42E1D341E600BFBA
:1042C000002003B0BDE8F08FB0B5B6B0044602A838
:1042D000B8210025CDE93455CDE932553195FCF7AB
:1042E0005BF84AF200412068C4F2000188423FD0E6
:1042F0004AF20001C4F20001884240F088800020A8
:1043000003904FF4004002904FF080501D9002A89F
:1043100000F08EFC08B1FDF74FF840F21C3144F27A
:10432000E040C2F20041C5F602000A68002A02F12C
:1043300001020A6008D1C16841F48071C160C1689E
:1043400001F48071019101990168152441F008017F
:1043500001600068132500F008000190019840F208
:104360000040C5F60200032100F5006034E000BF04
:104370004FF4004002904FF080501D9002A803952A
:1043800000F056FC08B1FDF717F840F21C3144F27A
:10439000E040C2F20041C5F602000A68002A02F1BC
:1043A00001020A6008D1C16841F48071C160C1682E
:1043B00001F48071019101990168162441F0020114
:1043C00001600068142500F002000190019840F29D
:1043D00000406021C5F60200319102213291002196
:1043E000CDE933110921359131A900F07DF805217E
:1043F0000022284600F070FA284600F059FA0521FC
:104400000022204600F068FA204600F051FA36B04B
:10441000B0BD000000000000704700000000000078
:10442000C90708BF704740F66031C2F200418842B8
:1044300006D040F60041C2F20041884206D07047E3
:1044400040F66030C2F20040FCF7E2BF40F60040A8
:10445000C2F20040FDF738B87047000000000000CD
:1044600090F8981001290DD1022180F89810016868
:104470008A6922F001028A610021C0F89C10084676
:10448000704700BFD0F89C1041F00401C0F89C10A8
:10449000012070470000000070470000000000008D
:1044A000704700000000000070470000000000009E
:1044B000704700000000000070470000000000008E
:1044C000704700000000000070470000000000007E
:1044D000704700000000000070470000000000006E
:1044E00070470000000000002DE9F04F82B00D6819
:1044F000002D00F0C78000F1264242F2004402F194
:10450000FF728305C5F602040A27A04243EA9222FD
:1045100008BF0927082A40F2040C38BF1746C5F621
:10452000000C4FF0000E0097002700260AE000BFA5
:1045300001360D6835FA06F207F102070EF1040E96
:1045400000F0A080012202FA06FB15EA0B08EFD06A
:10455000D1F804A003220AF0030502FA07F36C1E47
:104560006FEA0309012C0FD88368CC6803EA0903BA
:10457000BC4023438360CAF30014436823EA0B035F
:10458000B4402343436003E0032D01D1032520E021
:10459000C3688C6803EA0903BC40022D43EA0403A4
:1045A000C36016D16FF003020EF01C0502EA560339
:1045B0000F22034402FA05FBD3F820A00C692AEA73
:1045C0000B0AAC4044EA0A041C62D1F804A00AF0C9
:1045D0000305036805FA07F403EA09031AF4403FE8
:1045E00043EA04030360A3D044F2F44240F2084AD1
:1045F000C5F60202C5F6000A136843F00203136011
:1046000013680F2203F00203019326F00303019CB9
:104610000EF00C0453F80A9002FA04F5009A29EA05
:10462000050502FA04F44FF0B0492C4343F80A4060
:10463000D9F800304C6843EA0805E20258BF23EA83
:104640000805C9F80050A502DCF8002042EA08037A
:1046500058BF22EA0803A503CCF80030DCF880201C
:1046600042EA080358BF22EA0803E403CCF880308A
:10467000DCF87C2042EA080358BF22EA0803CCF8A1
:104680007C3055E702B0BDE8F08F0000000000006C
:10469000002A08BF09048161704700000000000083
:1046A00045F24020C2F20040006870470000000060
:1046B00040F2040045F24021C2F20040C2F2004143
:1046C00000780A681044086070470000000000008D
:1046D00080B5032000F030F901F0E6F944F218410A
:1046E0004FF28453C5F60201C0F600030A68C2F314
:1046F00003229A5C096801F00F0102F01F02595C65
:10470000D04040F21002C2F2004201F01F0120FA34
:1047100001F1116040F20C01C2F2004108600F206B
:1047200000F00AF800281CBF012080BD00F0A8F8A6
:10473000002080BD000000000F2847D8B0B58AB027
:104740000446372000222146002500F0C5F8372016
:1047500000F0AEF840F20800C2F20040046044F2FB
:10476000E840C5F60200016841F0200101600068E0
:1047700001A900F020000290029802A801F0E0F8E0
:10478000079C002C18BF012401F02EF94DF683611F
:10479000A040C4F21B3141F20042A0FB010140F6EF
:1047A0000C60C2F200404FF0FF33C4F2000202601E
:1047B00003EB9141C0E9011540F2E731C0E903156F
:1047C00002F0D6F920B101200AB0B0BD0120704737
:1047D00040F60C60C2F2004002F01EFA0AB0B0BD12
:1047E00010B54EF6A05E4178CEF2000E90F800C0F3
:1047F0004EF8081CDEF8001021F00101CEF8001080
:1048000041684EF8041C017BC37A827A447B1B0604
:1048100043EA0171837B41EAC241C27B41EA8441A0
:10482000447A41EA4341007A41EA024141EA0421E3
:1048300041EA400040EA0C00CEF8000010BD000044
:104840004EF62450CEF20000BFF35F8F016821F4D2
:104850008031016000210167704700000000000006
:104860004EF6245140F00100CEF2000108670868BE
:1048700040F480300860BFF34F8FBFF36F8F7047F5
:1048800081B044F2F4400022C5F60200016841F014
:104890000201016000680F2100F0020000906FF03B
:1048A0000100009B01B000F017B8000000000000FC
:1048B000002848BF704700F01F01012202FA01F1F1
:1048C0004EF20012C0F34A10CEF2000242F820105D
:1048D000704700000000000070B54EF60C5C4FF011
:1048E000FF36CEF2000C00F1604505F56445DCF8BA
:1048F0000030C3F3022E8EF00703042B28BF0423DD
:10490000BEF1030406FA03F321EA030100F00F03EA
:1049100038BF0024043B0028634406FA04F048BF73
:1049200003F10C05A14022EA0000084300012870B1
:1049300070BD0000000000004EF60C514FF6FF0362
:10494000CEF200010A681A4060F30A2242F0806049
:1049500040F0FD7008607047B0B544F60C05C5F630
:10496000020529684907296806D401F00701081AD9
:1049700018BF0120B0BD00BF21F007010843286027
:10498000FFF78EFE044600BF55F8080C800407D4DC
:10499000FFF786FE001BB0F57A7FF5D90120B0BD88
:1049A0000020B0BD0000000080B500F0F5FF44F22B
:1049B00020414FF28452C5F60201C0F60002096898
:1049C000C1F30211515C01F01F01C84080BD00001D
:1049D00080B544F2384EC5F6020E5EF8103C5EF823
:1049E000101C5EF80C2CC1F3053CDEF80410BCF181
:1049F000000F15D0C908D20601EAE2716FF35F31EA
:104A000000EE101A03F003010229B8EE400A0DD09F
:104A100081B95EF8381C890610D49FED361A1BE068
:104A200000218160C0E9001180BD00BF9FED301AF8
:104A300012E000BF9FED2D1A0EE000BF5EF8381C9B
:104A400049F20002C0F2D032C1F3C10122FA01F1F1
:104A500001EE101AB8EE411ADEF800109FED263A6A
:104A60006FF35F2102EE101ADEF80010C1F3462149
:104A7000B8EE422A00EE032A00EE10CAB7EE003A62
:104A8000B8EE400A81EE000A32EE031A02EE101A66
:104A9000B8EE422A20EE010A32EE031A80EE011A25
:104AA000BCEEC11A80ED001ADEF80010C1F3064119
:104AB00001EE101AB8EE411A31EE031A80EE011A17
:104AC000BCEEC11A80ED011ADEF80010C1F30661D8
:104AD00001EE101AB8EE411A31EE031A80EE010A07
:104AE000BCEEC00A10EE101A816080BD0024744A2A
:104AF000001BB74B0024744C00000039000000007C
:104B000080B544F2404EC5F6020E5EF8183C5EF8E1
:104B1000181C5EF8142CC1F3055CDEF80410BCF11F
:104B2000000F15D0C908D20501EAE2716FF35F31B9
:104B300000EE101A03F003010229B8EE400A0DD06E
:104B400081B95EF8401C890610D49FED361A1BE02F
:104B500000218160C0E9001180BD00BF9FED301AC7
:104B600012E000BF9FED2D1A0EE000BF5EF8401C62
:104B700049F20002C0F2D032C1F3C10122FA01F1C0
:104B800001EE101AB8EE411ADEF800109FED263A39
:104B90006FF35F2102EE101ADEF80010C1F3462118
:104BA000B8EE422A00EE032A00EE10CAB7EE003A31
:104BB000B8EE400A81EE000A32EE031A02EE101A35
:104BC000B8EE422A20EE010A32EE031A80EE011AF4
:104BD000BCEEC11A80ED001ADEF80010C1F30641E8
:104BE00001EE101AB8EE411A31EE031A80EE011AE6
:104BF000BCEEC11A80ED011ADEF80010C1F30661A7
:104C000001EE101AB8EE411A31EE031A80EE010AD5
:104C1000BCEEC00A10EE101A816080BD0024744AF8
:104C2000001BB74B0024744C00000039000000004A
:104C30002DE9F0470446C07844F22C480007C5F639
:104C4000020833D5606E4FEA305103290CD8DFE8F3
:104C500001F003111D2600BFD8F8001041F4003107
:104C6000C8F800101BE000BF01266078C0070BD019
:104C700020E000BF04F10800022104F005FF064611
:104C800060B16078C00715D1354646E004F12800D0
:104C9000022104F08DFF06460028F2D1606ED8F89C
:104CA000241021F440110843C8F82400002660783D
:104CB000C007E9D0A06D04280ED83546DFE800F023
:104CC0000412181E1E0000BFD8F80000354640F43C
:104CD0000030C8F8000011E0012501276078400786
:104CE0001FD453E004F10800002104F0CDFE04E0DD
:104CF00004F12800002104F05BFF05462F461DB19A
:104D0000607840070DD441E0D8F82400A16D20F070
:104D1000070000250843C8F824003746607840079C
:104D200034D5D4F8A4004FEA705005280CD8DFE839
:104D300000F00311171D1D1DD8F8000040F40030CD
:104D4000C8F8000012E000BF0125012660780007C6
:104D500020D455E004F10800002104F095FE04E0A1
:104D600004F12800002104F023FF05462E461DB162
:104D7000607800070ED443E0D8F82C00D4F8A410D3
:104D800020F4600000250843C8F82C003E466078F7
:104D9000000735D5D4F8A8004FEA306005280DD8B3
:104DA000DFE800F00412181E1E1E00BFD8F8000035
:104DB00040F40030C8F8000012E000BF01250127D0
:104DC000E078800720D44EE004F10800002104F0D0
:104DD0005BFE04E004F12800002104F0E9FE054632
:104DE0002F461DB1E07880070ED43CE0D8F82C00A7
:104DF000D4F8A81020F0E06000250843C8F82C0083
:104E00003746E07880072ED5E06C4FEA3010032853
:104E10000ED8DFE800F00903130900BFD8F800003E
:104E200040F40030C8F800002E467DB912E000BF03
:104E3000012501266078C00619D44CE004F1080071
:104E4000022104F021FE05462E461DB16078C00601
:104E50000DD440E0D8F82000E16C20F030000025AF
:104E60000843C8F820003E466078C00633D5E06DA0
:104E70004FEA303004280DD8DFE800F00412181E85
:104E80001E0000BFD8F8000040F40030C8F8000051
:104E900012E000BF01250127607880061FD44EE094
:104EA00004F10800002104F0EFFD04E004F1280003
:104EB000002104F07DFE05462F461DB16078800676
:104EC0000DD43CE0D8F82400E16D20F4E04000254A
:104ED0000843C8F824003746607880062FD5206E36
:104EE0004FEA3040052809D8DFE800F0040E14042A
:104EF000040400BF2E46ADB918E000BF012501260D
:104F0000607840061FD44FE004F10800012104F04E
:104F1000BBFD04E004F12800012104F049FE054630
:104F20002E461DB1607840060DD43DE0D8F824002F
:104F3000216E20F4E02000250843C8F824003E46F6
:104F40006078400630D5D4F8AC004FEA30700528C0
:104F500008D8DFE800F0030D130303032F46ADB9B3
:104F600018E000BF012501276078000620D442E048
:104F700004F10800012104F087FD04E004F1280099
:104F8000012104F015FE05462F461DB1607800068C
:104F90000ED430E0D8F82C00D4F8AC1020F0E0406B
:104FA00000250843C8F82C0037466078000622D553
:104FB000E06E58B1B0F1005F0CD0B0F1805F2FD13E
:104FC000D8F8000040F40030C8F800002E469DB923
:104FD00008E000BF04F10800012104F055FD05467A
:104FE0002E464DB9D8F82400E16E20F0405000253F
:104FF0000843C8F824003E46E078C00733D0A06CD0
:10500000032813D8DFE800F008021A08D8F80000D7
:1050100040F40030C8F80000A946BDB91AE000BF4E
:1050200001250126E078C007E9D11CE001254FF0F9
:105030000109A07840061AD51CE000BF04F1080061
:10504000022104F021FD0546A9461DB1A0784006C5
:105050000DD50FE0D8F82000A16C20F0030000254A
:105060000843C8F82000B146A078400602D44F4655
:1050700018E000BFD8F8D40340F48070C8F8D40317
:10508000FFF70EFB064600BFD8F8D403C00507D4CF
:10509000FFF706FB801B6428F6D90325032701E0F0
:1050A0002F468DB12078C00761D0A06F4FEAF00085
:1050B00005283BD8DFE800F004404604040400BFA4
:1050C000002D2E4646D149E0D8F84410D4F8B0005F
:1050D000414011F4407F11D0D8F84410D8F8442052
:1050E00042F48032C8F84420D8F8442021F44071BA
:1050F00022F48032C8F84420C8F84410B0F5807F0C
:1051000040F0CE82FFF7CCFA064641F2883A0325FA
:10511000032700BFD8F84400800700F1BF82FFF7E3
:10512000BFFA801B5045F5D9BCE700BF0125012619
:10513000207880071FD44CE004F10800012104F01E
:10514000A3FC04E004F12800012104F031FD054630
:105150002E461DB1207880070DD43AE0D8F82800FB
:10516000A16F20F0380000250843C8F828003E460B
:10517000207880072DD5606F052809D8DFE800F07A
:10518000040E1404040400BF2F46ADB918E000BF9C
:1051900001250127207840071FD44DE004F10800C5
:1051A000012104F071FC04E004F12800012104F065
:1051B000FFFC05462F461DB1207840070DD43BE08B
:1051C000D8F82800616F20F0070000250843C8F8D0
:1051D00028003746207840072ED5D4F890000528BF
:1051E00008D8DFE800F0030D130303032E46ADB922
:1051F00018E000BF012501262078800620D451E068
:1052000004F10800012104F03FFC04E004F128004F
:10521000012104F0CDFC05462E461DB12078800604
:105220000ED43FE0D8F82C00D4F8901020F00700FE
:1052300000250843C8F82C003E462078800631D56A
:10524000D4F88C004FEA3070052809D8DFE800F068
:10525000040E1404040400BF2F46ADB918E000BFCB
:10526000012501272078400620D451E004F10800F0
:10527000002104F009FC04E004F12800022104F0FC
:1052800097FC05462F461DB1207840060ED43FE01E
:10529000D8F82800D4F88C1020F0E040002508430E
:1052A000C8F8280037462078400631D5D4F8980051
:1052B0004FEAB020052809D8DFE800F0040E1404F6
:1052C000040400BF2E46ADB918E000BF0125012639
:1052D0002078000620D454E004F10800002104F0F6
:1052E000D3FB04E004F12800022104F061FC054630
:1052F0002E461DB1207800060ED442E0D8F82C00CE
:10530000D4F8981020F4E05000250843C8F82C0089
:105310003E462078000634D5D4F89C004FEA703021
:1053200005280FD8DFE800F004141A04040400BFB5
:105330002F46E5B12068010727D4C1063ED40003FB
:1053400055D475E00125012720680107F5D51CE03B
:1053500004F10800002104F097FB04E004F12800A8
:10536000022104F025FC0546002D2F46E2D1D8F895
:105370002C00D4F89C1020F4604000250843C8F8A5
:105380002C00374620680107D7D5D4F88000B0F547
:10539000805F09D104F12800022104F009FC0028F3
:1053A00018BF0127D4F88000D8F8281021F4405104
:1053B0000843C8F828002068C106C0D5D4F8940076
:1053C000B0F5807F09D104F12800022104F0F0FB40
:1053D000002818BF0127D4F89400D8F82C1021F425
:1053E00040710843C8F82C002068000320D5D4F889
:1053F000A000B0F5003F0FD0B0F5803F06D078BBDD
:1054000004F10800002104F03FFB04E004F128004F
:10541000022104F0CDFB05462E4655B9D8F82C00E4
:10542000D4F8A01020F4403000250843C8F82C0020
:105430003E46A07840072BD5D4F88400B0F5401F35
:105440000BD0B0F5001F11D0B0F5801F2AD1D8F8CD
:10545000000040F40030C8F800002F46CDB90DE040
:1054600001250126A0784007E6D411E004F12800C8
:10547000012104F09DFB05462F4655B9D8F82800B8
:10548000D4F8841020F4401000250843C8F8280000
:105490003746A078C0070AD13E462168880016D555
:1054A00033E000BF01250127A078C007F4D0206DAC
:1054B000B0F5803F10D018BBD8F8000040F40030A1
:1054C000C8F800002E4685B1216888001DD46068A8
:1054D0008A0326D465E000BF04F10800022104F02D
:1054E000D3FA0546002D2E46EED1D8F82000216DC6
:1054F00020F4803000250843C8F82000CCE700BF26
:105500000125012621688800E1D504F12800022147
:1055100004F04EFB002818BF0126D4E900108A03CE
:105520003FD5E26F6FF0010303EB3223022B0BD365
:105530004FEA322343B1012B40F0AA80D8F8003063
:1055400043F40033C8F8003025B3CA022CD48A02D1
:1055500034D44A003CD4CA0F49D1090251D4C107FE
:105560005AD1810763D441076CD4010776D4C106B0
:1055700000F18080800607D504F12800022104F0A4
:1055800017FB002818BF0125002D18BF012528464C
:10559000BDE8F087D8F8283023F440731A43C8F8E0
:1055A00028203546CA02D2D5D8F82420236F22F00D
:1055B00000421A43C8F824208A02CAD5D8F8242009
:1055C000A36E22F080721A43C8F824204A00C2D584
:1055D00058F81C2C22F4004248F81C2CD4F8B420B3
:1055E00058F81C3C1A4348F81C2CCA0FB5D0D8F800
:1055F0002020636D22F040521A43C8F8202009028F
:10560000ADD5D8F82810D4F8882021F440011143F2
:10561000C8F82810C107A4D004F10800002104F044
:1056200033FA002818BF0546606881079BD504F14E
:105630000800012104F028FA002818BF0546606818
:10564000410792D504F10800022104F01DFA002858
:1056500018BF0546606801077FF589AF04F128008F
:10566000002104F0A5FA002818BF05466068C106AD
:105670007FF580AF04F12800012104F099FA002899
:1056800018BF0546606880063FF576AF7CE700BF2F
:105690000125CA027FF55BAF86E700BFD4F8B000F2
:1056A0004FF6CF7358F81C2CC0F2FF0300F4407182
:1056B00022F47C5203EA10136FF31F30B1F5407FE0
:1056C00008BF1A43002548F81C2CD8F8441008439A
:1056D000C8F84400FFF7CBBC2DE9F04381B00028A7
:1056E00000F02A8142F200080446C5F200288946EB
:1056F000D8F8000000F00F0088420ED2D8F8000061
:1057000020F00F0040EA0900C8F80000D8F80000B7
:1057100000F00F00484540F00F81206844F2184720
:105720004107C5F602070AD521693A6802F07002FE
:10573000914204D93A6822F070021143396001079E
:105740000AD561697A6802F07002914204D97A68D8
:1057500022F0700211437960C1060AD5A1697A6806
:1057600002F4E062914204D97A6822F4E0621143C3
:10577000796081060AD5E169BA6802F07002914247
:1057800004D9BA6822F070021143B96010F0020126
:105790000AD0E2683B6803F00F039A4204D93B68E1
:1057A00023F00F031A433A60C20746D03968D4E9A0
:1057B000010221F47061012841EA0201396009D037
:1057C00003280DD0022811D157F8181C890312D4D0
:1057D000B2E000BF57F8181CC9050CD4ACE000BFFC
:1057E00057F8181C890106D4A6E000BF57F8181C0A
:1057F000490740F1A18057F8081C21F00701084330
:1058000047F8080CFEF74CFF064641F2883500BF0A
:1058100057F8080C616800F03800B0EBC10F09D0F0
:10582000FEF73EFF801BA842F2D9032001B0BDE87D
:10583000F08300BF206800F0020151B1E1683A68CE
:1058400002F00F02914204D23A6822F00F02114393
:105850003960D8F8001001F00F0149450DD9D8F88A
:10586000001021F00F0141EA0901C8F80010D8F832
:10587000001001F00F0149455ED141070AD52169A9
:105880003A6802F07002914204D23A6822F0700243
:105890001143396001070AD561697A6802F0700224
:1058A000914204D27A6822F0700211437960C106F5
:1058B0000AD5A1697A6802F4E062914204D27A685A
:1058C00022F4E0621143796080060AD5E069B96884
:1058D00001F07001884204D2B96821F070010843D8
:1058E000B86000F0E1F839684FF28452C0F6000267
:1058F000C1F30321515C3B6803F00F0301F01F016A
:10590000D25C20FA01F102F01F0040F21002C2F254
:10591000004221FA00F0106040F2080040F20C0250
:10592000C2F20040C2F200420068116001B0BDE85E
:10593000F043FEF701BF00BF012001B0BDE8F083D6
:105940003F22026044F21842C5F6020252F8083CB7
:1059500003F007034360136803F470638360136804
:1059600003F00F03C360136803F07003036153680F
:1059700003F070034361536803F4E063836192684A
:1059800002F07002C26142F20000C5F2002000681D
:1059900000F00F000860704780B500F085F844F211
:1059A00018414FF28453C5F60201C0F600030A689D
:1059B000C2F303229A5C096801F00F0102F01F0292
:1059C000595C20FA02F201F01F0040F21001C2F20D
:1059D000004122FA00F0086040F20C01C2F20041DE
:1059E0000A6080BD0000000080B500F05DF844F260
:1059F000184C4FF28453C5F6020CC0F60003DCF8D5
:105A00000020C2F303229A5CDCF8001001F00F01C1
:105A100002F01F02595CD04040F21002C2F2004274
:105A200001F01F0120FA01F1116040F20C02C2F2F4
:105A300000421060DCF80400C0F30210185C00F0B3
:105A40001F0021FA00F080BD80B500F02DF844F26F
:105A5000184C4FF28453C5F6020CC0F60003DCF874
:105A60000020C2F303229A5CDCF8001001F00F0161
:105A700002F01F02595CD04040F21002C2F2004214
:105A800001F01F0120FA01F1116040F20C02C2F294
:105A900000421060DCF80400C0F30220185C00F043
:105AA0001F0021FA00F080BD44F20041C5F602015A
:105AB0000869C0F3C200032810D002282ED098BB7A
:105AC0000868800649F20000C0F2D03058BF704725
:105AD0000968C1F3C101C840704700BF8A6A886A7B
:105AE000C0F3051CC86ABCF1000F4B6B22D000F05C
:105AF000010002F003024042022A00EAD3006FF3E1
:105B00005F3000EE100AB8EE400A15D0C2B908683E
:105B1000800619D49FED281A23E000BF43F20060ED
:105B2000C0F26E10704700BF40F60010C0F23D009A
:105B3000704700BF002070479FED1E1A11E000BFA4
:105B40009FED1B1A0DE000BF086849F20002C0F289
:105B5000D032C0F3C10022FA00F001EE100AB8EE14
:105B6000411A086B9FED153A6FF35F2002EE100AA1
:105B7000086BC0F34620B8EE422A013000EE032A3B
:105B800000EE10CAB7EE003AB8EE400A81EE000A05
:105B900032EE031A20EE010A01EE100AB8EE411AA5
:105BA00080EE010ABCEEC00A10EE100A704700BF7A
:105BB0000024744A001BB74B0024744C00000039C9
:105BC00070B3F0B581B00446007844F20046C007D7
:105BD000C5F6020626D1207880076ED5306910F010
:105BE0003801B06A46D0182908BF5FEA807041D0FA
:105BF000E0683168002800F0318121F01901084384
:105C00003060FEF74DFD0546306840074ED4FEF784
:105C100047FD401B0228F7D9032001B0F0BD00BFAB
:105C200001207047306900F03801B06A102905D0B2
:105C300018290BD100F00300022807D13068800337
:105C4000C9D560680028C6D1AEE000BF60680028F2
:105C500000F03A81B0F5A02F00F04E81B0F5803F02
:105C600000F04E81306820F480303060306820F4DD
:105C7000802048E130684007E06802D5002800F045
:105C80009380316821F0190108433060FEF708FD68
:105C9000054600BF3068400708D4FEF701FD401BF1
:105CA00002284FF00300F5D901B0F0BD70682169FA
:105CB00020F0FE4040EA016070602078C0061AD5EE
:105CC000306900F03801B06A082907D0182940F07F
:105CD000858000F00300012840F080803068C00516
:105CE00002D5E06980285FD1F068216A20F07C50FD
:105CF00040EA0160F060207800073FD420788006F9
:105D000056D42078400700F18180656A9DB33069E0
:105D100000F03800182840F01981012DB16A306B6D
:105D200042D001F00302A36A9A423DD1C1F30511AA
:105D3000E26A914238D10146226B6FF35F21013A4A
:105D4000914231D1C0F34622616B01398A422BD195
:105D5000C0F30642A16B01398A4225D1C0F3066027
:105D6000E16B013988421FD1706BA16CC0F3CC008C
:105D7000814240F0A181002001B0F0BD606900289F
:105D8000706F59D040F001007067FEF789FC05463E
:105D9000706F8007B2D4FEF783FC401B0228F7D94E
:105DA000032001B0F0BD00BF012001B0F0BD00BF75
:105DB000A0690028306875D040F480503060FEF74C
:105DC0006FFC0546306880049BD4FEF769FC401BDD
:105DD0000228F7D9032001B0F0BD00BFE069002818
:105DE000306800F0A18040F080003060FEF758FC81
:105DF000054600BF3068C0053FF576AFFEF750FCA2
:105E0000401B02284FF00300F4D94DE7D6F80004F8
:105E100040F48070C6F80004FEF742FC054600BF5F
:105E2000D6F80004C0052BD4FEF73AFC401B6428CA
:105E3000F6D9032001B0F0BD20F001007067FEF735
:105E40002FFC0546706F80077FF558AFFEF728FCE2
:105E5000401B02284FF00300F4D925E721F0010090
:105E60003060FEF71DFC0546306840077FF525AF22
:105E7000FEF716FC401B02284FF00300F4D913E78D
:105E8000A068002800F08480052800F09B8001288D
:105E900000F09C80306F20F001003067306F20F000
:105EA000040096E020F480503060FEF7F9FB0546D0
:105EB000306880047FF525AFFEF7F2FB401B022817
:105EC0004FF00300F4D9EFE6306820F48030306002
:105ED000306820F480203060FEF7E2FB054600BF0A
:105EE000306880037FF577AEFEF7DAFB401B64284D
:105EF0004FF00300F4D9D7E6306840F480203060DA
:105F0000306840F480303060FEF7CAFB054600BFC1
:105F1000306880033FF55FAEFEF7C2FB401B64288C
:105F2000F6D9032001B0F0BD20F080003060FEF70C
:105F3000B7FB05463068C0057FF5DDAEFEF7B0FB68
:105F4000401B02284FF00300F4D9ADE6306820F082
:105F500080703060FEF7A4FB022D05460CD100BF17
:105F60003068800148D5FEF79BFB401B02284FF0AC
:105F70000300F5D998E600BF306880017FF5FBAEDD
:105F8000FEF78EFB401B02284FF00300F4D98BE68E
:105F9000306F20F001003067306F20F00400306770
:105FA000FEF77EFB054641F28837306F80077FF5AC
:105FB000ACAEFEF775FB401BB8424FF00300F4D9BE
:105FC00072E600BF306F40F004003067306F40F081
:105FD00001003067FEF764FB054641F2883700BFD9
:105FE000306F80073FF591AEFEF75AFB401BB84279
:105FF0004FF00300F4D957E604F12807B06A40F2E5
:10600000F33188438ECF0843591E40EA02104FF403
:106010007E426FF35F21B06202EB47204FF4FE0235
:1060200080B2E36B0844A16B02EB01414FF0FE42EA
:1060300001F4FE0102EB0362084402F0FE41084451
:106040003063F06A4FF6F87120F00100F062706B77
:10605000A26C884340EAC2007063F06A216C20F0B1
:106060000C000843F062F06A616C20F00200084303
:10607000F062F06A40F48030F062F06A40F4003080
:10608000F062F06A40F48020F062F06A40F00100B3
:10609000F062306840F080703060FEF701FB04462B
:1060A000306880013FF567AEFEF7FAFA001B022860
:1060B0004FF00300F4D9F7E5F06A20F00100F06238
:1060C000FEF7EEFA0546FEF7EBFAA842FBD0706B3E
:1060D0004FF6F871A26C884340EAC2007063F06A20
:1060E00040F00100F062002001B0F0BD00000000AF
:1060F000704700000000000070B5044600680269A7
:106100004369816894F881501E050BD512F008068A
:1061100008D0816941F4006181612046BDE870408A
:1061200000F09ABA03EA020606F06402042A07D1D4
:10613000616F20468847216F2046BDE870400847C0
:1061400006F04502012A07D1216F2046884706F054
:106150002600022804D070BD06F02602022A05D1CE
:10616000616F2046BDE87040084700BF320711D478
:1061700016F4587FEFD070065CD4B00567D4F005F4
:1061800072D4B00600F17E80D4F88400002840F07C
:106190008980E0E721688A6942F008028A618A6999
:1061A00042F010028A618A6942F400628A610A69D7
:1061B00022F008020A61896811F4404F23D020467A
:1061C00003F092FD012084F88100D4F884000028B7
:1061D00040F0A180032D00F0A380042D00F0A680E4
:1061E000052DB8D12046BDE8704000F041BC00BF8D
:1061F0002268616E126B41F8042B6166B4F86A1074
:106200000139A4F86A10B4F86A100029D7D0E168FF
:106210001029EDD2082905D3028E616E21F8022BD8
:10622000EBE700BF216891F83010626E1170616E6B
:106230000131E2E72068D4F8842042F00402C4F877
:106240008420826942F040028261B00597D52068BF
:10625000D4F8842042F00102C4F88420826942F418
:1062600000728261F0058CD52068D4F8842042F059
:106270000802C4F88420826942F480728261B00608
:106280007FF582AF2068D4F8842042F08002C4F801
:106290008420826942F020028261D4F884000028C0
:1062A0003FF459AF206801F4404140F26B33B1F53F
:1062B000404F026822F001020260026922EA0301F3
:1062C000016125D1816849F6B95521F440418160C9
:1062D000E06FC0F6000548B10565FBF7F9FE28B18F
:1062E000D4F8840040F04000C4F88400A06F002877
:1062F0003FF431AF0565FBF7EBFE002808BF70BD2A
:10630000D4F8840040F04000C4F8840070BD00BFA1
:10631000012084F881002046BDE87040FFF7E8BE08
:106320002046BDE8704000F09FBB00BF2046BDE89E
:10633000704000F08DB9000000284DD02DE9F04FDD
:1063400081B043F6000104460068C4F2000143F244
:10635000000E43F6004C8842C4F2010EC4F2000C59
:106360004FF00002A26203D0604518BF704541D1D2
:10637000E36B0125E268884202F1080205EB531342
:106380004FEAD20202FB03F318BF704526D1102B4F
:1063900033D894F8810028B9002084F88000204682
:1063A00000F0AAF8022084F88100D4E90009D4F8AA
:1063B00018800368B8F1806F23F0010303608368DD
:1063C00003F4F81E26D1B9F1000F1BD0B9F5800FE8
:1063D00020D1A36B23BB19E001207047604518BF93
:1063E000082B0AD80CF574418842D0D06045CED035
:1063F000CFE700BFE3680F2BBAD9012001B0BDE899
:10640000F08F00BFA36BB3F1805F06D1036843F444
:10641000805303605FEA492302D44FF0010C0FE080
:10642000E368072B0AD3056825F4807C256D45EACF
:106430000C0505604FF0000C07E000BF4FF0000CAA
:10644000036823F480730360E368E769A26A47EA9C
:106450000E07E16B3A43A7681143B9F1000FD4E985
:1064600004BA41EA03018160616BA56B626A41EA8B
:106470000201226A41EA050141EA0B0141EA0A01EF
:10648000D4E9126341EA0201A26D41EA030141EA43
:10649000070141EA060141EA020141EA080141EA35
:1064A0000901C1600ED0016DBCF1000F21F00101A6
:1064B000016515D1C168626D21F000411143C160D1
:1064C0000EE000BF8168012262F3CC218160816807
:1064D000022262F34A218160016D21F00101016510
:1064E0000020C4F88400012184F8811001B0BDE8C7
:1064F000F08F0000000000002DE9F04FB3B06946B6
:10650000044601F10800B021F9F746FF43F6000107
:106510002068C4F20001884202D033B0BDE8F08F99
:106520004FF480500090684600270197FEF780FBEB
:1065300008B1FAF741FF44F2E04040F20045C5F6E9
:106540000200C5F602052EAE40F2280881684FF021
:10655000020941F4804181608168C4F2020801F4BB
:1065600080412E912E99016841F00401016001687B
:106570004FF0030A01F004012E912E99016841F0B9
:10658000020101600068314600F002002E902E9852
:1065900006202E9005F58060CDF8BC904FF0050BDD
:1065A0003097CDF8C4A0CDF8C8B0FDF79DFF4FF4EB
:1065B00000503146CDE92E0930A880E8800C2846ED
:1065C000FDF792FF40F2A0752720C2F200454FF47C
:1065D0008066C5E901074FF40030C5F80080C5E9C1
:1065E00008072846EF60C5E90467C5E90677FCF7A8
:1065F000D7FA08B1FAF7E0FEE56708F11800AC63D6
:1066000040F61805C2F200454FF48031286028207A
:1066100068604020A8600020C5E90306C5E90500C0
:10662000E861C5E908102846FCF7BAFA08B1FAF79C
:10663000C3FE242005210022A567AC63FEF74CF9B8
:106640002420FEF735F933B0BDE8F08F00000000DC
:1066500070470000000000007047000000000000CC
:106660002DE9F04F81B09B4615460F460446D0F801
:106670000090C66BFEF714F894F8811001290FD131
:1066800080464FF0010027B1002D18BFBBF1000F6D
:1066900002D101B0BDE8F08F94F88000012803D149
:1066A000022001B0BDE8F08F012084F880000520B1
:1066B00084F881000021C4F88410656643F6000266
:1066C000A4F86AB0C4F20002A4F868B0E765102725
:1066D000A4F862B02068A4F860B0216790426167B6
:1066E000C16821F4C021C1600CD043F60041C4F25E
:1066F0000001884206D043F20001C4F20101884241
:1067000018BF082741684FF6FF7291435944416012
:10671000016841F0010101606168B1F5800F4FF03F
:10672000010103D1026842F400720260E0680A9B32
:10673000102801EB56116BD3BF0801208DB203F175
:10674000010901225E460FE04FF0000BB2B246EAAB
:106750000B011FFA8BF0002A18BF0122002818BF76
:106760000120090400F052812168D2071FFA8BF240
:106770004B6906D013F002031CBF17FA86F393424D
:1067800004D8C0074869DFD00FE000BFE36D53F8BD
:10679000046B0E62E365B4F86230013BA4F862302A
:1067A000B4F86260C0074869CED04B69DB0704D1FA
:1067B000AA420FD210F400400CD0096B606E016049
:1067C00004306066B4F86A000138A4F86A00B4F8CE
:1067D0006AB0BBE7FDF764FFB9F1000FB6D0A0EBDC
:1067E00008000A998842B1D3204603F07DFAD4F814
:1067F000840040F48070C4F88400012084F8810093
:10680000002084F88000032001B0BDE8F08F00BFB5
:10681000072877D94FF6FF727F081FFA81FA012007
:10682000591C0091A2F1010C01215D4610E000BF4E
:106830004FF0000BA9B245EA0B021FFA8BF00029BA
:1068400018BF0121002818BF0120120400F0DE80CB
:106850002268C9071FFA8BF1536906D013F00203AF
:106860001CBF17FA85F38B4204D8C0075069DFD0EC
:1068700010E000BFE36D33F8026BA9F82060E36518
:10688000B4F86230013BA4F86230B4F86250C0073B
:106890005069CDD05269D20715D151450ED210F4AE
:1068A00000420BD0B9F83010606E20F8041BB9F824
:1068B000301020F8021C61460CE000BF012913D102
:1068C00010F4005010D0B9F83010606E20F8021BA0
:1068D0004FF6FF716066B4F86A000844A4F86A00D5
:1068E000B4F86AB0A6E700BF6646FDF7D9FE009986
:1068F00031B1A0EB08000A998842B4469AD373E7F5
:10690000B44697E74FF6FF7201201FFA81F95E1C2B
:10691000D51E0122DA460FE04FF0000B1FFA8AF273
:106920004AEA0B011FFA8BF0002A18BF0122002847
:1069300018BF0120090469D02168D2071FFA8BF221
:106940004B6906D013F002031CBF17FA8AF3934277
:1069500004D8C0074869DFD012E000BFE36D1B78A0
:1069600081F82030E16D0131E1652168B4F86230D1
:10697000013BA4F86230B4F862A0C0074869CBD0EC
:106980004B69DB0725D14A451ED210F400431BD0CA
:1069900091F83000616E08702068616E4A1C626672
:1069A00090F8300048702068616E4A1C626690F86A
:1069B000300048702068616E4A1C626690F83000B2
:1069C000487028460BE000BF032A13D810F4C040DB
:1069D00010D091F83000616E08704FF6FF70616E54
:1069E00001316166B4F86A100844A4F86A00B4F88A
:1069F0006AB093E7FDF754FE002E8FD0A0EB08009D
:106A00000A998842FFF48AAFEEE600BF0A9D681C2F
:106A100014D000BF20684069000713D4FDF740FE82
:106A2000A0EB0800A842F5D3D4F8840040F0200081
:106A3000C4F8840006E000BFFDF732FE206840691C
:106A40000007F9D5204603F04FF9012084F88100B2
:106A5000002084F88000D4F88400002818BF0120AA
:106A600001B0BDE8F08F000070470000000000009A
:106A700070470000000000007047000000000000A8
:106A80007047000000000000704700000000000098
:106A900090F83C20012A4FF0020266D0B0B580F891
:106AA0003D2040F2004C0268C4F2010C42F48063C5
:106AB00063455368D2F808E002BF23F470034C68C2
:106AC00023434DF6FF740D68C4F2000423F07003F5
:106AD000A24243EA0503536014DC40F2FF73C4F2A0
:106AE00000039A4222DD40F60003C4F200039A42FA
:106AF0002ED040F60043C4F200039A4228D041F65B
:106B0000000321E04FF6FF73C4F200039A4213DD45
:106B10000023C4F201039A421AD044F20003C4F2E3
:106B200001039A4214D0624512D016E0B2F1804FB0
:106B30000ED040F2004307E04EF20003C4F200031F
:106B40009A4205D04EF20043C4F200039A4204D1A7
:106B50002EF080038968194391600022012180F89A
:106B60003D1080F83C20BDE8B04010467047000062
:106B700060B310B5044690F83D0028B9002084F8B1
:106B80003C00204600F024F8022084F83D002068F4
:106B9000211D03F0C9FB012084F8480084F83E0061
:106BA00084F83F0084F8400084F8410084F84200F3
:106BB00084F8430084F8440084F8450084F84600D3
:106BC00084F8470084F83D00002010BD0120704784
:106BD00041F200010068C4F20001884218BF70470A
:106BE00080B582B044F2E8400022C5F60200016898
:106BF00041F0100101600068052100F010000190D3
:106C000001983620FDF768FE362002B0BDE88040CE
:106C1000FDF74EBE0000000090F83D10012927D17D
:106C2000022180F83D1001684DF6FF70C4F20000AB
:106C30008142C86840F00100C8601BDC40F2FF7070
:106C4000C4F2000081422DDD40F60000C4F20000D5
:106C500081423DD040F60040C4F20000814237D06E
:106C600041F60000C4F20000814231D03CE000BF98
:106C7000012070474FF6FF70C4F2000081421BDD17
:106C80000020C4F20100814222D044F20000C4F28C
:106C9000010081421CD040F20040C4F20100814258
:106CA00016D021E0B1F1804F12D040F20040C4F282
:106CB000000081420CD017E04EF20000C4F2000048
:106CC000814205D04EF20040C4F2000081420BD157
:106CD00007228868C0F2010202400020062A18BF7D
:106CE000B2F5803F00D17047086840F001000860AD
:106CF0000020704700000000704700000000000006
:106D0000F0B581B004460068C5680669B10717D5BB
:106D100015F0020114D06FF0020101610121217709
:106D20008069800704D02046FFF7E6FF06E000BF39
:106D3000204600F09DF8204600F05AFB0020207706
:106D4000700719D515F0040016D020686FF0040103
:106D5000016102212177806910F4407F04D0204630
:106D6000FFF7CAFF06E000BF204600F081F820468A
:106D700000F03EFB00202077300717D515F0080003
:106D800014D020686FF00801016104212177C069E7
:106D9000800703D02046FFF7AFFF05E0204600F054
:106DA00067F8204600F024FB00202077F00619D574
:106DB00015F0100016D020686FF010010161082155
:106DC0002177C06910F4407F04D02046FFF794FF7C
:106DD00006E000BF204600F04BF8204600F008FB1C
:106DE00000202077F00718BF15F0010006D02068BA
:106DF0006FF001010161204600F0CEFB05F0800735
:106E000016F4025F18BF002F02D1F00509D410E07C
:106E100020686FF4025101612046FFF731FEF00552
:106E200007D537B120686FF4807101612046FFF704
:106E300023FE700609D515F0400006D020686FF0DB
:106E400040010161204600F0B3FBB0060CD515F0FF
:106E5000200009D020686FF020010161204601B0B8
:106E6000BDE8F040FFF710BE01B0F0BD000000002B
:106E7000704700000000000090F83C30012B01D169
:106E8000022070474FEAB202052A33D82DE9F041BB
:106E9000DFE812F0060036007400B200D800FE00F1
:106EA000036843F6FF76C4F201061C6AB3421A6A0D
:106EB00024F0020422F001021A621A46D3F804C038
:106EC00052F818EF8D6844EA0504D1F8008040F3C9
:106ED000058144F20007C4F20107BB4200F00981BA
:106EE00044F60007C4F20107BB4200F0028144F2FD
:106EF0000047FAE00121002280F83C200846704754
:106F0000036840F2004E43F48067C4F2010E1C6A2D
:106F100077451A6A24F0200422F010021A621A46F9
:106F20005D6852F818CF8E6844EA061407D1CE681F
:106F30006FF0400724F0C00407EA0616344343F616
:106F4000FF76D1F80080C4F20106B34240F3EC8032
:106F500044F20007C4F20107BB4200F0EC8044F6A3
:106F60000007C4F20107BB4200F0E58044F200478D
:106F7000C4F20107BB4200F0DE80E3E0036840F2A8
:106F8000004E43F48067C4F2010E1C6A77451A6A0A
:106F900024F4007422F480721A621A465D6852F872
:106FA0001CCF8E6844EA062407D1CE6840F2FF4722
:106FB000360224F44064BE43344343F6FF76D1F8EE
:106FC0000080C4F20106B34240F3D48044F20007CB
:106FD000C4F20107BB4200F0D48044F60007C4F2BB
:106FE0000107BB4200F0CD8044F20047C4F2010724
:106FF000BB4200F0C680CBE0036843F6FF77C4F2E3
:107000000107D3F820C0BB421A6A22F480521A62E8
:107010001A465C6852F81C6F0D68D1F808E040F31E
:10702000CF8044F20007C4F20107BB4200F0D380D6
:1070300044F60007C4F20107BB4200F0CC8044F2E2
:107040000047C4E0036843F6FF77C4F20107D3F8B2
:1070500020C0BB421A6A22F480321A621A465C6867
:1070600052F8546F0D68D1F808E040F3D38044F231
:107070000007C4F20107BB4200F0D78044F60007C6
:10708000C4F20107BB4200F0D08044F20047C8E0E0
:10709000036843F6FF77C4F20107D3F820C0BB4270
:1070A0001A6A22F480121A621A465C6852F8546F07
:1070B0000D68D1F808E040F3D98044F20007C4F22B
:1070C0000107BB4200F0DD8044F60007C4F201076F
:1070D000BB4200F0D68044F20047CEE00027C4F265
:1070E0000107BB4205D040F20047C4F20107BB4292
:1070F00005D1CF6824F00C0427F004073C43B342C9
:1071000040F3E28044F20006C4F20106B34200F00C
:10711000E68044F60006C4F20106B34200F0DF80C8
:1071200044F20046D7E000BF0027C4F20107BB428B
:1071300001D0734506D1D1E90576374325F4406681
:1071400046EA870548F6FF475D60CFF6FF6707EA26
:107150000C0747EA08279F614F6809699F631C6213
:107160009F6947F400679F619F6927F480679F616B
:10717000A7E000BF0027C4F20107BB4201D073455E
:1071800006D1D1E90576374325F4405646EA07157E
:107190004FF68C775D60CFF6FE7707EA0C0747EA7B
:1071A0000807DF614F680969DF631C62DF6947F028
:1071B0000807DF61DF6927F00407DF61ADE000BF8A
:1071C0000027C4F20107BB4205D040F20047C4F2D9
:1071D0000107BB4204D14F6924F4804444EA871478
:1071E00048F6FF475C60CFF6FF673E402CF400573F
:1071F00046EA0524DC614E6809691E6447EA0E37D9
:107200001F62DF6947F40067DF61DF6927F4806789
:10721000DF6156E00027C4F20107BB4205D040F20F
:107220000047C4F20107BB4204D14F6924F4803403
:1072300044EA07244FF68C775C60CFF6FE7703377D
:107240003E402CF4003746EA05045C654E68096947
:107250009E6547EA0E471F625F6D47F008075F654E
:107260005F6D27F004075F6557E000BF0027C4F299
:107270000107BB4205D040F20047C4F20107BB4200
:1072800004D14F6924F4802444EA872448F6FF4758
:107290005C60CFF6FF6707F540773E402CF400179F
:1072A00046EA05245C654E680969DE6547EA0E57C3
:1072B0001F625F6D47F400675F655F6D27F480674D
:1072C0005F65090229E000BF0026C4F20106B3424F
:1072D00005D040F20046C4F20106B34206D12CF4B8
:1072E0004077D1E90565374347EA050C4FF68C75C1
:1072F000C3F804C0CFF6FE750EEA050747EA080793
:107300009F614F6809695F631C629F6947F00807C6
:107310009F619F6927F004079F61136819431160FB
:107320000021BDE8F041002280F83C20084670476B
:1073300060B310B5044690F83D0028B9002084F8E9
:107340003C00204600F024F8022084F83D0020682C
:10735000211D02F0E9FF012084F8480084F83E0076
:1073600084F83F0084F8400084F8410084F842002B
:1073700084F8430084F8440084F8450084F846000B
:1073800084F8470084F83D00002010BD01207047BC
:1073900082B041F600010068C4F20001884215D0B5
:1073A00040F20041C4F2000188421CD144F2E8409E
:1073B000C5F60200016841F002010160006800F0BA
:1073C00002000190019802B0704700BF44F2E8400B
:1073D000C5F60200016841F040010160006800F05C
:1073E00040000090009802B07047000000000000CC
:1073F000704700000000000081B10A1F8B0743EABC
:107400009202032A12D8DFE802F003171F2500BFFB
:1074100000F13F031B78012B13D120E090F83E20B0
:10742000012A0ED1022280F83E2032E000F143030F
:107430001B78012B05D112E000F140031B78012BD2
:107440000DD00120704700BF00F141031B78012BD4
:1074500005D0F6E700F142031B78012BF1D1032A96
:1074600008D8DFE802F0030B0F1300BF022280F8F8
:107470003F200EE0022280F843200AE0022280F83A
:10748000402006E0022280F8412002E0022280F83B
:107490004220026801F01F00012101FA00F0116A88
:1074A000814311624EF2FF31C4F200018A42116A37
:1074B00040EA0100106215DC40F6FF30C4F2000023
:1074C000824227DCB2F1804F4ED040F20040C4F23D
:1074D0000000824248D040F60000C4F20000824220
:1074E00042D053E043F6FF700021C4F20100C4F221
:1074F0000101824244F20000C4F201001EDC4EF29F
:107500000043C4F200039A422ED08A4224D040F2B3
:1075100000431DE040F60040C4F20000824223D048
:1075200041F60000C4F2000082421DD04EF200007D
:10753000C4F20000824217D028E000BF82420BD084
:1075400044F60003C4F201039A4205D044F200431A
:10755000C4F201039A4219D1536C8A4243F40041A8
:10756000516418BF82420BD107219068C0F201011B
:1075700001400020062918BFB1F5803F06D17047B1
:1075800040F20040C4F201008242EDD0106840F0A9
:10759000010010600020704741F200410068C4F211
:1075A0000001884218BF7047FDF782B80000000054
:1075B000704700000000000090F88410012901D1FC
:1075C000022070472421C0F88810026813681168EF
:1075D00023F0005321F00101116000214166136086
:1075E0002022C0F8882080F88410084670470000E8
:1075F000704700000000000070470000000000001D
:1076000090F88420012A01D10220704770B524220D
:10761000C0F888200268D0F864E0BEF1000FD2F80C
:1076200000C0136823F001031360936823F06063C4
:1076300041EA0301916019D091684FF2286E936876
:10764000C0F6000E5B0F4FF23065C1F34266C0F624
:1076500000051EF80340E95C2301B3FBF1F11EF8BD
:107660000630AE5D1B01B3FBF6F301E001210123FF
:10767000A0F86A102021A0F86830C2F800C0C0F855
:107680008810002180F88410BDE8704008467047DB
:1076900090F88420012A01D10220704770B524227D
:1076A000C0F888200268D0F864E0BEF1000FD2F87C
:1076B00000C0136823F001031360936823F0604354
:1076C00041EA0301916019D091684FF2286E9368E6
:1076D000C0F6000E5B0F4FF23065C1F34266C0F694
:1076E00000051EF80340E95C2301B3FBF1F11EF82D
:1076F0000630AE5D1B01B3FBF6F301E0012101236F
:10770000A0F86A102021A0F86830C2F800C0C0F8C4
:107710008810002180F88410BDE87040084670474A
:1077200070470000000000007047000000000000EB
:10773000704700000000000070B50446006840F685
:107740002F01C26911402029016886680CD101F01F
:10775000200306F080555B1918D0616F71B3204685
:10776000BDE87040084700BF40F60F031A420DD035
:10777000012340F22015C1F20003C0F2004506EAE1
:10778000030C01EA050313EB0C0327D1D306E36EC8
:1077900016D5012B14D111F0100311D01021016264
:1077A0008068400626D4B4F85C00B4F85E10B4F8E3
:1077B0005E20002A18BF884240F0C68170BD00BF1D
:1077C000D30235D516F4800332D04FF48011016214
:1077D0002046BDE87040FFF7A7BF00BFD30718BF22
:1077E00011F4807340F08880930706F0010E00F1D9
:1077F0008F8098E0D4F8800040F20F42C4F2020279
:107800000168914254DC6F22C4F20202914200F3FB
:1078100023823F22C4F20202914200F351821022DD
:10782000C4F20202914200F0708228226AE200BF94
:10783000100606D501F0800006F40003C01840F0E1
:10784000178250064CD511F0400049D0206850E80E
:10785000000F216820F0400041E80002F2B12068EA
:1078600050E8000F216820F0400041E80002002AA3
:107870001FBF206850E8000F216820F040001CBFA7
:1078800041E80002002A09D0206850E8000F216872
:1078900020F0400041E80002002AD7D12020C4F89F
:1078A00088000020A0672046BDE8704000F014BEAC
:1078B00040F26F42C4F20202914200F3DF8140F2D3
:1078C0003F42C4F20202914200F3028240F21042AF
:1078D000C4F20202914200F0188240F2284211E202
:1078E000100240F1E18111F0804000F0DD8120467E
:1078F000BDE87040FFF714BF01230362D4F8903055
:1079000043F00103C4F89030930706F0010E0AD546
:10791000BEF1000F07D002230362D4F8903043F089
:107920000403C4F8903053070AD5BEF1000F07D006
:1079300004230362D4F8903043F00203C4F890307B
:1079400013070CD501F0200353EA0C0307D00823DA
:107950000362D4F8903043F00803C4F89030130564
:107960000BD511F0806308D04FF400630362D4F8A4
:10797000903043F02003C4F89030D4F89030002BBE
:107980003FF41CAF92060AD501F0200106F08052A8
:10799000891804D0616F11B1204688472068D4F857
:1079A0009010806800F0400001F02801401807D1D5
:1079B0002046FFF7BDFE0020C4F8900070BD00BF58
:1079C000206850E8000F216820F4907041E8000220
:1079D000F2B1206850E8000F216820F4907041E86F
:1079E0000002002A1FBF206850E8000F216820F421
:1079F00090701CBF41E80002002A09D0206850E8BE
:107A0000000F216820F4907041E80002002AD7D1CD
:107A10004FF6FE70CEF6FF70216851E8021F226813
:107A2000014042E80213DBB1216851E8021F2268DD
:107A3000014042E80213002B1FBF216851E8021FDA
:107A4000226801401CBF42E80213002B08D02168C5
:107A500051E8021F2268014042E80213002BDBD1EB
:107A6000E06E012827D1206850E8000F216820F03F
:107A7000100041E80002F2B1206850E8000F2168D0
:107A800020F0100041E80002002A1FBF206850E8E3
:107A9000000F216820F010001CBF41E80002002AFE
:107AA00009D0206850E8000F216820F0100041E85C
:107AB0000002002AD7D12020C4F88C000020E06604
:107AC000216860678868400640F1E880206850E8D7
:107AD000020F216820F0400041E80202F2B1206864
:107AE00050E8020F216820F0400041E80202002A1D
:107AF0001FBF206850E8020F216820F040001CBF23
:107B000041E80202002A09D0206850E8020F2168EB
:107B100020F0400041E80202002AD7D1D4F88000CA
:107B2000002800F0BB804AF23971C0F600010165FF
:107B3000FAF7CEFA00283FF441AED4F88000016D88
:107B4000BDE87040084700BF401A216851E8001F97
:107B5000226821F4907142E80013F3B1216851E8E2
:107B6000001F226821F4907142E80013002B1FBF10
:107B7000216851E8001F226821F490711CBF42E87F
:107B80000013002B09D0216851E8001F226821F45E
:107B9000907142E80013002BD7D14FF6FE71CEF65C
:107BA000FF71226852E8022F23680A4043E8022648
:107BB000DEB1226852E8022F23680A4043E8022619
:107BC000002E1FBF226852E8022F23680A401CBF04
:107BD00043E80226002E08D0226852E8022F2368CC
:107BE0000A4043E80226002EDBD12021C4F88C1085
:107BF0000021E1666167216851E8001F226821F0D9
:107C0000100142E80013F3B1216851E8001F226817
:107C100021F0100142E80013002B1FBF216851E83A
:107C2000001F226821F010011CBF42E80013002B46
:107C300009D0216851E8001F226821F0100142E8B4
:107C40000013002BD7D181B2022020672046BDE867
:107C50007040FFF7CDBC00BF9F22C4F202029142E8
:107C600040DC7022C4F2020291424ED0882249E0E8
:107C7000A16F00297FF473ADA0E500BF40F29F42E1
:107C8000C4F20202914235DC40F27042C4F20202B8
:107C900091423AD040F2884234E000BF2046BDE82D
:107CA0007040FFF745BD00BFD0017FF587ADB1F152
:107CB000FF3FC8BF70BD2046BDE87040FFF79CBCC9
:107CC0004022C4F2020291421FD058221AE000BFA3
:107CD00040F24042C4F20202914216D040F25842B1
:107CE00010E000BFA022C4F2020291420DD0B822DF
:107CF00008E000BF40F2B842C4F20202914204D050
:107D000040F2A042C4F20202914249688AB2002ABB
:107D10003FF454ADB4F85C309A42BFF44FADA4F8D0
:107D20005E10C069B0F5807F00F0A980206850E83F
:107D3000000F216820F4807041E80002F2B1206851
:107D400050E8000F216820F4807041E80002002A0A
:107D50001FBF206850E8000F216820F480701CBF0E
:107D600041E80002002A09D0206850E8000F21688D
:107D700020F4807041E80002002AD7D1206850E842
:107D8000020F216820F0010041E80202F2B12068F0
:107D900050E8020F216820F0010041E80202002AA9
:107DA0001FBF206850E8020F216820F001001CBFAF
:107DB00041E80202002A09D0206850E8020F216839
:107DC00020F0010041E80202002AD7D1206850E8E3
:107DD000020F216820F0400041E80202F2B1206861
:107DE00050E8020F216820F0400041E80202002A1A
:107DF0001FBF206850E8020F216820F040001CBF20
:107E000041E80202002A09D0206850E8020F2168E8
:107E100020F0400041E80202002AD7D12020C4F817
:107E20008C000020E066206850E8000F216820F0F8
:107E3000100041E80002F2B1206850E8000F21680C
:107E400020F0100041E80002002A1FBF206850E81F
:107E5000000F216820F010001CBF41E80002002A3A
:107E600009D0206850E8000F216820F0100041E898
:107E70000002002AD7D1D4F88000F9F791FE022041
:107E80002067B4F85C00B4F85E10401A81B2204656
:107E9000BDE87040FFF7ACBB10B5D8B10446D0F8D0
:107EA000880028B9002084F88400204600F028F8D3
:107EB0002420C4F888002068A16A0268002922F002
:107EC0000101016002D0204602F00AFB204602F0C8
:107ED00003FE08B1012010BD2068416821F49041E3
:107EE0004160816821F02A018160016841F001014F
:107EF00001602046BDE8104002F062BB00000000B7
:107F00002DE9F043B5B000210446CDE93311CDE9A8
:107F10003111309102A8B821F8F73EFA40F6FF710E
:107F20002068C4F2010188427CDC45F20001C4F201
:107F30000001884200F0008147F60001C4F2000110
:107F4000884240F0C38102A80026039602250295CC
:107F5000FCF76EFE08B1F9F72FFA44F2E04040F268
:107F60005808C5F60200C4F20208816841F0804159
:107F70008160816801F0804101910199016841F0BF
:107F800010010160006830A900F010000190019814
:107F90004FF4C07061C10720349041F2000030A955
:107FA000C5F602003396FCF79FFA40F6081508F56F
:107FB0007470C2F200454FF480694FF44037286076
:107FC0004F20C5E901062846EE60C5E90496C5E9DB
:107FD0000666C5E90876FAF7E3FD08B1F9F7ECF9AA
:107FE000C4F8805008F57A70AC6340F68015C2F290
:107FF00000452860502068604020A8600020C5E946
:108000000309C5E90500E861C5E908702846FAF7E3
:10801000C7FD08B1F9F7D0F9E56705F13800522539
:108020004BE100BF41F20001C4F20101884200F0BF
:10803000F18041F60041C4F20101884240F04681DE
:108040000120029002A800270397FCF7F1FD08B178
:10805000F9F7B2F944F2E04041F20005C5F602003A
:10806000C5F6020530AE40F2580801694FF002092A
:1080700041F0800101610169C4F2020801F0800150
:1080800001910199016841F01001016000683146D9
:1080900000F01000019001980420309034902846A0
:1080A000CDE931973397FCF71FFA08203146CDE927
:1080B00030090B2034902846CDE93277FCF714FACA
:1080C00040F6F81508F58060C2F200454FF480666E
:1080D00028607620C5E901074FF40030EF60C5E95C
:1080E00008072846C5E90467C5E90677FAF758FD89
:1080F00008B1F9F761F9C4F8805008F58360AC6302
:1081000040F67025C2F20045286077206860402064
:10811000A8600020C5E90306C5E90500C5E9070018
:1081200068622846FAF73CFD08B1F9F745F9E567BA
:1081300005F138009C25C0E002A8002603964FF008
:108140000208CDF80880FCF773FD08B1F9F734F99F
:1081500044F2E04041F20007C5F60200C5F602070E
:1081600030AD4FF00809816841F480118160816869
:1081700001F4801101910199016841F0040101604D
:10818000016801F0040101910199016841F00801C1
:1081900001600068294600F00800019001984FF442
:1081A0008050CDE93008A7F50060CDF8D090CDE93A
:1081B0003266FCF799F904202946CDE93008A7F585
:1081C0008060CDF8D090CDE93266FCF78DF940F6AD
:1081D00090055820C2F20045C4F2020028604120F8
:1081E000C5E901064FF48060EE60C5E904064FF46E
:1081F0008070AE61C5E9070628466E62FAF7D0FCCA
:1082000008B1F9F7D9F8C4F8805005F138003525E0
:1082100053E000BF0120029002A800260396FCF75D
:1082200007FD08B1F9F7C8F844F2E040C5F60200CE
:10823000016941F010010161016901F01001019132
:108240000199016841F001010160006841F20001FB
:1082500000F001000190C5F6020101984FF4C060E2
:10826000309002203396CDE9310607203490A1F5F5
:10827000805030A9FCF738F940F6E8255820C2F2C2
:108280000045C4F2020000F56E7028602A20686084
:108290004020C5E902064FF48060C5E9040628467F
:1082A000C5E90666C5E90866FAF77AFC08B1F9F788
:1082B00083F8E56705F138002525046005210022D3
:1082C0002846FCF709FB2846FCF7F2FA35B0BDE872
:1082D000F08300000000000010B50446D0F88C00C8
:1082E000202809D196460A460120002918BFBEF170
:1082F000000F03D110BD00BF022010BD4FF0000CD5
:10830000C4F86CC040F600402168C5F60000814208
:1083100003D04868000200F1A780A2652220A4F8DB
:108320005CE0C4F890C0C4F88C00D4F88000F8B1C8
:108330004AF641114AF6B923C0F60001C0F600031F
:10834000C0E90F134AF249710023C0F60001C0E9E9
:108350001313216873462431FAF7F2FF40B110205D
:10836000C4F890002020C4F88C00012010BD00BF8C
:10837000206938B3206850E8000F216840F480700D
:1083800041E80002F2B1206850E8000F216840F493
:10839000807041E80002002A1FBF206850E8000FEB
:1083A000216840F480701CBF41E80002002A09D017
:1083B000206850E8000F216840F4807041E8000216
:1083C000002AD7D1206850E8020F216840F0010050
:1083D00041E80202F2B1206850E8020F216840F043
:1083E000010041E80202002A1FBF206850E8020F86
:1083F000216840F001001CBF41E80202002A09D0B8
:10840000206850E8020F216840F0010041E80202B4
:10841000002AD7D1206850E8020F216840F04000C0
:1084200041E80202F2B1206850E8020F216840F0F2
:10843000400041E80202002A1FBF206850E8020FF6
:10844000216840F040001CBF41E80202002A09D028
:10845000206850E8020F216840F0400041E8020225
:10846000002AD7D1002010BD206850E8000F2168F5
:1084700040F0806041E80003002B3FF44EAF2068DD
:1084800050E8000F216840F0806041E80003002BB5
:108490001FBF206850E8000F216840F080601CBFBB
:1084A00041E80003002B3FF438AF206850E8000F8C
:1084B000216840F0806041E80003002BD4D12CE714
:1084C00040F68070C2F2004004F046BB000000009D
:1084D000704700000000000041F200010068C4F293
:1084E0000101884218BF704740F21D000121C2F20D
:1084F000004001707047000001200121F8F708F9E1
:10850000FEE700000000000040F674580C21C2F2A3
:1085100000484046FEF770FF4FF4FA6003F0BCFCE1
:108520009FED888AB0EE480A00F01EFFF7F7F8FFCB
:108530000028FBD140F2FC04B2EE08DAB3EE0EFAEA
:10854000FBEE0E8AC2F2004440F21C0A4FF0000B10
:108550004FF0010904F1240504F1300604F13C0751
:108560009FED79AA9FED79BAC2F2004A9FED78CAD1
:108570009FED78EA9FED789ADFED789ADFED78AAA3
:1085800004E000BF84F8019084ED130A012003F099
:1085900083FC0BF1010B1FFA8BF0B0F5967F31D104
:1085A000284631463A46F7F7C7FF94ED0F0A94ED97
:1085B000043A3AEE400A94ED031A207884ED053A25
:1085C0004FF0000B84ED041A31EE002A012830EE42
:1085D000414AD8F8000084ED030A33EE022A22EE65
:1085E0000B2AA0EE0C2AA4EE0D2A82FE4E2A82FE51
:1085F000092A09FE022A84ED022ABCEEC23A13EED1
:10860000101A0164284631463A46F7F795FFA078DC
:1086100068B904F13000F0EE491AB0EE492AF0EEE4
:10862000492A90EC030A84F8029000F099FC9AF829
:108630000000012852D00228A8D194ED080A94ED38
:108640000B1A31EE401A94ED060A94ED093A04F142
:10865000300094ED072A33EE400AB0EEC14A94EDA3
:108660000A3A73EE420AB0EE493AF0EE493A84ED26
:10867000090AF4EE449AB0EE494AF1EE10FAD0EC51
:10868000031A39FE011AC4ED0A0A84ED0B1A00F030
:10869000E7FE00F081FE03F05FFA84ED110A03F0BB
:1086A000C7FA84ED100A03F02FFB607830EE2A0A37
:1086B00084ED120A01287FF465AF94ED131A30EEB1
:1086C000412AB4EE4F2AF1EE10FA37DDB4EE682AF3
:1086D000F1EE10FA32DA84ED121A57E794ED090A36
:1086E00094ED061A30EE010A94ED0A1A94ED072A69
:1086F00094ED083A31EE021A94ED0B2A606832EEDE
:10870000032A013084ED060AB0F57A7F84ED071A5A
:1087100084ED082A6060FFF439AF80EE080A022079
:1087200081EE081A84ED060A82EE080A84ED071A23
:1087300084ED080A8AF8000028E700BF84ED130AD8
:1087400024E700BF00007A4400003C420000484299
:108750000000C8420000FA4300000000A69B443C11
:10876000000034430000000080B582B044F2D840DD
:108770000022C5F60200016841F0010101600168B4
:1087800001F0010101910199016841F002010160CC
:108790000068052100F00200009000980C20FCF712
:1087A0009BF80C20FCF784F80D2005210022FCF733
:1087B00093F80D20FCF77CF80E2005210022FCF731
:1087C0008BF80E20FCF774F8382005210022FCF706
:1087D00083F83820FCF76CF8392005210022FCF7DB
:1087E0007BF83920FCF764F83A2005210022FCF7D9
:1087F00073F83A20FCF75CF83B2005210022FCF7D7
:108800006BF83B20FCF754F83C2005210022FCF7D4
:1088100063F83C2002B0BDE88040FCF749B8000096
:1088200080B540F660304AF20001C2F20040C4F266
:1088300000014FF0010C4FF0030E01600021C0E970
:10884000021101820A2280F812C01D23C0F814E030
:108850008261C0E90732C0E909E2C0E90B32C0E930
:108860000D1CC163022202640423C0E91131C0E976
:108870001331C0E91531C0E91712C0E91913FBF72C
:1088800023FB002808BF80BDBDE88040F8F794BDF9
:1088900080B540F600404AF20041C2F20040C4F206
:1088A00000014FF0010C4FF0030E01600021C0E900
:1088B000021101820A2280F812C01D23C0F814E0C0
:1088C0008261C0E90732C0E909E2C0E90B324FF426
:1088D000A062C163C0E90D2C022202640423C0E936
:1088E0001131C0E91331C0E91531C0E91712C0E9EF
:1088F0001913FBF7E9FA002808BF80BDBDE88040E6
:10890000F8F75ABD0000000010B54FF25C6201207C
:10891000C0F60002002103F007FB40F228044FF2EA
:108920003862C2F20044C0F60002002120604AF220
:108930005110C0F6000003F053FB606049F6E96097
:108940004FF2DC52C0F60000C0F60002002103F036
:1089500047FBA06040F219704FF26052C0F6000071
:10896000C0F60002002103F03BFBE06041F6E100AD
:108970004FF29452C0F60000C0F60002002103F04E
:108980002FFB206148F209504FF26C62C0F60000E4
:10899000C0F60002002103F023FB606149F2797008
:1089A0004FF2B852C0F60000C0F60002002103F0FA
:1089B00017FBA06110BD00002DE9F04387B044F221
:1089C000E0404FF00008C5F60200CDF8188040F6F0
:1089D000000901220168C5F6020941F01001016099
:1089E0000168012701F0100101910199016841F02E
:1089F00004010160016801F004010191019901681D
:108A000041F080010160016801F08001019101994C
:108A1000016841F001010160016801F0010101916B
:108A20000199016841F002010160016801F0020151
:108A300001910199016841F008010160006848F264
:108A4000090100F00800019001984846FBF720FE5C
:108A5000A9F50065012100222846FBF719FE02A9AD
:108A60004FF4004002AECDF8148081E88101484601
:108A70003146FBF739FD02A909200324059481E85A
:108A8000810148463146FBF72FFD28463146CDE9A6
:108A90000277CDE90484FBF727FD4FF4A050029044
:108AA0004FF488103146CDE9030809F50060FBF763
:108AB0001BFD07B0BDE8F08310B540F6A04443F6B7
:108AC0000000C2F20044C4F20000072120604FF40D
:108AD000800060600020A060E1604FF000712161C3
:108AE0004FF0807161614FF08061A1614FF0804172
:108AF000C4E90710C4E90900E06204F138006163C9
:108B00002421F7F749FC2046FDF716FC002808BF92
:108B100010BDBDE81040F8F74FBC00000000000099
:108B2000B0B590B040F6285041F60005C2F20040C2
:108B300000240994C4F20005CDE90644CDE90444BB
:108B400005601721C0E9011440F2CF718461C0E9CA
:108B50000314FEF7EDFB08B1F8F72EFC40F62850A1
:108B600008A9C2F2004008940A94FDF791FF08B1E9
:108B7000F8F722FC40F628546020C2F2004401902D
:108B80004FF47A70029000200390059001A904220E
:108B90002046FEF771F908B1F8F70EFC2068A842EC
:108BA00014D040F20041C4F2000188422BD144F2BB
:108BB000E040C5F60200016841F002010160006872
:108BC00000F002000B900B9802200EE044F2E0400F
:108BD000C5F60200016841F002010160006800F082
:108BE00002000B900B984FF400400B9002200C9069
:108BF00000210F9040F20040CDE90D11C5F60200B2
:108C00000BA9FBF771FC10B0B0BD00000000000024
:108C1000B0B590B040F6745040F20045C2F200404A
:108C200000240994C4F20005CDE90644CDE90444CA
:108C300005601721C0E9011442F20F71C0E9031465
:108C400080218161FEF774FB08B1F8F7B5FB40F6AF
:108C5000745008A9C2F2004008940A94FDF718FF66
:108C600008B1F8F7A9FB40F674546020C2F2004442
:108C7000019000200590CDE9020001A90C222046B8
:108C8000FEF7FAF808B1F8F797FB41F60001206803
:108C9000C4F20001884211D0A8422CD144F2E04035
:108CA000C5F60200016841F002010160006800F0B1
:108CB00002000B900B9802200FE000BF44F2E0404E
:108CC000C5F60200016841F002010160006800F091
:108CD00002000B900B984FF400400B9002200C9078
:108CE00000210F9040F20040CDE90D11C5F60200C1
:108CF0000BA9FBF7F9FB10B0B0BD000000000000AD
:108D000010B584B040F6C05041F20001C2F20040FC
:108D100000240294C4F20001016045F6BF51C0E98D
:108D2000011442F20F71C1608461FDF721FF08B1A7
:108D3000F8F742FB40F6C05001A9C2F2004001948E
:108D40000394FDF7A5FE08B1F8F736FB04B010BD9B
:108D500080B540F6807045F20001C2F2004048F252
:108D6000A062C4F20001C0F20102C0E900124FF497
:108D7000805181604FF40051C1604FF48061016106
:108D80000C21416100218162C0E90611C0E908118E
:108D9000FFF782F808B1F8F70FFB40F6807000216A
:108DA000C2F20040FEF774FC08B1F8F705FB40F68C
:108DB00080700021C2F20040FEF722FC08B1F8F7F3
:108DC000FBFA40F68070C2F20040FEF7F5FB002887
:108DD00008BF80BDBDE88040F8F7EEBA0000000093
:108DE00080B541F2140047F60001C2F20040C4F21F
:108DF00000010C2201604FF4E13141600021C0E923
:108E000002110161C0E90521C0E90711C0E909119A
:108E1000FFF742F808B1F8F7CFFA41F21400002149
:108E2000C2F20040FEF734FC08B1F8F7C5FA41F28F
:108E300014000021C2F20040FEF7E2FB08B1F8F78F
:108E4000BBFA41F21400C2F20040FEF7B5FB002865
:108E500008BF80BDBDE88040F8F7AEBA0000000052
:108E600080B540F6EC6041F60041C2F20040C4F229
:108E700001010C2201604FF4E13141600021C0E9A1
:108E800002110161C0E90521C0E90711C0E909111A
:108E9000FFF702F808B1F8F78FFA40F6EC6000210E
:108EA000C2F20040FEF7F4FB08B1F8F785FA40F68D
:108EB000EC600021C2F20040FEF7A2FB08B1F8F717
:108EC0007BFA40F6EC60C2F20040FEF775FB00282A
:108ED00008BF80BDBDE88040F8F76EBA0000000012
:108EE00080B540F6586041F20001C2F20040C4F281
:108EF00001010C2201604FF4E13141600021C0E921
:108F000002110161C0E90521C0E90711C0E9091199
:108F1000FEF7C2FF08B1F8F74FFA40F6586000219B
:108F2000C2F20040FEF7B4FB08B1F8F745FA40F68C
:108F300058600021C2F20040FEF762FB08B1F8F76A
:108F40003BFA40F65860C2F20040FEF735FB0028BD
:108F500008BF80BDBDE88040F8F72EBA00000000D1
:108F600080B52DED108B82B020EEA03A4FF07E50F0
:108F70000090B0EE61AAB0EE629AB0EE428AA0EE26
:108F8000003AF5EE401AF1EE10FAA1EE013AB1EE18
:108F9000C33A9DED004A84EE033A8DED003A9DED13
:108FA000003A23EE20CA23EE01DA20D0B5EE408A43
:108FB000F1EE10FA1CBFB5EE409AF1EE10FA16D0A1
:108FC00028EE081A0190AAEE0A1AA9EE091AB1EEC3
:108FD000C11A9DED012A82EE011A8DED011A9DED57
:108FE000011A21EE0AAA21EE088A21EE099A23EE3F
:108FF000400AF0EE4D0A05F0AFFAB0EE40BAB0EE1E
:109000004C0AF0EE4D0A05F0A7FAB0EE40CA05F0A2
:1090100053FDB0EE40EAB0EE4C0A05F04DFCB0EE68
:1090200040FAB0EE4B0A05F047FCF0EE408AB0EE95
:109030004B0A05F041FDB5EE40AA9FED50DAF1EE86
:1090400010FA1DD0B5EE408AF1EE10FA1CBFB5EE55
:10905000409AF1EE10FA13D028EE001A6EEE010AD3
:1090600029EE001A29EE4E0AEAEE280A98EE4F0A77
:10907000E1EE0F0A05F070FAB6EE001A20EE01DA02
:10908000B6EE009A2CEE098AB0EE480A05F014FC00
:109090002BEE099AB0EE40AAB0EE490A05F00CFC9E
:1090A000B0EE40BAB0EE4D0A05F006FCB0EE40CA94
:1090B000B0EE480A05F000FDB0EE408AB0EE490A75
:1090C00005F0FAFCB0EE409AB0EE4D0A05F0F4FC63
:1090D0002AEE091A45F6DF1128EE092AC5F637717E
:1090E0002BEE083AB7EE087A21EE404A2AEE0B5AE8
:1090F00022EE006AF0EE470AA3EE0C4A23EE003A95
:10910000A5EE0C6A22EE4C2AA1EE0C3A24EE041ACB
:10911000A5EE002ABEEE000AA6EE061AA3EE031A7A
:10912000A2EE021A11EE100A21EE000AA1EB600075
:1091300005EE100A40F2B000C2F2004020EE051A1F
:10914000E1EE050A20EE851A20EE010AA0EE017A72
:1091500021EE070A26EE001A24EE004A80ED021ADC
:1091600023EE001A80ED034A22EE000A80ED041A75
:1091700080ED050A02B0BDEC108B80BD0000000040
:1091800082B0F5EE401A40F2B000F1EE10FAC2F2F1
:10919000004009D1B5EE402AF1EE10FA04BFF5EE19
:1091A000402AF1EE10FA5DD022EE023A4FF07E51E5
:1091B0000091FEEE003AA1EEA13AA2EEA23AB1EE83
:1091C000C33A9DED004A84EE033A8DED003A9DEDE1
:1091D000007A90ED044A90ED053A90ED025A63EE64
:1091E000044A90ED036AE5EE053A65EE445AE5EE71
:1091F000064AE3EE033AE6EE035A67EE222A67EEEA
:10920000216A67EE027A22EEE42A26EEE37A67EE1E
:10921000E51AA7EEA32AA2EEA57AD0ED012AE6EE82
:10922000A41AF5EE402AF1EE10FA25DD62EE823A3C
:10923000D0ED096A62EE874A62EEA15AD0ED062AA5
:10924000E3EEA62AD0ED073AE4EEA63AD0ED084ABE
:10925000E5EEA64A32EE800A73EEA00A34EE811AD9
:1092600010E000BF90ED025A90ED036A90ED044AC1
:1092700090ED053A12E000BFDFED3A2AF0EE623AD7
:10928000F0EE624A32EE000AC0ED062A77EE200ABE
:10929000C0ED073A31EE811AC0ED084AB6EE002A59
:1092A00090ED097A4FF07E5127EE022A21EE021A44
:1092B00020EE020A20EE822A21EE047A66EE411A9E
:1092C00062EE040AA5EE007A66EE022AE6EE000AD5
:1092D000A3EE427AE5EE021AE3EE010AE5EE012A78
:1092E000E3EE001A36EE072AE4EE402A80ED032A68
:1092F00035EE601A22EE020A80ED021A34EE214A9F
:1093000080ED044AA1EE010A33EE223A80ED053ADF
:10931000A4EE040A0191A3EE030AB1EEC00A9DED8A
:10932000011A81EE000A8DED010A9DED010A90ED12
:10933000021A90ED032A90ED043A90ED054A20EED2
:10934000011A20EE022A80ED021A20EE031A80EDA7
:10935000032A20EE040A80ED041A80ED050A02B00B
:10936000704700BF00000000B7EE001A40F2B000E6
:10937000C2F2004000214FF07E5281EE000A4160AF
:10938000C0E90221C0E904118161C0E9071101703F
:1093900080ED090A7047000010B52DED048BB6EE84
:1093A000008A40F2B004C2F2004404F12800F0EE5A
:1093B000480A94ED041A94ED050A94ED023A94EDEE
:1093C000032A21EE000AE2EE420AA3EE020AE1EECF
:1093D000410A01F091FF94ED020A94ED052A94ED03
:1093E000041A9FED1D9A20EE410A94ED031AA1EE96
:1093F000020AB8EE001A94ED0A2A20EE010A22EEC3
:10940000091A84ED0A1A05F011F894ED021A94ED88
:10941000052A94ED043A21EE021AA3EE438A94ED54
:10942000034A20EE090A04F13000A4EE031A84ED89
:109430000B0AA2EE428AB0EE410AF0EE480A01F0B1
:109440005BFF94ED0C0A012020EE090A207084EDE8
:109450000C0ABDEC048B10BDE12E6542000000003B
:10946000B5EE403AF1EE10FA04BFF5EE403AF1EEF7
:1094700010FA00F0E7802DED108B84B0F5EE401A65
:1094800040F2B000F1EE10FAC2F200400AD1B5EE9F
:10949000402AF1EE10FA04BFF5EE402AF1EE10FA80
:1094A00000F0D88022EE025A4FF07E5123EEA36ADC
:1094B0000191F6EE007AA1EEA15AA3EE036AA2EEA4
:1094C000A25AB1EEC55A9DED017AA4EE046A87EE68
:1094D000055A8DED015ADDED014A0291B1EEC66AE1
:1094E0009DED025A85EE065A8DED025A64EEA22ACF
:1094F000DDED025A90ED045A65EE056A90ED036ABF
:1095000090ED057A25EEA3AA27EE079AD0ED023A50
:1095100037EEE68A46EE467A23EE87BA26EE05DA7D
:1095200025EE833A25EE844A3DEE0BEA37EEC9CAB2
:109530007DEE4B5A23EE86BA2AEE0CCA38EE498AE3
:1095400023EE85DAA3EE0ECA25EE07EA2AEE25FA07
:1095500066EE078A7EEE4B9A3BEE0EBAA3EE08FA51
:109560007DEE28AAA4EE29CA38EECDDA77EEE66AB7
:109570006AEE0B7AA4EE2AFA3CEE0CCAE3EE0D7A00
:1095800064EEA11A2CEE0CCA3FEE0FEAE4EE267A46
:1095900024EE822AAEEE0ECABEEE00EA62EECB4A9E
:1095A00077EEA77A03EEA3EAB1EECCCA6BEE278A78
:1095B0002DEE27FA66EEA76AECEE258A7EEE095AB2
:1095C000ACEE08FAECEE2A6A61EEE57A24EE688ADF
:1095D000E2EE254AE2EE8D7AAAEE268A63EE662A4C
:1095E00062EE4D5A6AEE4F6AE4EE0F2AE1EE8B5AB4
:1095F000D0ED011AE3EE286AF5EE401A34EE884AFF
:10960000F1EE10FA37EEA22A35EEA63A2CDD61EE25
:10961000842AD0ED096A61EE824A61EE835AD0ED68
:10962000061AE2EEA61AD0ED072AE4EEA62AD0ED3D
:10963000084AE5EEA64A31EE800A72EEA00A34EE40
:10964000811A17E0B5EE404AF1EE10FA7FF413AF3D
:10965000FFF796BDD0ED023A90ED036A90ED045A03
:1096600090ED057A12E000BFDFED3C1AF0EE612AC2
:10967000F0EE614A34EE000AC0ED061A72EE200ADE
:10968000C0ED072A33EE011AC0ED084AB6EE002AF3
:1096900090ED093A4FF07E5123EE022A21EE021A94
:1096A00020EE020A20EE822A21EE053A66EE410AF9
:1096B00022EE054AA3EE803A66EE021AA6EE004AB2
:1096C000A7EE423AE3EE820AA7EE014AE3EE811AE0
:1096D000E7EE000A36EE032AE5EE401A80ED032A93
:1096E00033EEC41A22EE020A80ED021A35EE203A59
:1096F00080ED043AA1EE010A37EE214A80ED054AD9
:10970000A3EE030A03910021A4EE040AB1EEC00AFD
:109710009DED031A81EE000A8DED030A9DED030A0B
:1097200090ED021A90ED032A90ED043A90ED054A6F
:1097300020EE011A20EE022A80ED021A20EE031A12
:1097400080ED032A20EE040A80ED041A80ED050A5C
:10975000017004B0BDEC108B704700BF000000002A
:1097600001200121F6F7D4FFFEE700000000000011
:10977000FEE700000000000040F24C1640F6EC60EE
:10978000C2F20046C2F2004005223146002786F8A8
:109790004E7006F12C0AFEF79FFD41F214090222D9
:1097A000C2F20049514648460225FEF795FD40F6B3
:1097B000081B40F6F818C2F2004BC2F2004811E054
:1097C000B6F805000522314686F82A7000BA000C6A
:1097D000308540F6EC60C2F20040FEF77DFD0120CE
:1097E00002F05AFB9BF83500012839D18BF835502F
:1097F00096F84E00C0B302284BD0012834D003287D
:1098000047D098F8350001284ED188F8355096F8A1
:109810002A0018B10228D3D001281ED1344644F8BA
:10982000057F34F8040CE761A761676100BA27611E
:10983000010CA4F821100421E76001EB104021463F
:1098400082B240F6EC60C2F20040A760676084F824
:109850002550FEF741FD94F825000328B0D0BEE75F
:1098600096F84E000128CAD134460C22484644F8E6
:109870002E7F2146E761A76167612761E760A760E6
:10988000676084F82050FEF727FD94F82000032835
:10989000B7D102224846514686F84E70FEF71CFDAD
:1098A00098F835000128B0D096F82A000128B5D0E4
:1098B000D3E7000000000000D0B380ED070A30EECF
:1098C000C00A017890ED0F1A90ED102AC0ED060A3B
:1098D00080ED0F0A80ED101A80ED112A61B3012985
:1098E00072D1B8EE003A90ED025A30EE414A20EEC5
:1098F000055AA1EE030A90ED011AD0E90C2180ED82
:109900000A5AC0E90D2132EE002A24EE010A90ED38
:10991000031A80ED090A22EE013A80ED0C2A30EE9E
:10992000051A90ED080A80ED0B3A31EE031A33E088
:109930009FED270A704700BF90ED025A30EE411AA2
:1099400090ED0A4A90ED012AA5EE004A90ED036AD7
:1099500020EE022A90ED053A21EE060A80ED092A52
:10996000D0E90C21C0E90D21B4EE434A80ED0A4A4A
:10997000F1EE10FA80ED0C1A80ED0B0A06DCB1EE68
:10998000433AB4EE434AF1EE10FA03DAB0EE434A3A
:1099900080ED0A3A32EE041A30EE010A90ED041A14
:1099A000B4EE410A80ED080AF1EE10FA07DCB1EEE0
:1099B000411AB4EE410AF1EE10FAA8BF7047B0EEBA
:1099C000410A80ED081A704790ED080A704700BF01
:1099D0000000000000000000002808BF704780B5AC
:1099E00018303021F6F7D8FC80BD000000000000E0
:1099F000002818BF002A01D1704700BF80B5017050
:109A000011684160516881609168C16080ED040A0D
:109A10002821C0ED050A2030F6F7BEFC80BD00000D
:109A2000EFF30980BFF36F8F154B1A681EF0100F0C
:109A300008BF20ED108A20E9F04F10602DE90900E1
:109A40004FF0500080F31188BFF34F8FBFF36F8F3B
:109A500003F0EEFC4FF0000080F31188BDE8090030
:109A600019680868B0E8F04F1EF0100F08BFB0EC9E
:109A7000108A80F30988BFF36F8F704700BF00BF63
:109A8000B401002400000000F0B581B044F22C477E
:109A9000C5F6020757F8042C02F00302032A03D18B
:109AA000012001B0F0BD00BF054657F82C0C0C4654
:109AB00020F0806047F82C0CFAF7F2FD064600BF54
:109AC00057F82C0C000105D5FAF7EAFD801B022897
:109AD000F6D964E057F8040CEE6895E80E0020F41F
:109AE0007C30012C40EA0130A2F101016FF35F21CB
:109AF0004FF47E4202EB432247F8040C92B24FF03F
:109B0000FE4302EB01004FF4FE012A6901EB06411E
:109B100001F4FE0103EB0262084402F0FE41084436
:109B2000F8603868696920F0C00040EA01003860D8
:109B30003868A96920F0200040EA010038603868E0
:109B40004FF6F87120F0100038603869EA6920EAB1
:109B500001004FF4001140EAC2003861386808BFC4
:109B60004FF4801140F01000002C386008BF4FF413
:109B7000002138680843386057F82C0C40F08060AA
:109B800047F82C0CFAF78CFD044600BF57F82C0C54
:109B9000000107D4FAF784FD001B0328F6D3032045
:109BA00001B0F0BD002001B0F0BD000000000000D9
:109BB000F0B581B044F22C47C5F6020757F8042CE3
:109BC00002F00302032A03D1012001B0F0BD00BF5F
:109BD000054657F82C0C0C4620F0805047F82C0C0A
:109BE000FAF75EFD064600BF57F82C0C800005D53D
:109BF000FAF756FD801B0228F6D964E057F8040CEA
:109C0000EE6895E80E0020F07C70012C40EA0150CF
:109C1000A2F101016FF35F214FF47E4202EB432278
:109C200047F8040C92B24FF0FE4302EB01004FF4F0
:109C3000FE012A6901EB064101F4FE0103EB026219
:109C4000084402F0FE41084478613868696920F4EC
:109C5000406040EA010038603868A96920F400706B
:109C600040EA0100386038684FF6F87120F48070DF
:109C70003860B869EA6920EA01004FF0807140EA73
:109C8000C200B861386808BF4FF4000140F480702A
:109C9000002C386008BF4FF48001386808433860F2
:109CA00057F82C0C40F0805047F82C0CFAF7F8FCD1
:109CB000044600BF57F82C0C800007D4FAF7F0FCDC
:109CC000001B0328F6D3032001B0F0BD002001B033
:109CD000F0BD00000000000040F6A040C2F20040CD
:109CE000FCF70ABA00000000016840F26F32D1F8B8
:109CF00014C08B6943F008038B618B6943F0100338
:109D00008B610B6823F001030B600B6923EA0202ED
:109D10000A618A6822F440428A6090F88120042A0D
:109D200018BF1CF0200209D0D0F8842042F0800235
:109D3000C0F884208A6942F020028A6190F881206C
:109D4000032A18BF1CF040020CD15FEA8C5216D4D3
:109D50005FEACC5220D40021A0F86210A0F86A106B
:109D6000704700BFD0F8842042F00402C0F884207D
:109D70008A6942F040028A615FEA8C52E8D5D0F8E5
:109D8000842042F00102C0F884208A6942F4007203
:109D90008A615FEACC52DED5D0F8842042F0080216
:109DA000C0F884208A6942F480728A610021A0F898
:109DB0006210A0F86A107047806B0021A0F86A104A
:109DC000A0F86210012180F88110FCF791B9000021
:109DD000074B19680868B0E8F04F80F30988BFF3B3
:109DE0006F8F4FF0000080F31188704700BF00BFF5
:109DF000B401002400000000F0B581B040F29006EC
:109E000040F25C77C2F20046C2F2004740F23C6486
:109E10000546B6F90210C2F20044D7ED010A204609
:109E200000EE101AB8EEC00AFFF746FDB6F90C00B6
:109E3000D7ED020A00EE100A04F14800B8EEC00A9D
:109E4000FFF73AFD287840F2CC65C2F200450428BD
:109E50002CD8DFE800F0032B090F1F00B6F916001D
:109E6000DFED200A1AE000BFB6F91600DFED1C0A8C
:109E700014E000BF40F24C00D7ED040AC2F20040EB
:109E800090ED030A2846FFF717FDB6F91600D5ED49
:109E9000080A03E0B6F91600DFED100A00EE100A1A
:109EA00005F14800B8EEC00AFFF706FD94ED080A78
:109EB00095ED1A2A94ED1A1ABDEEC00ABDEEC11A2C
:109EC000BDEEC22A10EE100A11EE101A12EE102A80
:109ED00001B0BDE8F04000F01BB900BF0000FAC3BC
:109EE00000A08C45000000008CB04FF4FA606FF4C5
:109EF000967A01F0D1FF4FF224509FED828AC0F68E
:109F000000009FED819AB0EE480AF0EE490AD0E9D0
:109F10000012069181680792C26808910169406940
:109F20000992CDE90A104FF23C5006AAC0F6000093
:109F3000E84602F10C0508F10C0490E88A0002974B
:109F400040F23C67C2F200470091C1680193036987
:109F50004FF0000940690590CDE903130021384610
:109F6000FFF746FDB0EE480AF0EE490A07F1480057
:109F700000212A46FFF73CFD40F2CC65B0EE480ACE
:109F8000F0EE490AC2F20045002128464246FFF79A
:109F90002FFDB0EE480AF0EE490A05F14800002115
:109FA0002246FFF725FD40F25C7448F20000C2F241
:109FB000004448F20001C4F2BB50CCF2BB51C4E9EA
:109FC000010140F24C0040F29002C2F20040C2F2A5
:109FD0000042C1682161918A01814FF4FA6001F069
:109FE0005BFF41F220664AF2000BC2F200464AF2E1
:109FF0000007C4F2D75BCCF2D757F07A01281DD006
:10A00000032821D002282BD1B6F908000AF1020159
:10A0100048F20002884248F20001C4F2BB51CCF27F
:10A02000BB52C4E901121CDA142001F035FFB6F965
:10A03000080050451BDD0321217012E084F80090D8
:10A04000C4E901990CE000BFB6F908000AF1CA01A1
:10A0500000228842B8BF0122C4E901B75000207035
:10A06000308900B2B0F5967F01DB042020706FF4D8
:10A0700096704FF0000900F1CA054FF0040800F196
:10A08000020A00BF2046FFF7B7FE012001F004FFDF
:10A09000F07A032808D002281AD001280FD184F8BA
:10A0A0000090C4E901990AE0B6F90800A8424FF00F
:10A0B0000000B8BF0120C4E901B74000207030891A
:10A0C00000B2B0F5967FDDDB84F80080DAE700BFF0
:10A0D000B6F9080048F2000148F20002C4F2BB5190
:10A0E0005045CCF2BB52C4E90112E9DA142001F068
:10A0F000D3FEB6F908006FF496718842C2DD0321E1
:10A100002170DDE70000804600401C460000000092
:10A1100080B582B0030A8DF80100080A8DF80200AC
:10A12000100A8DF804000020ADF8060040F600404B
:10A130008DF803108DF80520C2F200406A464FF4F6
:10A1400000718DF8003001F0EFFC02B080BD00001E
:10A15000012001F0A1FEFBE780B54EF21000CEF227
:10A160000000006803F044FF012808BF80BDBDE87F
:10A17000804003F085BA0000B0B59CB044F61804E6
:10A18000022000251195CDE90F55CDE90D55CDE9FA
:10A190000B550895C5F60204CDE90655CDE90455E1
:10A1A000CDE902550195FAF7D7FB0095206820F418
:10A1B00040402060206800F44040009000982068F3
:10A1C000800409D4206880045CBF20685FEA804076
:10A1D00002D420688004F2D50120099050234FF466
:10A1E0008031CDE9153009A80A9102210422CDE978
:10A1F000121114920824CDE9172119940025CDE9F4
:10A200001A55FBF7DDFC48B1EFF3108072B600BFC2
:10A2100001200121F6F77CFAFAE700BF3F20019008
:10A2200003204FF48061CDE9020540200494CDE97C
:10A230000500CDE9071001A80321FBF74DFA48B14D
:10A24000EFF3108072B600BF01200121F6F760FA2B
:10A25000FAE700BF1CB0B0BD4EF6885042F2000CC9
:10A26000CEF20000C5F2002C026842F470020260D7
:10A27000DCF8000000F00F00062806D8DCF800002B
:10A28000072262F30300CCF8000044F200404EF6CF
:10A290007F51C5F60200CEF6F621026842F00102B7
:10A2A000026000220261036819400160DCF80010BE
:10A2B000090706D5DCF80010072363F30301CCF887
:10A2C000001040F200218261C261C0F202210262EC
:10A2D00081620021C0F2FF11C16240F28021C0F210
:10A2E0000111016342638163C263016442640168D6
:10A2F00021F480210160026644F20000C5F20020D2
:10A3000043F2D2010160704740F6C050C2F20040F3
:10A31000FCF7F6BC0000000040F60C60C2F2004002
:10A32000FCF7EEBC0000000040F6FF32C4F2000271
:10A330009042026810DCB0F1804F1ED040F2004322
:10A34000C4F20003984218D040F60003C4F20003A0
:10A35000984212D015E000BF40F60043C4F200035B
:10A3600098420AD040F20043C4F20103984204D05C
:10A370000023C4F20103984203D122F070024B681B
:10A380001A434EF2FF3343F6FF7CC4F20003C4F2DB
:10A39000010C984214DD60452CDC4EF20043C4F2FF
:10A3A0000003984243D00023C4F2010398423ED0F8
:10A3B00040F20043C4F20103984238D03BE000BFB2
:10A3C00040F2FF73C4F20003984227DD40F6000319
:10A3D000C4F2000398422AD040F60043C4F20003BE
:10A3E000984224D04EF20003C4F2000398421ED0DB
:10A3F00021E000BF44F20003C4F20103984216D0EA
:10A4000044F60003C4F20103984210D044F2004322
:10A41000C4F2010398420AD00DE000BFB0F1804FB2
:10A4200005D040F20043C4F20003984203D122F465
:10A430004072CB681A4310B522F08002D1F800E0D8
:10A440004C698B6822430260C3626045C0F828E013
:10A45000BDE8104012DD44F20002C4F20102904255
:10A4600017D044F60002C4F20102904211D044F227
:10A470000042C4F2010290420BD00CE00022C4F270
:10A480000102904205D040F20042C4F20102904223
:10A4900001D109690163012141610169C90708BF4F
:10A4A0007047016921F0010101617047000000005F
:10A4B00010B540F68074C2F200442046FDF73CF926
:10A4C0002046BDE8104002F047BB0000000000003D
:10A4D00041F21400C2F20040FDF72EB90000000066
:10A4E000816A0A070CD4CA0715D18A071ED44A0705
:10A4F00027D4CA0630D48A0639D44A0642D454E056
:10A500000268D0F838C0536823F4004343EA0C03D0
:10A510005360CA07E9D00268D0F82CC0536823F40E
:10A52000003343EA0C0353608A07E0D50268D0F891
:10A5300030C0536823F4803343EA0C0353604A0766
:10A54000D7D50268D0F834C0536823F4802343EA97
:10A550000C035360CA06CED50268D0F83CC093689D
:10A5600023F4805343EA0C0393608A06C5D502683E
:10A57000D0F840C0936823F4005343EA0C0393607F
:10A580004A0612D50268D0F844C0BCF5801F536853
:10A5900023F4801343EA0C03536006D1536823F479
:10A5A000C00C836C43EA0C035360090658BF704724
:10A5B0000168C06C4A6822F400221043486070476A
:10A5C000B0B582B004460020C4F89000FAF768F8ED
:10A5D000216805460A68120737D54FF4001100229A
:10A5E0006FF07E40009020462B4600F0C5FC58B32B
:10A5F000206850E8000F216820F0800041E8000248
:10A60000F2B1206850E8000F216820F0800041E896
:10A610000002002A1FBF206850E8000F216820F0C8
:10A6200080001CBF41E80002002A09D0206850E8E1
:10A63000000F216820F0800041E80002002AD7D1F5
:10A640002020C4F8880062E021680868400765D5CA
:10A650004FF4800100226FF07E40009020462B4690
:10A6600000F08AFC002859D0206850E8000F2168CB
:10A6700020F4907041E80002F2B1206850E8000F29
:10A68000216820F4907041E80002002A1FBF206872
:10A6900050E8000F216820F490701CBF41E80002D0
:10A6A000002A09D0206850E8000F216820F490703B
:10A6B00041E80002002AD7D1206850E8020F216843
:10A6C00020F0010041E80202F2B1206850E8020FD8
:10A6D000216820F0010041E80202002A1FBF206823
:10A6E00050E8020F216820F001001CBF41E802027F
:10A6F000002A09D0206850E8020F216820F00100EC
:10A7000041E80202002AD7D12020C4F88C0003209F
:10A71000002184F8841002B0B0BD00BF2020C4F82E
:10A720008800C4F88C000020E0662067002184F8CF
:10A73000841002B0B0BD0000806B0021A0F85E1054
:10A74000A0F85610FCF7F4BF806B0268D0F8883090
:10A75000D0F88CC09168090658D5212B56D100211C
:10A76000A0F85610016851E8001F026821F0C001EE
:10A7700042E80013F3B1016851E8001F026821F0BC
:10A78000C00142E80013002B1FBF016851E8001F01
:10A79000026821F0C0011CBF42E80013002B09D061
:10A7A000016851E8001F026821F0C00142E800136F
:10A7B000002BD7D1016851E8021F026821F4000183
:10A7C00042E80213F3B1016851E8021F026821F464
:10A7D000000142E80213002B1FBF016851E8021F6D
:10A7E000026821F400011CBF42E80213002B09D0CB
:10A7F000016851E8021F026821F4000142E80213D7
:10A80000002BD7D12021C0F8881002689168490632
:10A8100040F18C80BCF1220F40F088800021A0F82C
:10A820005E10016851E8001F026821F4907142E84F
:10A830000013F3B1016851E8001F026821F4907120
:10A8400042E80013002B1FBF016851E8001F026897
:10A8500021F490711CBF42E80013002B09D001685D
:10A8600051E8001F026821F4907142E80013002BA8
:10A87000D7D14FF6FE7CCEF6FF7C026852E8022F5D
:10A88000036802EA0C0243E80221F1B1016851E8D1
:10A89000021F026801EA0C0142E80213002B1FBFED
:10A8A000016851E8021F026801EA0C011CBF42E87E
:10A8B0000213002B09D0016851E8021F026801EA67
:10A8C0000C0142E80213002BD7D1C16E012927D118
:10A8D000016851E8001F026821F0100142E80013EE
:10A8E000F3B1016851E8001F026821F0100142E84D
:10A8F0000013002B1FBF016851E8001F026821F000
:10A9000010011CBF42E80013002B09D0016851E878
:10A91000001F026821F0100142E80013002BD7D17C
:10A920002021C0F88C100021C1664167D0F890103A
:10A9300041F01001C0F89010FCF7FABE00000000D2
:10A94000C169806BB1F5807F00F0AA800021A0F87A
:10A950005E10016851E8001F026821F4807142E82E
:10A960000013FBB1016851E8001F026821F48071F7
:10A9700042E80013002B1FBF016851E8001F026866
:10A9800021F480711CBF42E80013002B0AD001683B
:10A9900051E8001F026821F4807142E80013002B87
:10A9A000D7D100BF016851E8021F026821F0010100
:10A9B00042E80213F3B1016851E8021F026821F076
:10A9C000010142E80213002B1FBF016851E8021F7A
:10A9D000026821F001011CBF42E80213002B09D0DC
:10A9E000016851E8021F026821F0010142E80213E8
:10A9F000002BD7D1016851E8021F026821F0400105
:10AA000042E80213F3B1016851E8021F026821F025
:10AA1000400142E80213002B1FBF016851E8021FEA
:10AA2000026821F040011CBF42E80213002B09D04C
:10AA3000016851E8021F026821F0400142E8021358
:10AA4000002BD7D12021C0F88C10C16E012927D14D
:10AA5000016851E8001F026821F0100142E800136C
:10AA6000F3B1016851E8001F026821F0100142E8CB
:10AA70000013002B1FBF016851E8001F026821F07E
:10AA800010011CBF42E80013002B09D0016851E8F7
:10AA9000001F026821F0100142E80013002BD7D1FB
:10AAA00000210167C16E012904D1B0F85C10FCF7E8
:10AAB0009FBD00BFFDF704BD806B01210167C16E22
:10AAC000012905D1B0F85C104908FCF791BD00BF21
:10AAD000FDF7FEBC00000000F0B583B0044600683E
:10AAE00046F6F31640F6004E22696569D4E9021372
:10AAF0000A43E7690168CCF6FF762A4331401143E7
:10AB0000C5F6000E394301604168704521F440519B
:10AB100044F2544C41EA03014160A2694FF2FF4301
:10AB20001CBF216A0A438168C1F2FF131940C5F6B0
:10AB3000020C1143816047F6FF32C16AC4F2000281
:10AB400021F00F01656A90424FF0800341EA050150
:10AB5000C16219DD41F2FF71C4F20101884229DCB2
:10AB600047F60041C4F20001884253D041F200018F
:10AB7000C4F20101884235D041F20041C4F2010122
:10AB800088422FD052E000BF44F6FF31C4F20001EA
:10AB9000884233DD44F60041C4F20001884239D0D6
:10ABA00045F20001C4F20001884233D047F60001AB
:10ABB0002CE000BF41F60001C4F20101884211D02F
:10ABC00041F60041C4F2010188420BD070452DD1FD
:10ABD000DCF8041001F00702062A27D20FF28C31AC
:10ABE00022E000BFDCF80010C1F3C202062A1DD229
:10ABF0004FF25A51C0F6000116E000BF44F2004186
:10AC0000C4F20001884205D044F60001C4F20001FC
:10AC100088420BD1DCF8001001F00702062A05D2A9
:10AC20004FF25451C0F600018B181B78704540F666
:10AC30000010C0F23D0000F05380B7F5004F40F027
:10AC40007B80402B4FF0010100F28781DFE813F099
:10AC500042000C01850185011001850185018501F6
:10AC60001601850185018501850185018501850123
:10AC70001E0185018501850185018501850185010B
:10AC80008501850185018501850185018501850194
:10AC90002E018501850185018501850185018501DB
:10ACA0008501850185018501850185018501850174
:10ACB0008501850185018501850185018501850164
:10ACC0008501850185018501850185018501850154
:10ACD0002C0100BFFAF788FE002840F0D58038E14B
:10ACE0009A1E01211E2A00F27580DFE812F01F0073
:10ACF000360179003601360136017F003601360112
:10AD00003601360136013601360189003601360139
:10AD1000360136013601360136013601360136017B
:10AD2000360136013601360136019600F9F73CFE50
:10AD3000002840F062800CE1402B4FF0010100F24E
:10AD40000C81DFE813F04100CF000A010A01D300B3
:10AD50000A010A010A01D9000A010A010A010A01CD
:10AD60000A010A010A01E1000A010A010A010A01B5
:10AD70000A010A010A010A010A010A010A010A017B
:10AD80000A010A010A01F1000A010A010A010A0185
:10AD90000A010A010A010A010A010A010A010A015B
:10ADA0000A010A010A010A010A010A010A010A014B
:10ADB0000A010A010A010A010A010A010A010A013B
:10ADC0000A010A010A01EF00FAF70EFE002840F01E
:10ADD0009880BEE0402B40F0C0804FF400401CE063
:10ADE0006846F9F7F5FD019838B9B2E06846F9F719
:10ADF00087FE0198002800F0AC80656A0DE000BF76
:10AE00005CF8540C800649F20000C0F2D03004D542
:10AE10005CF8541CC1F3C101C8404FF20061626884
:10AE2000C0F6000131F81510B0FBF1F002EB420161
:10AE300088424FF00101C0F090801303984200F265
:10AE40008C80010E0023000210EB520041F1000142
:10AE5000F5F758FA4FF60052A0F54071C0F20F0214
:10AE6000914274D378E000BFFAF7EEFD60B970E06C
:10AE70006846F9F7ADFD019830B96AE06846F9F720
:10AE80003FFE0198002864D0656A0FE05CF8540C1E
:10AE9000800649F20000C0F2D03007D55CF8541C9F
:10AEA000C1F3C101C84001E04FF400404FF200611E
:10AEB000C0F6000131F81510B0FBF1F061684A08E6
:10AEC00002EB40004FF6EF72B0FBF1F0A0F1100181
:10AED000914241D84FF6F0710140C0F3420008445E
:10AEE00035E000BFFAF7B0FD58B932E06846F9F72F
:10AEF0006FFD019828B92CE06846F9F701FE01982A
:10AF000038B3656A10E000BF5CF8540C800649F263
:10AF10000000C0F2D03007D55CF8541CC1F3C10169
:10AF2000C84001E04FF400404FF200616268C0F693
:10AF3000000131F81510B0FBF1F000EB5200B0FB4E
:10AF4000F2F0A0F110014FF6EF72914204D821689F
:10AF5000C860002101E000BF01214FF00110A06690
:10AF60000020C4E91D00084603B0F0BD020408102B
:10AF700020400000000000002DE9F04180460068FC
:10AF80000D46C7693940491BB1FA81F1490991421F
:10AF900025D1069C34B31646611C29D1C1692940CC
:10AFA000491BB1FA81F14909B14218D1C16929405F
:10AFB000491BB1FA81F14909B14201BFC169294078
:10AFC000491BB1FA81F104BF4909B14207D1C169F6
:10AFD0002940491BB1FA81F14909B142DED0002074
:10AFE000BDE8F081F9F75CFB0320BDE8F08100BF0C
:10AFF0001F4607E0C0692840401BB0FA80F04009B6
:10B00000B042ECD1F9F74CFBC01BA04200F2B68075
:10B01000D8F8000001684907ECD5402D18BF802DF5
:10B02000E8D0C169090700F1AD80C1690905E1D522
:10B030004FF400610162D8F8000050E8000FD8F822
:10B04000001020F4907041E8000222B3D8F800000C
:10B0500050E8000FD8F8001020F4907041E800028A
:10B06000002A1FBFD8F8000050E8000FD8F80010E1
:10B0700020F490701CBF41E80002002A0BD0D8F8E1
:10B08000000050E8000FD8F8001020F4907041E85C
:10B090000002002ACFD14FF6FE70CEF6FF70D8F82E
:10B0A000001051E8021FD8F80020014042E80213C6
:10B0B0000BB3D8F8001051E8021FD8F80020014067
:10B0C00042E80213002B1FBFD8F8001051E8021FFE
:10B0D000D8F8002001401CBF42E80213002B0AD020
:10B0E000D8F8001051E8021FD8F80020014042E8CB
:10B0F0000213002BD3D1D8F86C0001282FD1D8F837
:10B10000000050E8000FD8F8001020F0100041E8CF
:10B11000000222B3D8F8000050E8000FD8F8001061
:10B1200020F0100041E80002002A1FBFD8F80000FC
:10B1300050E8000FD8F8001020F010001CBF41E8C4
:10B140000002002A0BD0D8F8000050E8000FD8F811
:10B15000001020F0100041E80002002ACFD120208A
:10B16000C8F88C000021C8F86C10C8F87410C8F832
:10B170009000032088F88410BDE8F0810320BDE82A
:10B18000F08100BF08210162D8F8000050E8000FEC
:10B19000D8F8001020F4907041E8000222B3D8F8EB
:10B1A000000050E8000FD8F8001020F4907041E83B
:10B1B0000002002A1FBFD8F8000050E8000FD8F89E
:10B1C000001020F490701CBF41E80002002A0BD050
:10B1D000D8F8000050E8000FD8F8001020F4907064
:10B1E00041E80002002ACFD14FF6FE70CEF6FF7084
:10B1F000D8F8001051E8021FD8F80020014042E8BA
:10B2000002130BB3D8F8001051E8021FD8F8002041
:10B21000014042E80213002B1FBFD8F8001051E88C
:10B22000021FD8F8002001401CBF42E80213002B87
:10B230000AD0D8F8001051E8021FD8F800200140C9
:10B2400042E80213002BD3D1D8F86C0001282FD18B
:10B25000D8F8000050E8000FD8F8001020F01000D7
:10B2600041E8000222B3D8F8000050E8000FD8F8F7
:10B27000001020F0100041E80002002A1FBFD8F89B
:10B28000000050E8000FD8F8001020F010001CBF9C
:10B2900041E80002002A0BD0D8F8000050E8000F67
:10B2A000D8F8001020F0100041E80002002ACFD1A9
:10B2B0002020C8F88C000020C8F86C00C8F8740082
:10B2C0000821C8F8901088F884000120BDE8F081BA
:10B2D00040F6EC60C2F20040FCF72EBA000000001D
:10B2E00040F65860C2F20040FCF726BA00000000A9
:10B2F000FEE7000000000000F5EE400AF1EE10FA53
:10B300003ADD80EE200AB7EE002AB1EE401AB5EE23
:10B31000400AF1EE10FA20FE011AB4EE421AF1EEE4
:10B3200010FA6FDD82EE012A9FEDBD1A9FEDBD3A46
:10B330009FEDC34AA2EE013A9FEDBB1AA2EE031A9B
:10B340009FEDBA3AA2EE013A9FEDB91AA2EE031AA6
:10B350009FEDB83AA2EE013A9FEDB71AA2EE031A9A
:10B360009FEDB63AA2EE013A9FEDAB1AA2EE034A68
:10B3700002EE441A6AE000BFF5EE400AF1EE10FA60
:10B3800072DAB5EE400AF1EE10FA40F37F8080EEFB
:10B39000200AB7EE002AB1EE401AB5EE400AF1EEEF
:10B3A00010FA20FE011AB4EE421AF1EE10FA40F340
:10B3B000BD8082EE012A9FED9A1A9FED9A3A9FED89
:10B3C000A04AA2EE013A9FED981AA2EE031A9FED51
:10B3D000973AA2EE013A9FED961AA2EE031A9FED5C
:10B3E000953AA2EE013A9FED941AA2EE031A9FED50
:10B3F000933AA2EE013A9FED881AA2EE034A02EEBA
:10B40000441AB7E09FED862A9FED863AA1EE023AF4
:10B410009FED852AA1EE032A9FED843AA1EE023A20
:10B420009FED832AA1EE032A9FED823AA1EE023A14
:10B430009FED812AA1EE032A9FED803AA1EE023A08
:10B440009FED7F2AA1EE032A21EE021AB1EE412AD6
:10B45000B5EE400AF1EE10FA21FE020A80ED000A74
:10B46000002040B2704700BFF5EE400AF1EE10FA3E
:10B4700058D1B5EE400AF1EE10FA47DD9FED660AAD
:10B4800080ED000A002040B2704700BFB5EE400AD0
:10B49000F1EE10FA7ADA80EE200AB7EE002AB1EE69
:10B4A000401AB5EE400AF1EE10FA20FE011AB4EE91
:10B4B000421AF1EE10FA79DD82EE012A9FED581A58
:10B4C0009FED583A9FED5E4AA2EE013A9FED561A63
:10B4D000A2EE031A9FED553AA2EE013A9FED541ADF
:10B4E000A2EE031A9FED533AA2EE013A9FED521AD3
:10B4F000A2EE031A9FED513AA2EE013A9FED461AD1
:10B50000A2EE034A02EE441A74E000BFB5EE400A10
:10B51000F1EE10FA06DA9FED410A80ED000A0020F4
:10B5200040B27047FC2040B2704700BF9FED3C2AFC
:10B530009FED3C3AA1EE023A9FED3B2AA1EE032A91
:10B540009FED3A3AA1EE023A9FED392AA1EE032A85
:10B550009FED383AA1EE023A9FED372AA1EE032A79
:10B560009FED363AA1EE023A9FED352AA1EE032A6D
:10B5700021EE021AB1EE412AB5EE400AF1EE10FAC0
:10B5800021FE020A9FED301A3EE000BF10EE101AB5
:10B5900040F6DB72C4F2490262F31E0100EE101A9B
:10B5A00080ED000A002040B2704700BF9FED1C2ACA
:10B5B0009FED1C3AA1EE023A9FED1B2AA1EE032A51
:10B5C0009FED1A3AA1EE023A9FED192AA1EE032A45
:10B5D0009FED183AA1EE023A9FED172AA1EE032A39
:10B5E0009FED163AA1EE023A9FED152AA1EE032A2D
:10B5F00021EE021AB1EE412AB5EE400AF1EE10FA40
:10B6000021FE020A9FED0F1A30EE010A80ED000ABA
:10B61000002040B2704700BFDB0FC93FDB0FC9BF3E
:10B62000A59204BDE745093E08B732BEEBFCA9BCB4
:10B630003C695D3E435690BBE565AABEC90CC0B7E8
:10B640000100803FDB0F49C0DB0F494000000000D4
:10B6500010B5F4F7EDFE8020F5F73EF85520F5F72C
:10B660003BF85520F5F738F8F4F7DAFE9620F4F7B2
:10B670002FFFF4F7DDFE8020F5F72EF85520F5F7C3
:10B680002BF85520F5F728F8F4F7CAFE9620F4F7C2
:10B690001FFFF4F7CDFE7E20F5F71EF8B620F5F774
:10B6A0001BF8F4F7BDFE5020F4F7E2FEF4F7C0FEFD
:10B6B0008020F5F711F85520F5F70EF85520F5F72D
:10B6C0000BF8F4F7ADFE9620F4F702FFF4F7B0FEA6
:10B6D0008020F5F701F85520F4F7FEFF5520F4F728
:10B6E000FBFF0446F4F79CFE9620F4F7F1FE1E2CB7
:10B6F00040D1F4F79DFE7D20F4F7EEFF0420F4F72F
:10B70000EBFFF4F78DFE9620F4F7E2FEF4F790FEDF
:10B71000FD20F4F7E1FF5520F4F7DEFF5520F4F7A4
:10B72000DBFF0446F4F77CFE9620F4F7D1FE042CF0
:10B7300022D1F4F77DFE7C20F4F7CEFF0020F4F751
:10B74000CBFFF4F76DFE9620F4F7C2FEF4F770FE1F
:10B75000FC20F4F7C1FF5520F4F7BEFF5520F4F7A5
:10B76000BBFF0446F4F75CFE9620F4F7B1FE6CB123
:10B77000012002E0FF2010BD00204FF2EE6100EB3F
:10B780004000C0F600010844807810BDF4F750FE78
:10B790004020F4F7A1FFAB20F4F79EFFF4F740FE42
:10B7A0009620F4F795FEF4F743FEC020F4F794FFDB
:10B7B0005520F4F791FF5520F4F78EFF0446F4F777
:10B7C0002FFE9620F4F784FEAB2C21D1F4F730FE47
:10B7D0004120F4F781FF0020F4F77EFFF4F720FE0C
:10B7E0009620F4F775FEF4F723FEC120F4F774FFFA
:10B7F0005520F4F771FF5520F4F76EFF0446F4F777
:10B800000FFE9620F4F764FE24B10320B5E700BFD5
:10B810000220B2E7F4F70CFE5320F4F75DFF082096
:10B82000F4F75AFFF4F7FCFD9620F4F751FEF4F715
:10B83000FFFDD320F4F750FF5520F4F74DFF5520BE
:10B84000F4F74AFF0446F4F7EBFD9620F4F740FEC8
:10B85000082C21D1F4F7ECFD5820F4F73DFF04202B
:10B86000F4F73AFFF4F7DCFD9620F4F731FEF4F735
:10B87000DFFDD820F4F730FF5520F4F72DFF5520D9
:10B88000F4F72AFF0446F4F7CBFD9620F4F720FEE8
:10B89000042C03D1002010BD04206EE705206CE7C6
:10B8A000B0B5F4F7D9FD8020F4F716FF5520F4F772
:10B8B00013FFF4F7C9FD9620F4F70AFEF4F7CCFD68
:10B8C0008020F4F709FF5520F4F706FFF4F7BCFDDC
:10B8D0009620F4F7FDFDF4F7BFFD1420F4F7FCFE0D
:10B8E000B620F4F7F9FEF4F7AFFD5020F4F7C0FDF1
:10B8F000F4F7B2FD8020F4F7EFFE5520F4F7ECFEEC
:10B90000F4F7A2FD9620F4F7E3FDF4F7A5FD8020FF
:10B91000F4F7E2FE5520F4F7DFFE0446F4F794FD59
:10B920009620F4F7D5FD0F2C58D1F4F795FD0F2094
:10B93000F4F7D2FE00200025F4F7CEFEF4F784FDE4
:10B940009620F4F7C5FDF4F787FD8F20F4F7C4FEC9
:10B950005520F4F7C1FE0446F4F776FD9620F4F77F
:10B96000B7FD002C3DD1F4F777FD1020F4F7B4FEBD
:10B970008220F4F7B1FEF4F767FD9620F4F7A8FDF6
:10B98000F4F76AFD9020F4F7A7FE5520F4F7A4FE23
:10B990000446F4F759FD9620F4F79AFD822C1FD146
:10B9A000F4F75AFD1120F4F797FE0020F4F794FE07
:10B9B000F4F74AFD9620F4F78BFDF4F74DFD912046
:10B9C000F4F78AFE5520F4F787FE0446F4F73CFDB1
:10B9D0009620F4F77DFD6CB1022502E0FF20B0BD9A
:10B9E00001254FF2007105EB4500C0F60001084447
:10B9F0008078B0BDF4F730FD1520F4F76DFE80209F
:10BA0000F4F76AFEF4F720FD9620F4F761FDF4F7F1
:10BA100023FD9520F4F760FE5520F4F75DFE044603
:10BA2000F4F712FD9620F4F753FD802C1ED1F4F7A5
:10BA300013FD1620F4F750FE0020F4F74DFEF4F746
:10BA400003FD9620F4F744FDF4F706FD9620F4F785
:10BA500043FE5520F4F740FE0446F4F7F5FC96202B
:10BA6000F4F736FD24B10425BBE700BF0325B8E792
:10BA7000F4F7F2FC1820F4F72FFE0120F4F72CFE67
:10BA8000F4F7E2FC9620F4F723FDF4F7E5FC9820A8
:10BA9000F4F722FE5520F4F71FFE0446F4F7D4FC19
:10BAA0009620F4F715FD012C02D10020B0BD00BF97
:10BAB000052596E700000000B0B58AB040F6603476
:10BAC0000025C2F20044022004900120CDE90505C2
:10BAD00002A92046CDE902550795F7F7FDFE0221A0
:10BAE0000222002320460095F7F73EFF01210122A4
:10BAF0002046F7F7BDFE2046F8F7B2FC40F60045B9
:10BB0000C2F200452846F8F7ABFC0121002220468E
:10BB1000F7F7EAFD012100222846F7F7E5FD0AB014
:10BB2000B0BD00000000000080B58AB0019108217E
:10BB300004910021CDE90211CDE90511CDE90711EC
:10BB4000099101A9F7F718FE002818BF01200AB0D3
:10BB500080BD00000000000010B52DED048B40F208
:10BB6000B004C2F20044207820B194ED0B0ABDEC81
:10BB7000048B10BDB6EE008A94ED041A94ED050A0C
:10BB800094ED023A94ED032A21EE000AF0EE480A01
:10BB900004F12800A3EE020AE2EE420AE1EE410AB5
:10BBA000FFF7AAFB94ED020A94ED052A94ED041A1E
:10BBB0009FED1E9A20EE410A94ED031AA1EE020AAF
:10BBC000B8EE001A94ED0A2A20EE010A22EE091AB4
:10BBD00084ED0A1A02F02AFC94ED021A94ED052A6B
:10BBE00094ED043A21EE021AA3EE438A94ED034A3F
:10BBF00020EE090A04F13000A4EE031A84ED0B0ACA
:10BC0000A2EE428AB0EE410AF0EE480AFFF774FB5A
:10BC100094ED0C0A012020EE090A207084ED0C0A34
:10BC200094ED0B0ABDEC048B10BD00BFE12E654204
:10BC300010B52DED048B40F2B004C2F20044207820
:10BC400020B194ED0A0ABDEC048B10BDB6EE008A5B
:10BC500094ED041A94ED050A94ED023A94ED032A4A
:10BC600021EE000AF0EE480A04F12800A3EE020AD1
:10BC7000E2EE420AE1EE410AFFF73EFB94ED020AD2
:10BC800094ED052A94ED041A9FED1E9A20EE410AC8
:10BC900094ED031AA1EE020AB8EE001A94ED0A2AF6
:10BCA00020EE010A22EE091A84ED0A1A02F0BEFB08
:10BCB00094ED021A94ED052A94ED043A21EE021A4D
:10BCC000A3EE438A94ED034A20EE090A04F1300002
:10BCD000A4EE031A84ED0B0AA2EE428AB0EE410AEA
:10BCE000F0EE480AFFF708FB94ED0C0A012020EE65
:10BCF000090A207084ED0C0A94ED0A0ABDEC048B4D
:10BD000010BD00BFE12E654210B52DED048B40F251
:10BD1000B004C2F20044207820B194ED0C0ABDECCE
:10BD2000048B10BDB6EE008A94ED041A94ED050A5A
:10BD300094ED023A94ED032A21EE000AF0EE480A4F
:10BD400004F12800A3EE020AE2EE420AE1EE410A03
:10BD5000FFF7D2FA94ED020A94ED052A94ED041A45
:10BD60009FED1D9A20EE410A94ED031AA1EE020AFE
:10BD7000B8EE001A94ED0A2A20EE010A22EE091A02
:10BD800084ED0A1A02F052FB94ED021A94ED052A92
:10BD900094ED043A21EE021AA3EE438A94ED034A8D
:10BDA00020EE090A04F13000A4EE031A84ED0B0A18
:10BDB000A2EE428AB0EE410AF0EE480AFFF79CFA82
:10BDC00094ED0C0A012020EE090A207084ED0C0A83
:10BDD000BDEC048B10BD00BFE12E654200000000E9
:10BDE00084B04EF614540120CEF200040090F8F70F
:10BDF00027FD48F21F70029040F201100390684640
:10BE000000250195F8F7ECFC0620F8F729FD2068DD
:10BE1000800311D4BFF34F8FBFF36F8FC4F83C5230
:10BE2000BFF34F8FBFF36F8F206840F40030206066
:10BE3000BFF34F8FBFF36F8FF8F74AFCFEF79CF903
:10BE4000FCF7BAFDFCF790FCFCF722FDFDF748F883
:10BE5000FCF756FFFCF7E4FCFCF77AFFFCF760FE0A
:10BE6000FCF72AFEFCF7D4FEFCF7BAFFFCF7F8FF5C
:10BE700040F65860C2F20040FCF70EF8FFF71CFED7
:10BE800000F01AFF00F018F8FCF73EFD00F02CF867
:10BE9000FEE7000000000000EFF3058100291CBF51
:10BEA0006FF00500704728B180B501F071F90020EE
:10BEB00080BD00BF00207047EFF3058000281CBF45
:10BEC0006FF00500704740F22030C2F20040016878
:10BED00000291CBF4FF0FF30704701210160002096
:10BEE000704700000000000010B5EFF30580002847
:10BEF0001CBF6FF0050010BD40F22030C2F20040C0
:10BF0000016801290CD14EF61F510024CEF2000128
:10BF10000C700221016001F00BFA204610BD00BF39
:10BF20004FF0FF3010BD000070B582B00E46814268
:10BF30004FF00005EFF3058115D8A0B199B914466B
:10BF4000A2B1D4E902216AB14F290CD90128A36812
:10BF500030D10120002100220325009501F09CFC36
:10BF60000BE000BF11B1284602B070BD01280BD113
:10BF700001200021032201F04BFC0546002E18BFD2
:10BF8000002D07D1E5B91FE0314601F091FB0546D0
:10BF9000B5B919E0002100220023284601F0ECFC8D
:10BFA00001280DD0284601F06BF80025284602B084
:10BFB00070BD00BF31461A4601F0C6FB05461DB1F3
:10BFC00034B1216805E000BF0025284602B070BDED
:10BFD0000021284600F0FCFF284602B070BD00009A
:10BFE0002DE9F04184B08E4600240394EFF30581DF
:10BFF000C0B3B9BB42B39369002B08BF1823382BD9
:10C0000030D81179C9072DD157694FEA970C002F05
:10C01000D2E90286654608BF8025B8F1000F116895
:10C0200024D05C2E1ED31269002A18BF002F19D00D
:10C03000CDE9003262467346CDF8088001F098FFE2
:10C0400004B0BDE8F08100BF802518230021AAB20A
:10C0500003AFCDE90037734601F05AFF0399012879
:10C0600008BF0C46204604B0BDE8F081002EF9D18F
:10C070001269002AF6D1EAE72DE9F041044600F002
:10C08000DFFE40F2B41641F2C015C2F20046C2F221
:10C090000045F0680130F060306858B13069002820
:10C0A00040F007813068E16AC06A884298BF346016
:10C0B000FFE000BF3460F068012840F0FA802846B5
:10C0C00000F05EFE05F1140000F05AFE05F12800B4
:10C0D00000F056FE05F13C0000F052FE05F1500064
:10C0E00000F04EFE05F1640000F04AFE05F1780014
:10C0F00000F046FE05F18C0000F042FE05F1A000C4
:10C1000000F03EFE05F1B40000F03AFE05F1C80073
:10C1100000F036FE05F1DC0000F032FE05F1F00023
:10C1200000F02EFE05F5827000F02AFE05F58C70F9
:10C1300000F026FE05F5967000F022FE05F5A070D1
:10C1400000F01EFE05F5AA7000F01AFE05F5B470A9
:10C1500000F016FE05F5BE7000F012FE05F5C87081
:10C1600000F00EFE05F5D27000F00AFE05F5DC7059
:10C1700000F006FE05F5E67000F002FE05F5F07031
:10C1800000F0FEFD05F5FA7000F0FAFD05F502700D
:10C1900000F0F6FD05F5077000F0F2FD05F50C70F6
:10C1A00000F0EEFD05F5117000F0EAFD05F51670E2
:10C1B00000F0E6FD05F51B7000F0E2FD05F52070CE
:10C1C00000F0DEFD05F5257000F0DAFD05F52A70BA
:10C1D00000F0D6FD05F52F7000F0D2FD05F53470A6
:10C1E00000F0CEFD05F5397000F0CAFD05F53E7092
:10C1F00000F0C6FD05F5437000F0C2FD05F548707E
:10C2000000F0BEFD05F54D7000F0BAFD05F5527069
:10C2100000F0B6FD05F5577000F0B2FD05F55C7055
:10C2200000F0AEFD05F5617000F0AAFD05F5667041
:10C2300000F0A6FD05F56B7000F0A2FD05F570702D
:10C2400000F09EFD05F5757000F09AFD05F57A7019
:10C2500000F096FD05F57F7000F092FD05F5826017
:10C2600000F08EFD05F2244000F08AFD05F58760A0
:10C2700000F086FD05F24C4000F082FD40F290286F
:10C28000C2F20048404600F07BFD08F11407384632
:10C2900000F076FD06F1640000F072FD06F13C004E
:10C2A00000F06EFD06F1500000F06AFDC6F81C803B
:10C2B00037627068716A421CE06A72608842626428
:10C2C00088BF706200EB8000211D05EB800000F04C
:10C2D0009BFD00F0DDFD306988B13068E16AC06A1D
:10C2E000884228BFBDE8F0814EF604504FF08051DF
:10C2F000CEF200000160BFF34F8FBFF36F8FBDE838
:10C30000F08100000000000040F2B41541F2C016B8
:10C310004EF60458C2F20045C2F20046CEF20008C2
:10C320004FF0805703E000BF204600F0C9FDA86829
:10C33000D0B100F085FDA86CC468201D00F0E8FCB9
:10C34000E8680138E860A8680138A86000F0A0FD3E
:10C3500094F859000228EAD00128E5D070B9206B82
:10C3600000F0AEFDE0E700BF30680228DFD3C8F878
:10C370000070BFF34F8FBFF36F8FD8E74FF05000BF
:10C3800080F31188BFF36F8FBFF34F8FFEE700007C
:10C390002DE9F0470A9C16460F468246206B910015
:10C3A000A5229846DDE90859F3F7EFFF206B002F2F
:10C3B00000EB8600A0F1040020F0070654D0387886
:10C3C00084F83400387800284AD0787884F835002A
:10C3D0007878002844D0B87884F83600B8780028F7
:10C3E0003ED0F87884F83700F878C8B3387984F804
:10C3F00038003879A0B3787984F83900787978B33F
:10C40000B87984F83A00B87950B3F87984F83B00E9
:10C41000F87928B3387A84F83C00387A00B3787A0F
:10C4200084F83D00787AD8B1B87A84F83E00B87ABA
:10C43000B0B1F87A84F83F00F87A88B1387B84F894
:10C440004000387B60B1787B84F84100787B38B15C
:10C45000B87B84F84200B87B10B1F87B84F84300C5
:10C46000002084F8430002E0002084F83400372DD7
:10C4700004F1040028BF37250027C4E91357E562FB
:10C4800000F08AFC04F1180000F086FCC5F13800C9
:10C49000A06130465146424624616462676584F873
:10C4A000587000F041FBB9F1000F206018BFC9F8C7
:10C4B0000040BDE8F087000008480068006880F38D
:10C4C00008884FF0000080F3148862B661B6BFF3AD
:10C4D0004F8FBFF36F8F00DF00BF000008ED00E05B
:10C4E00081B00020009040F22000C2F200400068BD
:10C4F0004FF0500181F31188BFF36F8FBFF34F8F5F
:10C50000013003D0FEE700BF009838B9009828B981
:10C510000098002804BF00980028F5D001B07047AB
:10C5200088B040F22C2A0DF11009C2F2004AEB4605
:10C53000DAF8080005681DB1C068046801E000BFB2
:10C54000002400F06DFF01F063FDDAF810100646DC
:10C55000884220D3002DCAF8106051D0A6424FD394
:10C5600001F066FEDAF80800C068C7683D1D28467D
:10C5700000F0CEFB97F82800410745D400F0FE00FC
:10C5800087F8280084E000BF68603946DAF80800C0
:10C590002D6100F005FCDAF80800016831B3C068CD
:10C5A000C56804682F1D384600F0B2FB296A28468A
:10C5B000884795F828004007EDD5A8692044A04297
:10C5C000E2D8DAF80000002800F0488104A9002031
:10C5D00031C101F00DFDDAF80000002200234946C8
:10C5E00001F0CAF90028D6D138E100BFDAF80C1002
:10C5F000CAF81060CAE9021001F01AFE1AE100BF81
:10C6000065B1002210E000BFB8693F61011979608F
:10C61000B1421FD90AF1080021E000BFDAF80C008E
:10C620000068B0FA80F04209DAF80000A11B00F0BF
:10C630007BFD01F0FDFD002840F0FC804EF604502B
:10C640004FF08051CEF200000160BFF34F8FBFF377
:10C650006F8FEFE0311B814206D20AF10C000068B7
:10C66000294600F09DFB13E0DAF80000002800F0F6
:10C67000138104A9002091C101F0BAFCDAF800008E
:10C6800000220023494601F077F9002800F00481D8
:10C69000396A38468847CDE00098B0F1FF3F07DCA3
:10C6A000DDE90120039990470098002800F1C2803D
:10C6B000029E706910B1301D00F02AFB01F0A8FC49
:10C6C000DAF81010074688420DD30098CAF81070A7
:10C6D00009283FD9AEE000BF68602146DAF80800BB
:10C6E0002D6100F05DFBDAF80800016841B3C06815
:10C6F000C568D0F800802C1D204600F009FB296A8F
:10C700002846884795F828004007ECD5A86940449A
:10C710004045E1D8DAF80000002800F095800020BC
:10C720000695CDE9040801F063FCDAF80000002268
:10C730000023494601F020F90028D4D184E000BF4D
:10C74000DAF80C10CAE902100098CAF8107009282B
:10C7500000F27080DFE800F0060606444862060634
:10C76000444800BF96F82800019A366140F0010164
:10C77000B06986F8281083183146BB4241F8043F5F
:10C7800006D997420AF1080007D293420AD204E080
:10C79000BA1A824206D20AF10C00006800F000FBCF
:10C7A00048E000BF316A3046884796F828004007C5
:10C7B00040D5DAF8000000285AD00198B16900226B
:10C7C00004920844CDE9050601F012FCDAF80000F5
:10C7D00000220023494601F0CFF858BB48E000BFD3
:10C7E00096F8280022E000BF96F8280040F00101EA
:10C7F0000198002886F82810B06143D038440AF127
:10C800000C023146B84288BF0AF1080241F8040F11
:10C810003661106800F0C4FA0CE000BF96F82800FA
:10C82000810703D4304600F04BFB03E000F0FE002C
:10C8300086F82800DAF800000022594601F0FCF9D9
:10C8400000287FF429AF73E64FF0500080F3118881
:10C85000BFF36F8FBFF34F8FFEE700BF4FF0500065
:10C8600080F31188BFF36F8FBFF34F8FFEE700BFD8
:10C870004FF0500080F31188BFF36F8FBFF34F8FDD
:10C88000FEE700BF4FF0500080F31188BFF36F8FB9
:10C89000BFF34F8FFEE700BF4FF0500080F31188C9
:10C8A000BFF36F8FBFF34F8FFEE700000000000063
:10C8B000F0B581B0044600F0C3FA94F94560012E4A
:10C8C00010DB04F1240503E0F0B2013E012809D990
:10C8D000286838B1284601F06FFC0028F4D000F039
:10C8E000A3FCF1E7FF2684F8456000F0D1FA00F0E0
:10C8F000A7FA94F94470012F10DB04F1100503E04E
:10C90000F8B2013F012809D9286838B1284601F05A
:10C9100053FC0028F4D000F087FCF1E784F8446071
:10C9200001B0BDE8F04000F0B3BA00000000000024
:10C93000B0B5044600F074FD40F2682CC2F2004C21
:10C94000DCF8040050B19CF80000002818BF4FF03C
:10C9500000404FF0000544BB83E000BF41F23E6061
:10C96000C2F20040420700F5705200F1070122F0C8
:10C97000070218BF21F00700A2F10803CCF8043029
:10C980000021CCE9060142E90211191A4160DCF8E4
:10C990000420026001208CF800004FF00040CCE938
:10C9A0000211002C4FF000055BD0204059D124F03B
:10C9B000070000F11002600708BF04F10802DCF86C
:10C9C0000800511E81424CD2604650F818EFDEF844
:10C9D000043093422BD2DEF80010B9B174464B6894
:10C9E000934217D20D68ADB16B68934216D2286896
:10C9F000A0B14368934215D204689CB16368934226
:10CA000014D22168A6460029E9D110E00CF11800E3
:10CA10000DE000BF8E46204609E000BFAE46084646
:10CA200005E000BF8646284601E000BFA646DCF8C8
:10CA300004108E4514D0991A03681129DEF80040BD
:10CA400004604DD30EEB0205680719D04FF050007B
:10CA500080F31188BFF36F8FBFF34F8FFEE700BFE6
:10CA6000002501F0E5FB68075AD04FF0500080F335
:10CA70001188BFF36F8FBFF34F8F00BFFEE700BF7A
:10CA80000CF118006960CEF8042000BF0168A942CB
:10CA90000AD20868A8420BD20168A94204D20868E9
:10CAA0000A46A842F2D304E00246084601E000BF6D
:10CAB0000A4654681119A942696802D121441546F1
:10CAC00051606C18844207D1DCF80440A0421EBFBC
:10CAD000D0E9000421446960AA42286018BF1560AB
:10CAE000DEF8040003F10805DCE90212091ACCF8AB
:10CAF0000810914238BFCCF80C109CF800100029A7
:10CB00004FF0000118BF40F00040CEE90010DCF803
:10CB100010000130CCF8100001F08AFB6807A4D1A6
:10CB20002846B0BD000000004CF2E14321F00101B5
:10CB300040F8081C4FF0807140F8041CA0F144013B
:10CB4000C0F6000340F80C3C6FF0020340E90932E4
:10CB5000084670470000000070B504460068C169CF
:10CB6000C90644BF01685FEAC16101D470BD00BF5E
:10CB700010210162D4F8800040F68075C2F20045B1
:10CB80000068AC42016821F00101016004D0016835
:10CB900041F00101016070BDD5F880000068416876
:10CBA00089B212290FD140F2E40641F22061C2F2AB
:10CBB0000046C2F20041301DF4F796FBD5F8800024
:10CBC00001213160006840F20F41C4F20201884245
:10CBD00010DC6F21C4F20201884221DC3F21C4F243
:10CBE0000201884238DC1021C4F20201884258D088
:10CBF000282153E040F26F41C4F2020188421BDC5D
:10CC000040F23F41C4F2020188422DDC40F2104163
:10CC1000C4F20201884244D040F228413EE000BF05
:10CC20009F21C4F20201884228DC7021C4F2020173
:10CC3000884236D0882131E040F29F41C4F202019F
:10CC4000884223DC40F27041C4F20201884228D0BD
:10CC500040F2884122E000BF4021C4F20201884234
:10CC60001FD058211AE000BF40F24041C4F2020137
:10CC7000884216D040F2584110E000BFA021C4F213
:10CC8000020188420DD0B82108E000BF40F2B8414F
:10CC9000C4F20201884204D040F2A041C4F2020171
:10CCA000884224214160D4F880000068016841F086
:10CCB0000101016070BD000010B540F680741020C5
:10CCC000C2F2004421680862086840F01000086061
:10CCD000D4F88C00202818BF10BD40F2E4002431A5
:10CCE000C2F200402423021DA2652420A4F85C00A7
:10CCF0000020C4F89000D4F88000F6F77DFA206890
:10CD0000816841F04001816010BD0000000000001A
:10CD1000D0E9013201699A60D0F808C04A688242BD
:10CD20004FF00002CCF8043008BFC1F804C0026123
:10CD300008680138086008687047000000000000BB
:10CD400045F24443C2F20043036045F24420C2F27C
:10CD50000040086080201060704700000000000064
:10CD600045F6A003C2F20043036045F2A040C2F2C0
:10CD7000004008604FF480701060704700000000B1
:10CD800002464FF0FF3142F8081F00214260C0E91F
:10CD9000032201607047000000210161704700001C
:10CDA00010B5D1F800E01EF1010213D000F1080423
:10CDB00062681368734511D853681C68744511D8AC
:10CDC0005A68146874450FD85468A446236873459C
:10CDD000EED90BE00269D2F804C007E0944622467F
:10CDE00004E000BF9C4601E094461A46C1F804C026
:10CDF000CCF808108A605160086101680131016057
:10CE000010BD000000000000D0F800C043684B6077
:10CE10009A688A609A689960086151600CF1010112
:10CE20000160704700000000DFF80C00016841F469
:10CE3000700101607047000088ED00E00000000014
:10CE40004FF0500080F31188BFF36F8FBFF34F8F07
:10CE500040F22000C2F200400168002901F1010106
:10CE6000016001D0704700BF4EF60450CEF20000C2
:10CE70000068000608BF70474FF0500080F311882B
:10CE8000BFF36F8FBFF34F8FFEE70000000000007D
:10CE900040F22000C2F20040016839B1013901605E
:10CEA00018BF7047002080F3118870474FF0500082
:10CEB00080F31188BFF36F8FBFF34F8FFEE7000041
:10CEC00070B5002808BF70BD40F268250446C2F264
:10CED00000452878002818BF4FF0004054F8041C83
:10CEE00008420DD0A4F1080632689AB14FF0500004
:10CEF00080F31188BFF36F8FBFF34F8FFEE700BF42
:10CF00004FF0500080F31188BFF36F8FBFF34F8F46
:10CF1000FEE700BF21EA000044F8040C00F080FAAC
:10CF200054F8041CA8680844A86005F1180000BF64
:10CF30000368B3420AD21868B04225D20368B342EC
:10CF400004D218681A46B042F2D301E002461846ED
:10CF50005368D418B44202D119441646516073186C
:10CF6000834206D16B6898421EBFD0E90003194482
:10CF70007160B242306018BF166068690130686144
:10CF8000BDE8704001F054B91A465368D418B44251
:10CF9000E5D1E1E7000000004EF210000021CEF2E2
:10CFA000000044F6D352C1F262020160816040F297
:10CFB0000C01C2F200410968A1FB02124FF0FF31DF
:10CFC00001EB9211416007210160704700000000F1
:10CFD00045F6FC0CC2F2004CDCF8002022B363469C
:10CFE00053F8082F42B3634653F8102F52B36346E9
:10CFF00053F8182F62B3634653F8202F72B3634679
:10D0000053F8282F82B3634653F8302F92B3634608
:10D0100053F8382F002A18BF704707220CEBC202C2
:10D0200019605060704700BF002263460CEBC202DB
:10D0300019605060704700BF01220CEBC2021960FA
:10D040005060704702220CEBC202196050607047BA
:10D0500003220CEBC20219605060704704220CEBF3
:10D06000C20219605060704705220CEBC2021960C1
:10D070005060704706220CEBC20219605060704786
:10D0800080B345F6FC014FF0000CC2F200410B46A4
:10D0900053F8042F82422FD00B4653F80C2F8242B4
:10D0A0002CD00B4653F8142F824229D00B4653F84C
:10D0B0001C2F824226D00B4653F8242F824223D0C5
:10D0C0000B4653F82C2F824220D00B4653F8342FB6
:10D0D00082421DD00B4653F83C2F82421DD10722BD
:10D0E00017E000BF4FF0500080F31188BFF36F8F3F
:10D0F000BFF34F8FFEE700BF00220AE0012208E0E5
:10D10000022206E0032204E0042202E0052200E0FD
:10D11000062241F832C0C3F800C090F8461000293A
:10D1200018BF7047FFF7CCBE70B515460E460446D3
:10D13000FFF786FE94F84400FF280DD094F84500D0
:10D14000FF2810D0FFF7A4FEA06BA0B12046BDE8D9
:10D150007040FFF7ADBB00BF002084F8440094F896
:10D160004500FF28EED1002084F84500FFF790FE2F
:10D17000A06B0028EAD104F1240031462A4600F0D1
:10D1800097F82046BDE87040FFF792BB0000000012
:10D1900070B588B340F2B4150446C2F20045686920
:10D1A00050B14FF0500080F31188BFF36F8FBFF381
:10D1B0004F8F00BFFEE700BF686901306861AE694C
:10D1C00028680430FFF7A4FD2868A419446005D33B
:10D1D000286A29680431FFF7E3FD08E0E869296857
:10D1E0000431FFF7DDFDE86A844238BFEC6201F0EC
:10D1F0001FF8002818BF70BD4EF604504FF0805144
:10D20000CEF200000160BFF34F8FBFF36F8F70BD90
:10D2100040F2B411C2F200418A6B02608969416038
:10D22000704700000000000040F2B4100121C2F27B
:10D23000004001637047000070B5D8B140F2B414EB
:10D240000D46C2F2004421681831FFF7A9FDA66916
:10D2500020680430FFF75CFD681C15D02068AD190C
:10D26000456019D3206A21680431BDE87040FFF79A
:10D2700097BD00BF4FF0500080F31188BFF36F8F50
:10D28000BFF34F8FFEE700BF54F8500B011D20463F
:10D29000BDE87040FFF7B8BDE06921680431FFF7D1
:10D2A0007FFDE06A854238BFE56270BD0000000086
:10D2B000F0B581B0C0B140F2B4140D46C2F20044E2
:10D2C000164621681831FFF79FFDA76920680430D2
:10D2D000FFF71EFD96B154F8500B011D204601B01A
:10D2E000BDE8F040FFF790BD4FF0500080F311888B
:10D2F000BFF36F8FBFF34F8FFEE700BF2068ED19BC
:10D30000456007D3206A2168043101B0BDE8F040D0
:10D31000FFF746BDE06921680431FFF741FDE06A8F
:10D32000854238BFE56201B0F0BD0000000000009A
:10D3300010B588B0002005A9CDE9050006A804AA0B
:10D34000FFF7FEFC059800283ED0069C002C45D037
:10D35000049A5C21079107995C2949D107992063B8
:10D36000022084F8590007A80021CDE900104CF2F2
:10D37000093029A1C0F6000000230294FFF708F845
:10D380002046FEF779FE40F2B4140798C2F200443A
:10D39000A062B0B100F0C4FF411C33D0012810D10D
:10D3A0004FF0500080F31188BFF36F8FBFF34F8FA2
:10D3B0004FF0FF30E062012020610020A06100F00A
:10D3C00097F808B010BD00BF4FF0500080F31188EF
:10D3D000BFF36F8FBFF34F8FFEE700BF4FF05000DA
:10D3E00080F31188BFF36F8FBFF34F8FFEE700BF4D
:10D3F0004FF0500080F31188BFF36F8FBFF34F8F52
:10D40000FEE700BF4FF0500080F31188BFF36F8F2D
:10D41000BFF34F8FFEE700BF49444C4500000000BA
:10D4200040F2B410C2F200404169013141617047DD
:10D4300080B540F2B41EC2F2004EDEF8141019B1ED
:10D440000121CEF8301080BD0021CEF83010DEF87A
:10D45000241041F2C01CC2F2004C01EB81035CF8C5
:10D4600023208AB101EB81020CEB820353F8042FD5
:10D47000181D52681A60824220D0D068CEF8000091
:10D48000CEF8241080BD00BF0CEB8302A2F128036C
:10D49000E1B15A6922BB012918D01A6812BB0229CE
:10D4A00014D053F8142CFAB903290FD053F8282CB0
:10D4B0000439002AA3F15003EAD0D3E752681A6076
:10D4C000D068CEF80000CEF8241080BD4FF0500098
:10D4D00080F31188BFF36F8FBFF34F8FFEE700BF5C
:10D4E0000139BFE70239BDE70339BBE7000000009F
:10D4F000B0B584B04EF2004C4CF27021CEF2000C6C
:10D50000C4F20F114B1CDCF800299A420AD14FF0EB
:10D51000500080F31188BFF36F8FBFF34F8F00BFB0
:10D52000FEE700BFDCF800298A4209D14FF0500025
:10D5300080F31188BFF36F8FBFF34F8FFEE700BFFB
:10D540009CF800100291FF218CF800109CF800104C
:10D550008DF8071040F288219DF80720C2F20041A3
:10D5600002F050020A7007224A609DF90720B2F1CA
:10D57000FF3F6BDC0322D31C4B609DF8070040008B
:10D580008DF807009DF90700B0F1FF3F25DC931CE3
:10D590004B609DF8070040008DF807009DF90700DB
:10D5A000B0F1FF3FDFBF531C4B609DF80700400008
:10D5B000DEBF8DF807009DF90700B0F1FF3F0CDCDE
:10D5C0004A60043A9DF8070040008DF807009DF975
:10D5D0000700B0F1FF3FCEDD131D032B36D14FF412
:10D5E0004070486002988CF80000DCF8200940F494
:10D5F0007000CCF82009DCF8200940F07040CCF82D
:10D600002009FFF7C9FC40F220040025C2F20044C3
:10D610002560FFF709FC4EF63470CEF20000016879
:10D6200041F040410160FEF747FFFFF701FF03951E
:10D6300020684FF0500181F31188BFF36F8FBFF363
:10D640004F8F01300ED000BFFEE700BF4FF05000FB
:10D6500080F31188BFF36F8FBFF34F8FFEE700BFDA
:10D66000039838B9039828B90398002804BF039891
:10D670000028F5D0002004B0B0BD0000000000007C
:10D6800080B54FF0500080F31188BFF36F8FBFF368
:10D690004F8F00F0C5FC30B14EF604504FF0805172
:10D6A000CEF200000160002080F3118880BD0000F0
:10D6B000F0B581B070B106460C46814214D94FF0E6
:10D6C000500080F31188BFF36F8FBFF34F8F00BFFF
:10D6D000FEE700BF4FF0500080F31188BFF36F8F5B
:10D6E000BFF34F8FFEE700BF5020FFF721F905463B
:10D6F00030B3002785F846702D60C5E90F67FFF746
:10D700009FFBD5E90F012A68AF6301FB00230138B5
:10D7100000FB01206A60C5E90230FF2085F8440063
:10D7200085F8450005F11000FFF72AFB05F12400FC
:10D73000FFF726FBFFF7ACFB022085F84C00AC633B
:10D74000284601B0F0BD000070B582B060B10D4652
:10D75000814213D94FF0500080F31188BFF36F8FCF
:10D76000BFF34F8FFEE700BF4FF0500080F31188EA
:10D77000BFF36F8FBFF34F8FFEE700BF14468AB32E
:10D78000502101910199502936D10199012184F844
:10D79000461000262460C4E90F06FFF751FBD4E9C8
:10D7A0000F012268A66301FB0023013800FB012062
:10D7B0006260C4E90230FF2084F8440084F8450028
:10D7C00004F11000FFF7DCFA04F12400FFF7D8FAA7
:10D7D000FFF75EFB022084F84C00A563204602B0F0
:10D7E00070BD00BF4FF0500080F31188BFF36F8F02
:10D7F000BFF34F8FFEE700BF4FF0500080F311885A
:10D80000BFF36F8FBFF34F8FFEE7000000000000F3
:10D81000C0B32DE9F0410646484314460F46503048
:10D82000FFF786F8054650B328464FF00008002F52
:10D8300085F8468018BF5030C5E90F672860FFF7AC
:10D84000FFFAD5E90F012A68C5F8388001FB0023EB
:10D85000013800FB01206A60C5E90230FF2085F82D
:10D86000440085F8450005F11000FFF789FA05F13D
:10D870002400FFF785FAFFF70BFB85F84C4028469C
:10D88000BDE8F0814FF0500080F31188BFF36F8F37
:10D89000BFF34F8FFEE7000070B582B070B11C4639
:10D8A000B3B1F9B9F2B14FF0500080F31188BFF372
:10D8B0006F8FBFF34F8F00BFFEE700BF4FF05000E8
:10D8C00080F31188BFF36F8FBFF34F8FFEE700BF68
:10D8D0004FF0500080F31188BFF36F8FBFF34F8F6D
:10D8E000FEE700BF51B14AB94FF0500080F31188F4
:10D8F000BFF36F8FBFF34F8FFEE700BF502301933D
:10D90000019B502B2ED1019B0123002984F8463026
:10D9100008BF2246069E2260C4E90F01FFF790FA75
:10D92000D4E90F012268002501FB0023013800FB28
:10D930000120A5636260C4E90230FF2084F844003E
:10D9400084F8450004F11000FFF71AFA04F12400EE
:10D95000FFF716FAFFF79CFA84F84C60204602B0F5
:10D9600070BD00BF4FF0500080F31188BFF36F8F80
:10D97000BFF34F8FFEE700002DE9F04F83B0029216
:10D98000C0B104461D4617460E46E9B1022D02D12C
:10D99000E06B01285AD100F02BFB18BB17B34FF0F6
:10D9A000500080F31188BFF36F8FBFF34F8F00BF1C
:10D9B000FEE700BF4FF0500080F31188BFF36F8F78
:10D9C000BFF34F8FFEE700BF206C0028DED04FF082
:10D9D000500080F31188BFF36F8FBFF34F8F00BFEC
:10D9E000FEE700BFFFF72CFA022DA06B65D0E16BBC
:10D9F000884262D30298002800F016816846FFF73B
:10DA000007FCFFF745FAFFF70BFDFFF719FA94F84B
:10DA10004400FF2802D1002084F8440094F8450017
:10DA2000FF2802D1002084F84500FFF731FA68464C
:10DA300002A900F021FA98B12046FEF739FF00F064
:10DA4000F7FB002003B0BDE8F08F00BF4FF050009F
:10DA500080F31188BFF36F8FBFF34F8FFEE700BFD6
:10DA600004F11008FFF7ECF9D4F83890E76BFFF7F2
:10DA70000FFAB94516D102994046FFF7DDFB204663
:10DA8000FEF716FF00F0D4FB88B94EF604504FF0B5
:10DA90008051CEF200000160BFF34F8FBFF36F8F54
:10DAA00005E000BF2046FEF703FF00F0C1FBFFF7D3
:10DAB000C7F9A06BE16B884264D2A76B226CDAB124
:10DAC00025B3E0683146F2F74EFCE168206C22682D
:10DAD000091A9142E16003D24042A1680844E06023
:10DAE000A81E3946B0FA80F0002F18BF0121400966
:10DAF00008403F1A17E000BF20680025A0B9A068C1
:10DB000000F012FBA56005460EE000BF60683146DC
:10DB1000F2F729FCD4E90101226C104460608842CC
:10DB200001D3206860600025781CA06354F8240F9E
:10DB3000A0B1204600F040FB50B14EF604504FF02B
:10DB40008051CEF200000160BFF34F8FBFF36F8FA3
:10DB5000FFF79EF9012003B0BDE8F08F002DF7D04C
:10DB60004EF604504FF08051CEF200000160BFF33A
:10DB70004F8FBFF36F8FFFF78BF9012003B0BDE824
:10DB8000F08F00BFE94602AF0CE000BF2046FEF771
:10DB90008FFE00F04DFBFFF753F9A06BE16B88425D
:10DBA000FFF48BAF029800283ED0FFF771F9FFF722
:10DBB00037FCFFF745F994F84400FF2802D1002014
:10DBC00084F8440094F84500FF2802D1002084F82E
:10DBD0004500FFF75DF94846394600F04DF9002849
:10DBE0007FF42AAFFFF72CF9D4F838A0D4F83CB072
:10DBF000FFF74EF9DA45C9D102994046FFF71CFB01
:10DC00002046FEF755FE00F013FB0028C3D14EF668
:10DC100004504FF08051CEF200000160BFF34F8FEF
:10DC2000BFF36F8FB7E700BFFFF732F9002003B0F3
:10DC3000BDE8F08F000000002DE9F04F83B00292A4
:10DC400090B1044616460D46002947D000F0D0F9A1
:10DC5000A0B99EB14FF0500080F31188BFF36F8FD1
:10DC6000BFF34F8FFEE700BF4FF0500080F31188E5
:10DC7000BFF36F8FBFF34F8FFEE700BFFFF7E0F8F2
:10DC8000D4F838A0BAF1000F36D0226C52B1D4E9E2
:10DC900002011144E160814201D32168E16028461C
:10DCA000F2F761FBAAF10100A06354F8100F70B104
:10DCB000204600F081FA50B14EF604504FF08051EA
:10DCC000CEF200000160BFF34F8FBFF36F8F0124CE
:10DCD000FFF7DEF8204603B0BDE8F08F206C002887
:10DCE000B4D04FF0500080F31188BFF36F8FBFF3B3
:10DCF0004F8F00BFFEE700BF0298002800F0B480FD
:10DD00006846FFF785FAFFF7C3F8FFF789FBFFF7CF
:10DD100097F894F84400FF2802D1002084F84400CA
:10DD200094F8450004F12408FF2802D1002084F86B
:10DD30004500FFF7ADF8684602A900F09DF878B1FC
:10DD40002046FEF7B5FD00F073FAFFF779F8A66BF1
:10DD5000FFF79EF82EBB0024204603B0BDE8F08FED
:10DD6000FFF76EF8A66BFFF793F82EB12046FEF78B
:10DD70009FFD00F05DFA14E002994046FFF75CFA5F
:10DD80002046FEF795FD00F053FA50B94EF60450C8
:10DD90004FF08051CEF200000160BFF34F8FBFF310
:10DDA0006F8FFFF74DF8D4F838A0BAF1000F7FF469
:10DDB0006CAF4FF00009EB4602AE13E02046FEF7D1
:10DDC00077FD00F035FAFFF73BF8A76BFFF760F837
:10DDD000002FC0D0FFF734F8D4F838A0BAF1000F04
:10DDE0007FF453AF029800283ED0FFF751F8FFF7B9
:10DDF00017FBFFF725F894F84400FF2808BF84F8C4
:10DE0000449094F84500FF2808BF84F84590FFF738
:10DE10003FF85846314600F02FF80028CED1FFF7E2
:10DE20000FF8A76BFFF734F837B12046FEF740FD37
:10DE300000F0FEF9CEE700BF02994046FFF7FCF97B
:10DE40002046FEF735FD00F0F3F90028C2D14EF66A
:10DE500004504FF08051CEF200000160BFF34F8FAD
:10DE6000BFF36F8FB6E700BF0024FFF711F820461D
:10DE700003B0BDE8F08F0000B0B538B30D4679B3FC
:10DE80000446FEF7DDFF40F2B41CC2F2004CDCF8A1
:10DE9000182029684B1C2DD0D4E9000EDCF838304E
:10DEA000834201D072452DD2A2EB0E02914227D9B6
:10DEB000881A2860DCF838002060DCF81800606000
:10DEC0000024FEF7E5FF2046B0BD00BF4FF0500034
:10DED00080F31188BFF36F8FBFF34F8FFEE700BF52
:10DEE0004FF0500080F31188BFF36F8FBFF34F8F57
:10DEF000FEE700BF0024FEF7CBFF2046B0BD00BF09
:10DF0000002028600124FEF7C3FF2046B0BD0000BA
:10DF10002DE9F04383B007469000984615468946A0
:10DF2000FEF706FDF8B106465C20FEF701FDB8B12C
:10DF300004460022DDE90A102663434684F859208E
:10DF40002A46CDE90010384649460294FEF720FAE9
:10DF50002046FEF791F8012003B0BDE8F08300BF32
:10DF60003046FEF7ADFF4FF0FF3003B0BDE8F08361
:10DF700070B586B00B9CDCB10C9E1EB35C2504957D
:10DF8000049D5C2D28D1DDF828C0049D3463022552
:10DF900086F85950CDF800C005ADCDE90156FEF721
:10DFA000F7F93046FEF768F8059806B070BD00BF77
:10DFB0004FF0500080F31188BFF36F8FBFF34F8F86
:10DFC000FEE700BF4FF0500080F31188BFF36F8F62
:10DFD000BFF34F8FFEE700BF4FF0500080F3118872
:10DFE000BFF36F8FBFF34F8FFEE70000000000000C
:10DFF00040F2B410C2F20040016929B14069B0FAA0
:10E0000080F0400940007047012070470000000088
:10E0100040F2B410C2F20040806970470000000076
:10E020002DE9F04381B040F2B416C2F200467069A7
:10E0300040B1706B002401307063204601B0BDE830
:10E04000F08300BFB06910F10109C6F8189020D321
:10E05000F069006850B14FF0500080F31188BFF3B1
:10E060006F8FBFF34F8F00BFFEE700BFF069316ACB
:10E07000F1613062B06B0130B063F069006828B1C3
:10E08000F069C068C068406802E000BF4FF0FF3030
:10E09000F062F06A41F2C0188145C2F2004801D234
:10E0A00000242EE0F0690024006813E0F86A716A29
:10E0B0008842294688BF706200EB800008EB800030
:10E0C000FEF7A2FEF86A3168C96AF269884228BF81
:10E0D0000124106890B1F069C068C7683D4655F8E2
:10E0E000040F81450CD32846FEF712FEB86A0028BB
:10E0F000DCD007F11800FEF70BFED7E74FF0FF303A
:10E10000F0623068C06A00EB800058F820000128F7
:10E1100088BF0124306B002818BF0124204601B0BD
:10E12000BDE8F0830000000070B588B140F2B4167D
:10E130000446C2F200463068A0420BD04FF05000B7
:10E1400080F31188BFF36F8FBFF34F8FFEE700BFDF
:10E15000002070BD206D18B3013820654FF000001D
:10E160001DD1E16AE26C914208BF70BD251D2846B1
:10E17000FEF7CEFDE06CE062C0F13801A161716A8A
:10E18000884241F2C01188BF706200EB8000C2F289
:10E19000004101EB80002946FEF736FE012070BDEC
:10E1A0004FF0500080F31188BFF36F8FBFF34F8F94
:10E1B000FEE700000000000070B5C068C5686DB1E2
:10E1C00005F118042046FEF7A3FD40F2B416C2F292
:10E1D0000046706960B106F164001AE04FF050002B
:10E1E00080F31188BFF36F8FBFF34F8FFEE700BF3F
:10E1F0002C1D2046FEF78CFDE86A716A884241F2C8
:10E20000C01188BF706200EB8000C2F2004101EBD8
:10E2100080002146FEF7F8FDE86A3168C96A884245
:10E2200002D90120306370BD002070BD00000000E5
:10E230002DE9F04140F2B415C2F20045686968B1B9
:10E24000FEF7FEFD686901386861686980B10024E5
:10E25000FEF71EFE2046BDE8F08100BF4FF05000E3
:10E2600080F31188BFF36F8FBFF34F8FFEE700BFBE
:10E27000E8680028EBD0686E88B341F2C0164FF012
:10E280000108C2F2004600BF286FC76807F11800F6
:10E29000FEF73EFD3C1D2046FEF73AFDF86A696A2E
:10E2A0008842214688BF686200EB800006EB800050
:10E2B000FEF7AAFDF86A2968C96A884228BFC5F82E
:10E2C0003080686E0028DFD1E869006820B1E86915
:10E2D000C068C068406801E04FF0FF30E8626C6BD6
:10E2E0004CB10126FFF79CFE002818BF2E63013CAD
:10E2F000F8D100206863286B0028A8D04EF604509F
:10E300004FF08051CEF2000001240160BFF34F8F27
:10E31000BFF36F8FFEF7BCFD2046BDE8F081000023
:10E3200070B586B0FEF78CFD40F22C26C2F2004696
:10E33000306808BB06F114042046FEF721FD06F103
:10E3400028052846FEF71CFD41F2D00241F2701369
:10E35000C2F20042C2F200430A201021C6E902457F
:10E3600000250095FFF798FA306028B14FF2E96177
:10E37000C0F60001FEF72CFEFEF78AFD3068D8B12A
:10E38000002004A9CDE9040005A803AAFEF7E8FCD3
:10E39000DDE9032002210023CDE900104CF22150D9
:10E3A0000AA1C0F60000059D0295FFF7E1FD70602F
:10E3B00010B1012006B070BD4FF0500080F31188FD
:10E3C000BFF36F8FBFF34F8FFEE700BF546D722016
:10E3D0005376630003B401984100009850EAC120CD
:10E3E00018BF04204A0D18BF40F0010040F2FF7230
:10E3F000B2EB515F08BF40F00200012808BF0520C2
:10E4000002B070474100080218BF04200A0E18BF6E
:10E4100040F001004FF07F4232EA010108BF40F0B6
:10E420000200012808BF05207047000010B54FF01A
:10E430000E402DED028BB0EE408A18EE104A00EB34
:10E440004400B0F1506F4AD84FF0FC40B0EB440F9D
:10E4500022D2B0EEC80AF7EE000A30EEC00AF6EE9D
:10E46000000A60EE208A18EE900A00F057FF01EED5
:10E47000100A14F0004F1DBFDFED2D0A9FED2D0A8D
:10E48000B1EE411ADFED2C0A08BF9FED2C0AF8EE21
:10E49000001A21EE218A05E0DFED290A68EE088ADC
:10E4A000B0EE600A9FED271ADFED271A30EE080A5A
:10E4B00048EE811A9FED251A08EEA11ADFED241A05
:10E4C00048EE811A9FED231A08EEA11A68EE281A69
:10E4D000BDEC028B01EE810A30EE200A10BD4FF038
:10E4E000E440B0EB440F0CD918EE100AFFF78AFF96
:10E4F000042808BF00F03EFEB0EE480ABDEC028BD7
:10E5000010BD4FF07F40B0EB440F07D2B0EE480A89
:10E51000BDEC028BBDE8104000F01EBE012000F0F3
:10E52000EBFEBDEC028BBDE8104000F01BBE00000E
:10E530000000C9BF22AAFDB90000C93F22AAFD39C7
:10E540000000000024FE1C3DC78AD83C1E67383DF1
:10E550001B93993DAFAA2A3E70B54FF068422DED4E
:10E56000048BF0EE408A18EE900AB0EE608A18EE46
:10E57000101A02EB4003B3F1654F3CBF02EB4102BE
:10E58000B2F1654F7DD200BFC0F3C753C1F3C7528C
:10E590009A1A1B2A09DD10F0004F14BF9FED830A61
:10E5A0009FED830ABDEC048B70BD12F11A0F36DAB1
:10E5B00011F0004F09D010F0004F0CBF9FED7D0A05
:10E5C0009FED7D0ABDEC048B70BD88EE889A19EE34
:10E5D000100AFFF717FF042808BF00F0CBFD18EE64
:10E5E000900AFFF70FFF054618EE100AFFF70AFF23
:10E5F000044619EE100AFFF705FF042D18BF052D7C
:10E6000008D1042C18BF052C04D1002804BF022017
:10E6100000F072FEB0EE490ABDEC048B70BD420002
:10E62000B2EB410F3AD910F0004F19BFDFED630A8A
:10E630009FED630ADFED630A9FED630AB0EE481AAF
:10E640000A46B1EE688A80F00041F0EE418A104639
:10E650000A1A5200B2F1807F34D2484010F0004FC5
:10E66000DFED5A1A9FED5A2A1DBFBEEE001A70EE5A
:10E67000E10A30EE420AB6EE001A08BF70EEA10AB7
:10E6800000E040E008BF30EE020AB0EE682A01EE7A
:10E69000482A08EE818AC2EE081A15E011F0004FF0
:10E6A00004BF9FED4C0AF0EE400AD1D010F0004FAD
:10E6B00019BFDFED490A9FED490ADFED490A9FEDD9
:10E6C000490AC5E7C8EE881A21EEA11A9FED462A2D
:10E6D000DFED462A41EE022A9FED452A01EE222A6D
:10E6E000DFED442A41EE022A9FED432ABDEC048B64
:10E6F00001EE222A21EE811A01EE020A30EE210AF1
:10E7000030EE200A70BD4FF07F42B2EB400F28BFC1
:10E71000B2EB410F09D2F0EE480AB0EE680ABDEC48
:10E72000048BBDE8704000F01ABD40EA01035B00B5
:10E7300008BF41F0FF410BD0B2EB400F08BFB2EB76
:10E74000410F08D120F0804008EE900A21F080416E
:10E7500008EE101A18E7B2EB400F12BF5FEA410350
:10E7600040F0FF4001F000413FF40EAFB2EB410F2B
:10E7700012BF5FEA400200F0004041F0FF413FF469
:10E7800003AF4A0092EA40033FF5FEAE002AACBF59
:10E790009FED1A0A9FED1A0A68EE808A28EE008A19
:10E7A00018EE900A18EE101AEEE60000DB0FC9BF53
:10E7B000DB0FC93FDB0F4940DB0F49C00000C9BF79
:10E7C00022AAFDB90000C93F22AAFD390060ED3E32
:10E7D000C30ACE3700000000000049C022AA7DBA5B
:10E7E0000000494022AA7D3A2DAD65BD8FB8D53DC8
:10E7F0000FB511BE61C84C3EA8AAAABE0000804F4A
:10E800000000802F0000000010B529499FED261B55
:10E810002DED020B84B0059820F000408842D8BF4F
:10E820009DED040B2DDD2349884209D1049840B9A0
:10E830004FF0010000F060FD00F076FC06B010BD66
:10E8400005DB9DED040B30EE000B06B010BD6846F5
:10E850009DED040B00F0F8F910F0030004BF9DEDEE
:10E86000021B9DED000B0CD001280ED09DED021B6C
:10E870009DED000B022810D0012000F005FC06B031
:10E8800010BD00F065FB06B010BD9DED021B9DEDB7
:10E89000000B012000F0F8FB01E000F059FBB1EEA5
:10E8A000400B06B010BD000000000000000000009A
:10E8B000FB21E93F0000F07F10EE101A08B5444A32
:10E8C0006846B2EB410F28D94FF0E640B0EB410F5C
:10E8D00094BF00204FF0FF3000900098002861DBCB
:10E8E00060EE000A10F0010F45D010F0020FDFEDCE
:10E8F000391A9FED391A00EEA11ADFED381A40EEF1
:10E90000811A21EEA01AF0EE400A40EE010A08BF7B
:10E91000F1EE600AB0EE600A08BD314B21F0004212
:10E9200093423CD911F0004FDFED2E0A20EE201A61
:10E93000DFED2D0A19BF31EE601A71EE200A31EEBB
:10E94000201A71EE600ABDEEE01A11EE100A9FED7A
:10E95000271A00F0030000EEC10A9FED251A00906F
:10E9600000EEC10A9FED231A00EEC10A9FED221AA4
:10E9700000EEC10AB1E79FED211A9FED210A10F0C8
:10E98000020F00EE810A9FED1F1A00EE801AB7EE0B
:10E99000000A00EE810A18BFB1EE400A08BD00F07F
:10E9A000F1FB9AE710EE100A4000B0F17F4F3CBF38
:10E9B000B7EE000A08BD07D14FF0010000F09CFC43
:10E9C000BDE8084000F0CEBBBDE8084000F0C4BB85
:10E9D000B61F927E336D4CB9DA82083CA0AA2ABEDB
:10E9E000490E494683F9223F0000004B0000C93F11
:10E9F00000A0FD390020A2331A61342CB93AB2BA12
:10EA0000CA9F2A3DDDFFFFBE10B529499FED261B99
:10EA10002DED020B84B0059820F000408842DCBF49
:10EA200000209DED040B2EDD2249884209D1049877
:10EA300040B94FF0010000F05FFC00F075FB06B03C
:10EA400010BD05DB9DED040B30EE000B06B010BDD4
:10EA500068469DED040B00F0F7F810F003000DD0B0
:10EA6000012814D09DED021B9DED000B022816D04D
:10EA700000F06EFAB1EE400B06B010BD9DED021B2A
:10EA80009DED000B012000F0FFFA06B010BD9DEDDA
:10EA9000021B9DED000B00F05BFA06B010BD0120DB
:10EAA00000F0F2FAE6E700000000000000000000BD
:10EAB000FB21E93F0000F07F00B510EE101A2DEDAC
:10EAC000028B81B0524A6846B2EB410F2ED94FF00B
:10EAD000E640B0EB410F94BF00204FF0FF300090B4
:10EAE0000098B0EE408A00286ADB10F0010F4BD08E
:10EAF00068EE080A9FED471A9FED470A00EE810A6B
:10EB00009FED461A10F0020F00EE801AB7EE000AD1
:10EB100000EE810A02BF01B0BDEC028B00BD00BF58
:10EB200001B0B1EE400ABDEC028B00BD3C4B21F0C0
:10EB30000042934241D911F0004FDFED3A0A20EE36
:10EB4000201ADFED390A19BF31EE601A71EE200A82
:10EB500031EE201A71EE600ABDEEE01A11EE100AD5
:10EB60009FED321A00F0030000EEC10A9FED301A4B
:10EB7000009000EEC10A9FED2F1A00EEC10A9FED32
:10EB80002E1A00EEC10AABE728EE080A9FED2B1AF9
:10EB9000DFED2B0A10F0020F40EE010A9FED291A5B
:10EBA00000EE201A61EE000AB0EE480A08EE200AD4
:10EBB000B6D101B0BDEC028B00BD00F0E3FA8FE7E7
:10EBC00018EE100A4000B0F17F4F0DD218EE100A77
:10EBD000FFF718FC042808BF00F0CCFAB0EE480A92
:10EBE00001B0BDEC028B00BD09D1012000F084FB17
:10EBF00001B0BDEC028B5DF804EB00F0B3BA01B0DC
:10EC0000B0EE480ABDEC028B5DF804EB00F0A4BA4C
:10EC1000B61F927EB93AB2BACA9F2A3DDDFFFFBE47
:10EC2000490E494683F9223F0000004B0000C93FCE
:10EC300000A0FD390020A2331A61342C336D4CB989
:10EC4000DA82083CA0AA2ABE2DE9F14F04462DED38
:10EC5000020B2DED048B94B09FED9D0B80ED020B0C
:10EC6000199E9D4826F0004585420ADC9DED180B53
:10EC7000002084ED000B14B0BDEC048B03B0BDE8A4
:10EC8000F08F96489FED969B9FED978BA84225DDD0
:10EC900097489FED991B9FED9A2B9DED180B002E29
:10ECA0000DDD30EE490B854212BF30EE480B30EEE1
:10ECB000410B30EE420B84ED000B0120DBE730EE20
:10ECC000090B854212BF30EE080B30EE010B30EE1F
:10ECD000020B84ED000B4FF0FF30CCE78A48A842CE
:10ECE00053DB9DED180B51EC100B00F00BFB41ECCE
:10ECF000100BB0EE401B9FED862BB6EE000B01EE25
:10ED0000020BFDEEC00B10EE903A00EE903AB8EE1A
:10ED1000E02BB0EE410B02EE490B22EE081BDFF8B0
:10ED2000F8C1290D0120FC4430EE411B84ED001B8D
:10ED300003281DD011EE902A00EB4015113DC2F3BF
:10ED40000A528A1A954213DAB0EE403B0CEB0012DD
:10ED500092ED000B20EE021B33EE410B33EE403BF5
:10ED600033EE411B92ED023B12EE031B401CDBE72E
:10ED7000002EA8BF1846BFF67EAF94ED000BB1EE93
:10ED8000400B84ED000B584275E7C6F3130040F4C6
:10ED9000801EC6F30A50A0F2F530471100F01F059F
:10EDA000C5F12000DDF860B01390002008900990B4
:10EDB00005200DF1080C5949002D07EB000279449C
:10EDC00008BF51F8221009D051F8223001EB82011E
:10EDD000AB404A68139922FA01F11943A1FB0E26B0
:10EDE000A1FB0B131A449A4234BF0123002303EB07
:10EDF00006080CEB8003D3E901A60E448E4234BF13
:10EE00000121002192448A4411B1924502D903E0C4
:10EE1000924501D2012100E00021C3E901A641444D
:10EE20004CF82010011EA0F10100C4DC04989DEDF7
:10EE3000050A00F10050810F0498DDED060A8000FC
:10EE40009DED072A01EE100AB8EEC13BB8EE401B5B
:10EE50009FED334B21EE041BB8EE600B9FED324B60
:10EE600020EE040BB8EE422B9FED314B22EE042B2B
:10EE700030EE024B34EE014B34EE034B8DED004B84
:10EE8000002000909DED004B34EE433B33EE411BE0
:10EE900031EE400B32EE401B9DED000B9FED262B1B
:10EEA00020EE020B9FED262B01EE020B9DED001BC9
:10EEB0009FED252B01EE020B199810F0004F1CBF9F
:10EEC0004942B1EE400B84ED000B0846D3E600004A
:10EED0000000000000000000FB21E93F7CD9024057
:10EEE00000004054FB21F93F3163621A61B4D03D08
:10EEF000FB21F93F000000000000601A61B4D03D22
:10EF00007370032E8A19A33BFB21394100000000D6
:10EF100083C8C96D305FE43F66060000FE0500004F
:10EF2000000000000000103E000000000000103C47
:10EF3000000000000000103A3326A611460B113CD9
:10EF4000182D4454FB21F93D00000054FB21F93DEC
:10EF500010B52DED040B2DED048B82B0B0EE419B6E
:10EF6000079820F00044B4F1795F0FDA9DED060BAD
:10EF7000BDEEC00B10EE100A002801BFB7EE000B6B
:10EF800002B0BDEC048B04B008BF10BD9DED060BB4
:10EF900020EE008BB0EE480B1B480621784400F0B1
:10EFA00039F820EE080B28EE000B9DED061B01EE54
:10EFB000490BB6EE001B28EE011B1448B7EE002BE0
:10EFC0008442BCBF31EE400B32EE400B16DB1048E2
:10EFD000A042BCBFB5EE023B8DED003B06DBA4F5C5
:10EFE00000100190002000909DED003B31EE431B8E
:10EFF00032EE432B31EE400B32EE400B02B0BDEC53
:10F00000048B04B010BD0000C00300003333D33FB5
:10F010000000E93FB0EE401B491E00EBC10292ED3B
:10F02000000B31F006020DD0491E00EBC10292ED3B
:10F03000002BB0EE403BB0EE420B03EE010B31F083
:10F040000602F1D1022914D004290AD0062918BFDA
:10F05000704790ED0A2B00EE012B90ED080B02EEAD
:10F06000010B90ED062B00EE012B90ED040B02EE50
:10F07000010B90ED022B00EE012B90ED000B02EE48
:10F08000010B70470000000031B504462DED040B64
:10F090002DED068BB0EE419B07989DED060B20F001
:10F0A0000040B0F1795F0DDA51EC100BFFF792F9E7
:10F0B000042808BF00F044F89DED060BBDEC068B5C
:10F0C00005B030BD20EE008B28EE00ABB0EE480B53
:10F0D000114805217844FFF79DFF9FED111B8CB16E
:10F0E000B6EE002B29EE022B0AEE402B18EE029B07
:10F0F0000AEE419B9DED060B30EE490BBDEC068BF5
:10F1000005B030BD08EE001B9DED060B0AEE010BAD
:10F11000BDEC068B05B030BDA80300000000000068
:10F12000495555555555C5BF9FED031B81EE010B44
:10F130007047000000000000000000000000000018
:10F140009FED030B20EE000B704700000000000055
:10F15000000000000000001030EE000A704730EEA2
:10F16000200A7047DFED020A80EEA00A7047000017
:10F17000000000009FED020A20EE000A7047000028
:10F18000000000102DE9F0014FF07F42B2EB410F7B
:10F190009FBF4FF0FF310160BDE8F00170474FF0B5
:10F1A000004242EA0123C1F3C752783A551112F0E6
:10F1B0001F0C434CCCF120067C44C1F3C752A2F192
:10F1C00078024FEA621204EB820254F8254008BF2D
:10F1D000D2E9015612D0556804FA0CF425FA06F764
:10F1E0003C43976805FA0CF527FA06F8D26807FA47
:10F1F0000CFCF24045EA08054CEA0206A4FB034C6D
:10F20000A5FB0352A6FB03631D449D4234BF0126A8
:10F2100000261319334416B1934202D903E09342F6
:10F2200001D2012200E00022624402F1200C920689
:10F23000DC0C42EA443200EE102A5B03DFED210AC7
:10F24000F8EEC01A00EE103A4FEA9C1C11F0004F85
:10F25000B8EE400AC0F800C020EE201A00EE105AA6
:10F26000DFED190AB8EE400A20EE200A71EE810A9D
:10F2700070EE800A10EE902A02F500626FF30B0226
:10F2800000EE902A70EEE11A31EEC11ADFED101A8D
:10F2900030EE411A9FED0D0A20EE800A01EE210AA0
:10F2A0009FED0C1A00EE810A04BFBDE8F001704723
:10F2B000CCF180510160BDE8F001B1EE400A704729
:10F2C000A0020000000000360000802C22AAFD29C8
:10F2D000DB0FC92F0000C92F02E008C8121F08C1A8
:10F2E000002AFAD170477047002001E001C1121FC7
:10F2F000002AFBD1704700000149086070470000F8
:10F300000000002482B0CDE9000121F0004001900E
:10F310009DED000B02B051EC100B704710B500EEE4
:10F32000100A2DED028BB1EEC08A18EE100A20F003
:10F330000040C0F1FF40C00F0AD010EE100A20F0CC
:10F340000040C0F1FF40C00F04BF0120FFF7D4FF11
:10F3500018EE100ABDEC028B10BD0000000000008A
:10F360004C5555555555A53F7751C1166CC156BFE3
:10F370009015CB19A001FA3EAD529C804F7E92BEF3
:10F38000C4B1B4BD9EEE213ED43888BEE9FAA8BD12
:10F3900000004054FB21F93F3163621A61B4D03D53
:10F3A0000000601A61B4D03D7370032E8A19A33B2C
:10F3B0000000002E8A19A33BC14920259A837B397E
:10F3C00000000000000000006E83F9A22915444EE1
:10F3D000D15727FCC0DD34F5999562DB4190433C61
:10F3E000AB6351FE61C5BBDE3A6E24B7E0D24D423D
:10F3F000EA2E49061C92D1091CEB1DFE3EA729B13D
:10F40000F53582E88444BB2E26709CE9417E5FB4CA
:10F4100039D69139F43953838B5F849C3B28F9BDED
:10F42000FF97F81F0F9805DE8B112FEF1F6D0A5AFB
:10F43000CF7E366DB709CB27663F464F2DEA5F9EDC
:10F44000C7BA27757BF1E5EBF739073DEA92528A97
:10F45000B15FFB6B085D8D1F463003560000000056
:10F460006E83F9A22915444ED15727FCC0DD34F52F
:10F47000999562DB4190433CAB6351FE0000000074
:10F48000A6F810111111813FD561C119A0012ABF41
:10F490007DFEB157E31DC73EEB9C2B8AE6E55ABEC5
:10F4A0007CD5CF5A3AD9E53D000020410AD7233C0C
:10F4B00000000000000020410AD7233C00000000AB
:10F4C000000020410AD7233C00000000000020413A
:10F4D0000AD7233C000000000000000000000000EC
:10F4E000000000000000000000000000010000001B
:10F4F0000200000003000000040000000000000003
:10F5000005000000000000000000000000000000F6
:10F5100006000000000000000000000000000000E5
:10F520000700000000002041CDCCCC3D00000000D1
:10F5300000002041CDCCCC3D000000000000C842BE
:10F54000000000000000F0410000A0410000803FEA
:10F5500000000000000408102040010408102040B2
:10F56000ADF60008000000000000000000000000F0
:10F57000000000000004000008000000000000007F
:10F580000000000000000000010203040102030467
:10F5900006070809BAF60008000000000000000095
:10F5A000000000000000000000040000180000003F
:10F5B00000000000000000009FF6000800000000AE
:10F5C0000000000000000000000000000004000037
:10F5D000180000000000000000000000C6F600084F
:10F5E000000000000000000000000000000000001B
:10F5F00000040000180000000000000000000000EF
:10F60000010002000400060008000A000C001000BF
:10F6100020004000800000010001020304050607ED
:10F62000080C1014182030400101010307010000EC
:10F630000804020408010101D1F6000800000000DE
:10F6400000000000000000000000000000020000B8
:10F6500018000000000000000000000090F6000804
:10F66000000000000000000000000000DDF60008BF
:10F67000000000000000000000000000000000008A
:10F68000000400000800000000000000000000006E
:10F69000696D7542696E61727953656D30310050E4
:10F6A000435F54616E64525F5461736B00436861E1
:10F6B000737369635F5461736B0047696D62616C5A
:10F6C0005F5461736B0053686F6F745F5461736B49
:10F6D0000064656661756C745461736B00696D7567
:10F6E00054656D704374726C00546D7251007D04EA
:10F6F000017C000240AB0341000553080658040793
:10F700000F000810820911000A15800B16000C1852
:10F71000010D000038F70008000000242800000058
:10F72000D8F2000860F7000828000024185D0000E7
:10F73000E8F20008000000000000000001000000E6
:10F74000100000000090D0030090D003E7416B3A16
:10F7500058A08B3A01010000AAAAAAAA0000000042
:04000005080002CD20
:00000001FF
